:100000000C945D000C9485000C9485000C94850084
:100010000C9485000C9485000C9485000C9485004C
:100020000C9485000C9485000C9485000C9485003C
:100030000C9485000C9485000C9485000C9485002C
:100040000C94E2020C9485000C94B0020C948A0289
:100050000C9485000C9485000C9485000C9485000C
:100060000C9485000C9485000000000024002700FB
:100070002A0000000000250028002B0004040404CE
:100080000404040402020202020203030303030342
:10009000010204081020408001020408102001021F
:1000A00004081020000000080002010000030407FB
:1000B00000000000000000002C0311241FBECFEF41
:1000C000D8E0DEBFCDBF22E0A8E3B1E001C01D92C1
:1000D000AE32B207E1F711E0A0E0B1E0E6E0FBE00C
:1000E00002C005900D92A833B107D9F710E0CDE515
:1000F000D0E004C02197FE010E947605CC35D107DF
:10010000C9F70E946B030C9481050C94000090E0E9
:10011000FC01EC55FF4F2491FC01E057FF4F349157
:10012000FC01E458FF4FE491EE23B9F1222339F1A9
:10013000233091F038F42130A9F0223001F584B554
:100140008F7D12C0273091F02830A1F02430B9F40F
:10015000809180008F7D03C0809180008F77809395
:1001600080000DC084B58F7784BD09C08091B00038
:100170008F7703C08091B0008F7D8093B000F0E056
:10018000EE0FFF1FEE58FF4FA591B4918FB7F89473
:10019000EC9130953E233C938FBF089590E0FC0195
:1001A000E057FF4F2491FC01E458FF4F84918823CE
:1001B00099F090E0880F991FFC01E859FF4FA59135
:1001C000B491FC01EE58FF4F859194918FB7F8944C
:1001D000EC91E22BEC938FBF0895CF92DF92EF92D8
:1001E000FF920F931F93CF93DF936C017A018B01E2
:1001F000C0E0D0E0CE15DF0589F0D8016D918D010A
:10020000D601ED91FC910190F081E02DC601099598
:10021000892B11F47E0102C02196ECCFC701DF913A
:10022000CF911F910F91FF90EF90DF90CF900895A5
:10023000089580E090E00895FC01538D448D252FB2
:1002400030E0842F90E0821B930B541710F0CF9670
:10025000089501970895FC01918D828D981761F0A2
:10026000828DDF01A80FB11D5D968C91928D9F5FED
:100270009F73928F90E008958FEF9FEF0895FC0198
:10028000918D828D981731F0828DE80FF11D858D4B
:1002900090E008958FEF9FEF0895FC01918D228DDE
:1002A000892F90E0805C9F4F821B91098F73992763
:1002B000089589E491E00E944D0121E0892B09F421
:1002C00020E0822F0895FC01848DDF01A80FB11D6D
:1002D000A35ABF4F2C91848D90E001968F7399277C
:1002E000848FA689B7892C93A089B1898C91806469
:1002F0008C93938D848D981306C00288F389E02D2A
:1003000080818F7D80830895EF92FF920F931F93DA
:10031000CF93DF93EC0181E0888F9B8D8C8D9813B8
:1003200005C0E889F989808185FD24C0F62E0B8DF2
:1003300010E00F5F1F4F0F731127E02E8C8DE81216
:100340000CC00FB607FCFACFE889F989808185FFD8
:10035000F5CFCE010E946301F1CF8B8DFE01E80F36
:10036000F11DE35AFF4FF0820B8FEA89FB898081F0
:10037000806207C0EE89FF896083E889F9898081FE
:100380008064808381E090E0DF91CF911F910F9195
:10039000FF90EF900895CF93DF93EC01888D882331
:1003A000C9F0EA89FB89808185FD05C0A889B989E2
:1003B0008C9186FD0FC00FB607FCF5CF808185FFBD
:1003C000F2CFA889B9898C9185FFEDCFCE010E942B
:1003D0006301E7CFDF91CF91089580E090E0892B12
:1003E00029F00E94590181110C94000008952FB743
:1003F000F89460913D0170913E0180913F01909190
:1004000040012FBF08958F929F92AF92BF92CF92DB
:10041000DF92EF92FF926B017C010E94F7014B018A
:100420005C01C60ED71EE81EF91E0E94F701681572
:1004300079058A059B0528F0C616D706E806F90651
:10044000A0F7FF90EF90DF90CF90BF90AF909F907C
:100450008F9008950E947C056115710579F0FB016C
:1004600001900020E9F73197AF01461B570BDC01E3
:10047000ED91FC910280F381E02D099480E090E001
:1004800008954F925F926F927F92EF92FF920F9337
:100490001F93CF93DF93CDB7DEB7A1970FB6F89434
:1004A000DEBF0FBECDBF7C01FA01CB0119A2223005
:1004B00008F42AE08E010F5D1F4F422E512C612C53
:1004C000712CBF01A30192010E945405F901CA01D8
:1004D000015011096A3014F4605D01C0695CD801F3
:1004E0006C93232B242B252B61F7B801C7010E94A5
:1004F0002C02A1960FB6F894DEBF0FBECDBFDF91E0
:10050000CF911F910F91FF90EF907F906F905F9030
:100510004F9008951F920F920FB60F9211242F93B0
:100520003F934F935F936F937F938F939F93AF937B
:10053000BF93EF93FF9389E491E00E946301FF91E1
:10054000EF91BF91AF919F918F917F916F915F914B
:100550004F913F912F910F900FBE0F901F901895C4
:100560001F920F920FB60F9211242F938F939F9388
:10057000EF93FF93E0915901F0915A018081E0914E
:100580005F01F091600182FD12C090818091620153
:100590008F5F8F7320916301821751F0E0916201A8
:1005A000F0E0E75BFE4F958F8093620101C0808190
:1005B000FF91EF919F918F912F910F900FBE0F9010
:1005C0001F9018951F920F920FB60F9211242F9320
:1005D0003F938F939F93AF93BF9380913D019091F1
:1005E0003E01A0913F01B091400130913C0123E0D8
:1005F000230F2D3720F40196A11DB11D05C026E85B
:10060000230F0296A11DB11D20933C0180933D0153
:1006100090933E01A0933F01B09340018091380137
:1006200090913901A0913A01B0913B010196A11D31
:10063000B11D8093380190933901A0933A01B09392
:100640003B01BF91AF919F918F913F912F910F905F
:100650000FBE0F901F901895E9E4F1E0138212820B
:1006600088EE93E0A0E0B0E084839583A683B7830F
:1006700084E091E09183808385EC90E09587848786
:1006800084EC90E09787868780EC90E0918B808B5C
:1006900081EC90E0938B828B82EC90E0958B848B45
:1006A00086EC90E0978B868B118E128E138E148EB3
:1006B000E6EEF1E016821782108611861286138606
:1006C0001486158616861786108A118A128A138A4E
:1006D000148A158A0895789484B5826084BD84B59F
:1006E000816084BD85B5826085BD85B5816085BD2D
:1006F00080916E00816080936E00109281008091E5
:10070000810082608093810080918100816080936C
:100710008100809180008160809380008091B10091
:1007200084608093B1008091B00081608093B000BC
:1007300080917A00846080937A0080917A00826050
:1007400080937A0080917A00816080937A00809112
:100750007A00806880937A001092C10010922A0279
:1007600010922B0210922C0210922D021092E8018E
:100770001092E9011092EA011092EB0168EB7BE024
:1007800080E090E00E94030289E491E090932902C6
:1007900080932802E0915901F0915A0182E0808310
:1007A000E0915501F09156011082E0915701F091CE
:1007B000580180E1808310926101E0915D01F09128
:1007C0005E0186E08083E0915B01F0915C018081B5
:1007D00080618083E0915B01F0915C0180818860A1
:1007E0008083E0915B01F0915C018081806880836F
:1007F000E0915B01F0915C0180818F7D80830E949C
:10080000F7016093E8017093E9018093EA01909306
:10081000EB0162E171E080912802909129020E942F
:100820002C026AE070E080E090E00E94030281E028
:100830008093FC018FE00E94CE0080E10E94CE00F8
:1008400081E10E94CE0082E10E94CE008FE00E94F2
:10085000870080E10E94870081E10E94870082E199
:100860000E94870084EF882E99249394A12CB12CA8
:100870000E94F701672B682B692B41F40E94F70156
:10088000623071058105910508F40BC10E94F701E2
:10089000609345017093460180934701909348010E
:1008A000C0904101D0904201E0904301F09044019A
:1008B0006C157D058E059F0540F460934101709392
:1008C00042018093430190934401C0904101D09034
:1008D0004201E0904301F09044019B01AC012C19CE
:1008E0003D094E095F0969017A013AEFC316D10447
:1008F000E104F10408F4D5C0609341017093420112
:1009000080934301909344018092F4019092F50109
:10091000A092F601B092F7011092F8011092F9013D
:100920001092FA011092FB018091EC019091ED017F
:10093000A091EE01B091EF018093F0019093F1014D
:10094000A093F201B093F3010E94F7016093EC01D0
:100950007093ED018093EE019093EF010E94F701F7
:100960006093E8017093E9018093EA019093EB01B1
:100970000E94F7016B017C0164E271E08091280222
:10098000909129020E942C022AE041E050E060E0B0
:1009900070E080912802909129020E9441026BE24E
:1009A00071E080912802909129020E942C022AE095
:1009B000B701A60180912802909129020E9441026C
:1009C0006DE271E080912802909129020E942C0230
:1009D0008091EC019091ED01A091EE01B091EF01B9
:1009E000B701A601481B590B6A0B7B0B2AE08091CB
:1009F0002802909129020E9441026DE271E08091EB
:100A00002802909129020E942C024091EC01509101
:100A1000ED016091EE017091EF018091F0019091F4
:100A2000F101A091F201B091F301481B590B6A0B3F
:100A30007B0B2AE080912802909129020E944102BA
:100A40006FE271E080912802909129020E942C02AD
:100A50000E94F701AB01BC012AE08091280290912D
:100A600029020E944102E0902802F090290261E3ED
:100A700071E0C7010E942C0261E271E0C7010E948F
:100A80002C0265E070E080E090E00E9403020E948A
:100A9000F7016093EC017093ED018093EE01909368
:100AA000EF010E94ED01E4CEA1E21A2EAA1BBB1BAE
:100AB000FD010DC0AA1FBB1FEE1FFF1FA217B3072A
:100AC000E407F50720F0A21BB30BE40BF50B661F40
:100AD000771F881F991F1A9469F760957095809504
:100AE00090959B01AC01BD01CF010895EE0FFF1F52
:100AF0000590F491E02D099481E090E0F8940C9435
:060B00008105F894FFCF0F
:100B0600000000008401ED001C01CB014D012B010A
:100B16003F01564D4450565F317C315F564D44502F
:100B2600560D0A00564D4450455F003A323A007C55
:080B3600005F564D44504500DC
:00000001FF
