:100000000C9462000C948A000C948A000C948A0070
:100010000C948A000C948A000C948A000C948A0038
:100020000C948A000C948A000C948A000C948A0028
:100030000C948A000C948A000C948A000C948A0018
:100040000C9420040C948A000C94EE030C94C803C6
:100050000C948A000C948A000C948A000C948A00F8
:100060000C948A000C948A000000000023002600F3
:10007000290000000000240027002A0000000000E2
:10008000250028002B0004040404040404040202D4
:100090000202020203030303030301020408102007
:1000A0004080010204081020010204081020000012
:1000B0000008000201000003040700000000000027
:1000C00000006A0411241FBECFEFD8E0DEBFCDBF11
:1000D00011E0A0E0B1E0ECECFBE102C005900D9274
:1000E000AE35B107D9F722E0AEE5B1E001C01D920F
:1000F000A43CB207E1F710E0C2E6D0E004C02197CB
:10010000FE010E94D90DC136D107C9F70E94E9044A
:100110000C94E40D0C940000E3E7F1E0A089B189B0
:1001200082E08C93A485B5851C92A685B78583E271
:100130008C93108EA489B58986E08C93A289B389AB
:100140008C9180618C93A289B3898C9188608C9307
:10015000A289B3898C9180688C930288F389E02D01
:1001600080818F7D8083089590E0FC01E656FF4FEB
:100170002491FC01EA57FF4F8491882399F090E085
:10018000880F991FFC01EE58FF4FA591B491FC0117
:10019000E458FF4F859194918FB7F894EC91E22B3E
:1001A000EC938FBF0895DC01ED91FC910190F081FB
:1001B000E02D0994CF92DF92EF92FF920F931F935D
:1001C000CF93DF936C017A018B01C0E0D0E0CE15B4
:1001D000DF0589F0D8016D918D01D601ED91FC917B
:1001E0000190F081E02DC6010995892B11F47E0163
:1001F00002C02196ECCFC701DF91CF911F910F91E3
:10020000FF90EF90DF90CF900895089580E090E008
:100210000895FC01538D448D252F30E0842F90E00C
:10022000821B930B541710F0CF96089501970895F1
:10023000FC01918D828D981761F0828DDF01A80FEE
:10024000B11D5D968C91928D9F5F9F73928F90E010
:1002500008958FEF9FEF0895FC01918D828D98177F
:1002600031F0828DE80FF11D858D90E008958FEFBC
:100270009FEF0895FC01918D228D892F90E0805C85
:100280009F4F821B91098F739927089583E791E00F
:100290000E943A0121E0892B09F420E0822F089581
:1002A000FC01848DDF01A80FB11DA35ABF4F2C9113
:1002B000848D90E001968F739927848FA689B789E2
:1002C0002C93A089B1898C9180648C93938D848DBB
:1002D000981306C00288F389E02D80818F7D80838A
:1002E0000895EF92FF920F931F93CF93DF93EC014A
:1002F00081E0888F9B8D8C8D981305C0E889F989E2
:10030000808185FD24C0F62E0B8D10E00F5F1F4FFE
:100310000F731127E02E8C8DE8120CC00FB607FC6E
:10032000FACFE889F989808185FFF5CFCE010E9457
:100330005001F1CF8B8DFE01E80FF11DE35AFF4F05
:10034000F0820B8FEA89FB898081806207C0EE8989
:10035000FF896083E889F98980818064808381E0F6
:1003600090E0DF91CF911F910F91FF90EF90089552
:10037000CF93DF93EC01888D8823C9F0EA89FB894C
:10038000808185FD05C0A889B9898C9186FD0FC043
:100390000FB607FCF5CF808185FFF2CFA889B98918
:1003A0008C9185FFEDCFCE010E945001E7CFDF9108
:1003B000CF91089580E090E0892B29F00E944601BA
:1003C00081110C9400000895833081F028F481306D
:1003D00099F08230A1F008958730A9F08830B9F003
:1003E0008430D1F4809180008F7D03C080918000A3
:1003F0008F7780938000089584B58F7702C084B58D
:100400008F7D84BD08958091B0008F7703C0809167
:10041000B0008F7D8093B0000895CF93DF93282F95
:1004200030E0F901E255FF4F8491F901E656FF4FA4
:10043000D491F901EA57FF4FC491CC2399F081116F
:100440000E94E401EC2FF0E0EE0FFF1FE458FF4F95
:10045000A591B4918FB7F8949C91ED2FE095E92385
:10046000EC938FBFDF91CF9108958E3008F08E50BE
:100470008770806480937C0080917A008064809390
:100480007A0080917A0086FDFCCF809178002091DF
:10049000790090E0922B08953FB7F8948091630122
:1004A00090916401A0916501B091660126B5A89B69
:1004B00005C02F3F19F00196A11DB11D3FBFBA2FF6
:1004C000A92F982F8827820F911DA11DB11DBC0156
:1004D000CD0142E0660F771F881F991F4A95D1F71B
:1004E00008952FB7F89460915F0170916001809139
:1004F0006101909162012FBF08958F929F92AF92F8
:10050000BF92CF92DF92EF92FF926B017C010E942B
:1005100071024B015C01C60ED71EE81EF91E0E9437
:100520007102681579058A059B0528F0C616D7065D
:10053000E806F906A0F7FF90EF90DF90CF90BF900C
:10054000AF909F908F9008954F925F926F927F929D
:100550008F929F92AF92BF92CF92DF92EF92FF92D3
:100560006B017C018EE480937C000E944C024B0165
:100570005C0192E0492E512C612C712C0E944C029E
:10058000DC01CB0188199909AA09BB09883E93406F
:10059000A105B10598F328EE820E23E0921EA11C5E
:1005A000B11C4A9445284628472829F0412C512C53
:1005B00032014394E3CF80917A00806480937A0083
:1005C00080917A0086FDFCCF80917800209179009F
:1005D00090E0922BBC01990F880B990B0E94820B23
:1005E0004B015C0120E030EC4FE754E4C701B60159
:1005F0000E94E10BA50194010E942E0DFF90EF9047
:10060000DF90CF90BF90AF909F908F907F906F9032
:100610005F904F9008950E94DF0D6115710579F08C
:10062000FB0101900020E9F73197AF01461B570B02
:10063000DC01ED91FC910280F381E02D099480E0D2
:1006400090E008954F925F926F927F92EF92FF92A7
:100650000F931F93CF93DF93CDB7DEB7A1970FB65C
:10066000F894DEBF0FBECDBF7C01FA01CB0119A209
:10067000223008F42AE08E010F5D1F4F422E512CCC
:10068000612C712CBF01A30192010E949F0CF90102
:10069000CA01015011096A3014F4605D01C0695C3F
:1006A000D8016C93232B242B252B61F7B801C701AC
:1006B0000E940D03A1960FB6F894DEBF0FBECDBF0A
:1006C000DF91CF911F910F91FF90EF907F906F90EE
:1006D0005F904F900895CF92DF92EF92FF920F9329
:1006E0001F93CF93DF9300D0CDB7DEB72091C00228
:1006F0003091C102CE0101962115310519F4845CB7
:10070000924018C0AC01421B530BE091C202F09121
:10071000C30280E090E0309759F09C012E5F3F4F7C
:1007200080819181820F931F0280F381E02DF3CFAE
:10073000840F951F9A838983C980DA8000915202C1
:10074000109153020D2C000CEE08FF08F7FE0DC0AF
:100750006DE2C8010E94D30044275527BA014C1905
:100760005D096E097F092AE003C02AE0B701A601EE
:10077000C8010E9422030F900F90DF91CF911F912B
:100780000F91FF90EF90DF90CF9008950C940D03A0
:100790001F920F920FB60F9211242F933F934F93F6
:1007A0005F936F937F938F939F93AF93BF93EF93D9
:1007B000FF9383E791E00E945001FF91EF91BF9179
:1007C000AF919F918F917F916F915F914F913F91E9
:1007D0002F910F900FBE0F901F9018951F920F92A0
:1007E0000FB60F9211242F938F939F93EF93FF9344
:1007F000E0918301F09184018081E0918901F09181
:100800008A0182FD12C0908180918C018F5F8F736D
:1008100020918D01821751F0E0918C01F0E0ED58AC
:10082000FE4F958F80938C0101C08081FF91EF91E5
:100830009F918F912F910F900FBE0F901F90189541
:100840001F920F920FB60F9211242F933F938F9305
:100850009F93AF93BF9380915F0190916001A091AE
:100860006101B091620130915E0123E0230F2D37C9
:1008700020F40196A11DB11D05C026E8230F0296A4
:10088000A11DB11D20935E0180935F0190936001D3
:10089000A0936101B0936201809163019091640122
:1008A000A0916501B09166010196A11DB11D8093D3
:1008B000630190936401A0936501B0936601BF91B9
:1008C000AF919F918F913F912F910F900FBE0F90FD
:1008D0001F901895109276011092750188EE93E0A2
:1008E000A0E0B0E08093770190937801A093790124
:1008F000B0937A018EE091E090937401809373013C
:1009000085EC90E09093800180937F0184EC90E0EF
:10091000909382018093810180EC90E09093840118
:100920008093830181EC90E0909386018093850110
:1009300082EC90E0909388018093870186EC90E0B0
:1009400090938A018093890110928C0110928D01FD
:1009500010928E0110928F011092160210921702BF
:10096000109218021092190210921A0210921B0291
:1009700010921C0210921D0210921E0210921F0271
:100980001092200210922102109222021092230251
:100990001092240210922502E8E5F2E08DEC9CEC26
:1009A000ACE8BFEB4DEC5CEC6CE87FE380839183BB
:1009B000A283B38384839583A683B78340875187BB
:1009C0006287738714863D9622E0E03CF20771F758
:1009D0000895CF93DF9300D000D0CDB7DEB77894E1
:1009E00084B5826084BD84B5816084BD85B5826034
:1009F00085BD85B5816085BD80916E0081608093E5
:100A00006E0010928100809181008260809381004D
:100A1000809181008160809381008091800081605D
:100A2000809380008091B10084608093B1008091B8
:100A3000B00081608093B00080917A0084608093E0
:100A40007A0080917A00826080937A0080917A00A7
:100A5000816080937A0080917A00806880937A0028
:100A60001092C10010925402109255021092560238
:100A70001092570210921202109213021092140256
:100A80001092150268EB7BE080E090E00E947D020E
:100A900083E791E090935302809352020E948C006E
:100AA0000E947102609312027093130280931402E9
:100AB000909315026CE171E0809152029091530283
:100AC0000E94C6036AE070E080E090E00E947D0230
:100AD00081E0809326020E947102C0901202D090A1
:100AE0001302E0901402F09015029B01AC012C1946
:100AF0003D094E095F0969017A0134E6C316D10444
:100B0000E104F10408F484C10E94710260931202AE
:100B10007093130280931402909315026EE271E0B9
:100B200080915202909153020E94C60365E371E0E6
:100B300080915202909153020E94C60365E371E0D6
:100B400080915202909153020E94C60365E371E0C6
:100B500080915202909153020E94C6030E946B033F
:100B600065E371E080915202909153020E94C603A6
:100B700067E371E080915202909153020E94C60394
:100B80006AE070E080E090E00E947D020E948C00AC
:100B900010920101109200018FE090E09093030108
:100BA0008093020180E190E090930501809304011D
:100BB00081E190E0909307018093060182E190E04B
:100BC00090930901809308018FE00E94B400809106
:100BD00004010E94B400809106010E94B40080913B
:100BE00008010E94B400809102010E940D028091D0
:100BF00004010E940D02809106010E940D02809165
:100C000008010E940D02109258021092590210928F
:100C10005A0210925B0210925C0210925D021092D6
:100C20005E0210925F0288EA96ECABE8BFE3809325
:100C3000600290936102A0936202B09363021092EB
:100C400064022DECC22E2CECD22E20EAE22E21E4FE
:100C5000F22EC0926502D0926602E0926702F09294
:100C6000680240E050E067EC72E440936902509300
:100C70006A0260936B0270936C0280936D02909392
:100C80006E02A0936F02B09370021092710240E066
:100C900050E86BE774E440937202509373026093E0
:100CA00074027093750240E050E86BEE73E4409379
:100CB0007602509377026093780270937902809362
:100CC0007A0290937B02A0937C02B0937D021092F3
:100CD0007E0240E050E869E774E440937F0250935D
:100CE0008002609381027093820240E050E86AEED5
:100CF00073E440938302509384026093850270935F
:100D000086028093870290938802A0938902B09311
:100D10008A0221E020938B02812C30EE932E38E062
:100D2000A32E35E4B32E80928C0290928D02A09275
:100D30008E02B0928F024093900250939102609382
:100D40009202709393028093940290939502A093E1
:100D50009602B09397021092980280929902909214
:100D60009A02A0929B02B0929C0240939D025093E3
:100D70009E0260939F027093A0028093A1029093C1
:100D8000A202A093A302B093A4021092A502C09263
:100D9000A602D092A702E092A802F092A9024DEC1E
:100DA0005CEC68EC72E44093AA025093AB0260934F
:100DB000AC027093AD028093AE029093AF02A09309
:100DC000B002B093B1021092B2024AE959E961EA65
:100DD00071E44093B3025093B4026093B5027093F0
:100DE000B6024AE959E968EC72E44093B7025093BD
:100DF000B8026093B9027093BA028093BB029093D9
:100E0000BC02A093BD02B093BE021092BF0256C1B5
:100E10000E9471024B015C01DC01CB018C199D0920
:100E2000AE09BF096C017D0194E6C90ED11CE11C1D
:100E3000F11C0E947102681579058A059B0508F46A
:100E400063CEC616D706E806F90698F75DCEA1E090
:100E5000CA16D104E104F10409F475C1F601E255A2
:100E6000FF4F8491F601E656FF4F9490F601EA5742
:100E7000FF4FB490BB2009F466C181110E94E401C8
:100E8000EB2DF0E0EE0FFF1FE859FF4FA591B49155
:100E9000EC919E2209F457C181E0012E01C0880F18
:100EA0000A94EAF7A82A1F5F183009F44EC1BDE082
:100EB000CB16D104E104F10409F447C161E070E00C
:100EC00080E090E00E947D022FEFC21AD20AE20A6F
:100ED000F20A3EE0C316D104E104F10409F0B7CFF1
:100EE00061E070E080E090E00E947D0265E371E0E7
:100EF00080915202909153020E94C60310E0812F0C
:100F00000E943502A0905202B09053026C01990FDA
:100F1000EE08FF08F7FE2FC16DE2C5010E94D30065
:100F200044275527BA014C195D096E097F092AE04B
:100F3000C5010E94220369E471E080915202909100
:100F400053020E94C6031F5F1630C9F665E371E0C5
:100F500080915202909153020E94C6030E946B033B
:100F600065E371E080915202909153020E94C603A2
:100F700067E371E080915202909153020E94C60390
:100F800061E070E080E090E00E947D020E947102CA
:100F9000672B682B692B09F09EC20E947102623098
:100FA00071058105910508F096C28EE00E94350218
:100FB0006C01909164028090600290906102A09018
:100FC0006202B09063020D2C000CEE08FF0820E0D6
:100FD00030E0A901992309F43FC160915C0270914E
:100FE0005D0280915E0290915F020E947B0B8111F5
:100FF000C6C0C501B4010E94A4029B01AC0160916E
:101000006002709161028091620290916302298373
:101010003A834B835C830E94A4024B015C01C701AD
:10102000B6010E94820B29813A814B815C810E942A
:10103000E10B20E030E040E85AE30E94E10B6B0155
:101040007C0120E030E040E85AE3C501B4010E9491
:10105000E10B20E030E040E05FE30E94E10B9B0108
:10106000AC01C701B6010E94C20C6B017C0160910A
:1010700060027091610280916202909163020E940D
:10108000A4029B01AC01C701B6010E94C10C6B0117
:101090007C019B01AC010E94D40D882309F482C11C
:1010A00062E571E083E791E00E940D036DE371E07A
:1010B00083E791E00E940D030E94DA010E94710211
:1010C000C0906F01D0907001E0907101F0907201BA
:1010D000DC01CB018C199D09AE09BF098639910548
:1010E000A105B10508F452CF0E94710260936F010F
:1010F00070937001809371019093720161E070E0D0
:1011000080E090E00E947D020E94710260931202D2
:101110007093130280931402909315026EE271E0B3
:1011200080915202909153020E94C60365E371E0E0
:1011300080915202909153020E94C60310E0C12C8C
:10114000D12C7601A12C80E0A8CE4A2D50E060E0A1
:1011500070E02AE080915202909153020E94220393
:1011600069E471E080915202909153020E94C6039B
:1011700010E0A12CA3CE2AE0B701A601D9CEC5016B
:10118000B4010E94A4029B01AC01609160027091C5
:101190006102809162029091630229833A834B83BA
:1011A0005C830E94A4024B015C01C701B6010E944E
:1011B000820B29813A814B815C810E94E10B20E006
:1011C00030E040E85AE30E94E10B6B017C0120E033
:1011D00030E040E85AE3C501B4010E94E10B20E091
:1011E00030E040E05FE30E94E10B9B01AC01C701EE
:1011F000B6010E94C20C4B015C01609160027091CB
:10120000610280916202909163020E94A4029B019C
:10121000AC01C0905C02D0905D02E0905E02F09064
:101220005F02C501B4010E94C10C4B015C01209119
:1012300058023091590240915A0250915B02C70105
:10124000B6010E94C20C9B01AC01C501B4010E9411
:10125000E10BA7019601A3C060915C0270915D0251
:1012600080915E0290915F020E947B0B81113DC0D4
:10127000C501B4010E94A4029B01AC01609160020F
:1012800070916102809162029091630229833A8396
:101290004B835C830E94A4024B015C01C701B60131
:1012A0000E94820B29813A814B815C810E94E10B73
:1012B00020E030E040E85AE30E94E10B6B017C0142
:1012C00020E030E040E85AE3C501B4010E94E10BA0
:1012D00020E030E040E05FE30E94E10B9B01AC01C5
:1012E000C701B6010E94C20CD2CEC501B4010E9452
:1012F000A4029B01AC016091600270916102809137
:1013000062029091630229833A834B835C830E943B
:10131000A4022B013C0180905C0290905D02A090A1
:101320005E02B0905F02C701B6010E94820B298164
:101330003A814B815C810E94E10B20E030E040E883
:101340005AE30E94E10B6B017C0120E030E040E8B1
:101350005AE3C301B2010E94E10B20E030E040E01B
:101360005FE30E94E10B9B01AC01C701B6010E9443
:10137000C20C6B017C0120915802309159024091BE
:101380005A0250915B02C501B4010E94C20C9B013C
:10139000AC01C701B6010E94E10BA50194010E94B6
:1013A0002E0D75CE46015701E894B7F82FEF3FEFA9
:1013B0004FE75FE7C501B4010E94D40D81110DC054
:1013C0002FEF3FEF4FE75FE7C501B4010E947B0BB2
:1013D00018161CF466E571E065CE2FEF3FEF4FE77E
:1013E0005FE4C701B6010E94CF0D18161CF46AE530
:1013F00071E058CE2FEF3FEF4FE75FECC701B6012A
:101400000E947B0B87FDF3CF20E030E0A901C701EC
:10141000B6010E947B0B87FF09C06DE283E791E074
:101420000E94D300F7FAF094F7F8F0942AE037ED31
:1014300043EA5BE3C701B6010E94C20C4B015C01A9
:101440000E94A00D6B017C010E94800B9B01AC01EE
:10145000C501B4010E94C10C4B015C012AE0B70137
:10146000A60183E791E00E9422036EE283E791E008
:101470000E94D30020E030E040E251E4C501B40115
:101480000E94E10B4B015C010E94A00D6B01E12C5D
:10149000F12C2AE0B701A60183E791E00E94220324
:1014A000C701B6010E94800B9B01AC01C501B401CC
:1014B0000E94C10C20E030E040E251E40E94E10BC8
:1014C0000E94A00DAB0160E070E02AE083E791E0AC
:1014D0000E942203EBCD0E94710260936B01709316
:1014E0006C0180936D0190936E01C0906701D09064
:1014F0006801E0906901F0906A016C157D058E0528
:101500009F0540F4609367017093680180936901BF
:1015100090936A01C0906701D0906801E0906901E2
:10152000F0906A019B01AC012C193D094E095F093D
:1015300069017A013AEFC316D104E104F10408F419
:1015400034CD609367017093680180936901909333
:101550006A0184EF91E0A0E0B0E080931E029093D6
:101560001F02A0932002B093210210922202109237
:10157000230210922402109225028091160290916B
:101580001702A0911802B091190280931A02909349
:101590001B02A0931C02B0931D020E947102609373
:1015A00016027093170280931802909319020E94FA
:1015B000710260931202709313028093140290934D
:1015C00015020E9471026B017C0160E471E0809160
:1015D0005202909153020E94C6032AE041E050E07B
:1015E00060E070E080915202909153020E942203C9
:1015F00067E471E080915202909153020E94C60309
:101600002AE0B701A60180915202909153020E94F4
:10161000220369E471E080915202909153020E948A
:10162000C6038091160290911702A0911802B09102
:101630001902B701A601481B590B6A0B7B0B2AE064
:1016400080915202909153020E94220369E471E05A
:1016500080915202909153020E94C603409116025B
:1016600050911702609118027091190280911A022C
:1016700090911B02A0911C02B0911D02481B590BB6
:101680006A0B7B0B2AE080915202909153020E94D8
:10169000220365E371E080915202909153020E940F
:1016A000C6030E947102AB01BC012AE08091520284
:1016B000909153020E942203E0905202F090530254
:1016C0006BE471E0C7010E940D036DE371E0C70197
:1016D0000E940D0365E070E080E090E00E947D02D2
:1016E0000E94710260931602709317028093180291
:1016F000909319025ACC0E94BD0B08F481E0089522
:10170000E89409C097FB3EF490958095709561959B
:101710007F4F8F4F9F4F9923A9F0F92F96E9BB2751
:101720009395F695879577956795B795F111F8CFCD
:10173000FAF4BB0F11F460FF1BC06F5F7F4F8F4F38
:101740009F4F16C0882311F096E911C0772321F02E
:101750009EE8872F762F05C0662371F096E8862FC6
:1017600070E060E02AF09A95660F771F881FDAF71D
:10177000880F9695879597F90895990F0008550F4A
:10178000AA0BE0E8FEEF16161706E807F907C0F007
:1017900012161306E407F50798F0621B730B840B0F
:1017A000950B39F40A2661F0232B242B252B21F4E9
:1017B00008950A2609F4A140A6958FEF811D811D89
:1017C00008950E94F40B0C94650C0E94570C38F09D
:1017D0000E945E0C20F0952311F00C944E0C0C949A
:1017E000540C11240C94990C0E94760C70F3959F64
:1017F000C1F3950F50E0551F629FF001729FBB2708
:10180000F00DB11D639FAA27F00DB11DAA1F649FA3
:101810006627B00DA11D661F829F2227B00DA11D56
:10182000621F739FB00DA11D621F839FA00D611DDC
:10183000221F749F3327A00D611D231F849F600DFD
:10184000211D822F762F6A2F11249F5750409AF026
:10185000F1F088234AF0EE0FFF1FBB1F661F771FB2
:10186000881F91505040A9F79E3F510580F00C947D
:101870004E0C0C94990C5F3FE4F3983ED4F386959C
:1018800077956795B795F795E7959F5FC1F7FE2B1D
:10189000880F911D9695879597F9089597F99F67F9
:1018A00080E870E060E008959FEF80EC08950024E8
:1018B0000A941616170618060906089500240A94B5
:1018C00012161306140605060895092E0394000C3B
:1018D00011F4882352F0BB0F40F4BF2B11F460FFCA
:1018E00004C06F5F7F4F8F4F9F4F089557FD9058F3
:1018F000440F551F59F05F3F71F04795880F97FBD4
:10190000991F61F09F3F79F087950895121613068D
:101910001406551FF2CF4695F1DF08C016161706BC
:101920001806991FF1CF86957105610508940895F1
:10193000E894BB2766277727CB0197F90895A1E2A2
:101940001A2EAA1BBB1BFD010DC0AA1FBB1FEE1F39
:10195000FF1FA217B307E407F50720F0A21BB30B84
:10196000E40BF50B661F771F881F991F1A9469F700
:1019700060957095809590959B01AC01BD01CF015C
:1019800008955058BB27AA270E94D90C0C94650CC7
:101990000E94570C38F00E945E0C20F039F49F3FF3
:1019A00019F426F40C94540C0EF4E095E7FB0C9417
:1019B0004E0CE92F0E94760C58F3BA176207730792
:1019C0008407950720F079F4A6F50C94980C0EF492
:1019D000E0950B2EBA2FA02D0B01B90190010C013F
:1019E000CA01A0011124FF27591B99F0593F50F457
:1019F000503E68F11A16F040A22F232F342F4427AF
:101A0000585FF3CF469537952795A795F0405395A6
:101A1000C9F77EF41F16BA0B620B730B840BBAF076
:101A20009150A1F0FF0FBB1F661F771F881FC2F7E1
:101A30000EC0BA0F621F731F841F48F487957795F5
:101A40006795B795F7959E3F08F0B0CF9395880FAF
:101A500008F09927EE0F9795879508950E94420DFB
:101A60000C94650C0E945E0C58F00E94570C40F0DC
:101A700029F45F3F29F00C944E0C51110C94990CF1
:101A80000C94540C0E94760C68F39923B1F35523FF
:101A900091F3951B550BBB27AA2762177307840781
:101AA00038F09F5F5F4F220F331F441FAA1FA9F317
:101AB00035D00E2E3AF0E0E832D091505040E69505
:101AC000001CCAF72BD0FE2F29D0660F771F881F66
:101AD000BB1F261737074807AB07B0E809F0BB0B59
:101AE000802DBF01FF2793585F4F3AF09E3F51056D
:101AF00078F00C944E0C0C94990C5F3FE4F3983EF4
:101B0000D4F3869577956795B795F7959F5FC9F755
:101B1000880F911D9695879597F90895E1E0660FD6
:101B2000771F881FBB1F621773078407BA0720F04F
:101B3000621B730B840BBA0BEE1F88F7E0950895B8
:101B40000E947E0C88F09F5798F0B92F9927B751C3
:101B5000B0F0E1F0660F771F881F991F1AF0BA9551
:101B6000C9F714C0B13091F00E94980CB1E008950B
:101B70000C94980C672F782F8827B85F39F0B93FFD
:101B8000CCF3869577956795B395D9F73EF4909504
:101B90008095709561957F4F8F4F9F4F08950E945C
:101BA000BD0B08F48FEF08950E94BD0B880B990BB5
:101BB0000895EE0FFF1F0590F491E02D099481E048
:0C1BC00090E0F8940C94E40DF894FFCF32
:101BCC00FFFFFFFFFFFFFFFFFFFF000000007101A1
:101BDC00DA000901B8013A0118012C01564D4450A4
:101BEC00565F317C315F564D4450560D0A00564DB0
:101BFC004450525F007C005F564D4450520D0A0019
:101C0C00564D4450455F003A323A005F564D4450B1
:0E1C1C0045006E616E00696E66006F766600B0
:00000001FF
