:100000000C945D000C9485000C9485000C94850084
:100010000C9485000C9485000C9485000C9485004C
:100020000C9485000C9485000C9485000C9485003C
:100030000C9485000C9485000C9485000C9485002C
:100040000C94E2020C9485000C94B0020C948A0289
:100050000C9485000C9485000C9485000C9485000C
:100060000C9485000C9485000000000024002700FB
:100070002A0000000000250028002B0004040404CE
:100080000404040402020202020203030303030342
:10009000010204081020408001020408102001021F
:1000A00004081020000000080002010000030407FB
:1000B00000000000000000002C0311241FBECFEF41
:1000C000D8E0DEBFCDBF22E0A2E4B1E001C01D92C6
:1000D000A83BB207E1F711E0A0E0B1E0E4E1FEE007
:1000E00002C005900D92A234B107D9F710E0CDE51A
:1000F000D0E004C02197FE010E94FD06CC35D10757
:10010000C9F70E94AE030C9408070C94000090E01D
:10011000FC01EC55FF4F2491FC01E057FF4F349157
:10012000FC01E458FF4FE491EE23B9F1222339F1A9
:10013000233091F038F42130A9F0223001F584B554
:100140008F7D12C0273091F02830A1F02430B9F40F
:10015000809180008F7D03C0809180008F77809395
:1001600080000DC084B58F7784BD09C08091B00038
:100170008F7703C08091B0008F7D8093B000F0E056
:10018000EE0FFF1FEE58FF4FA591B4918FB7F89473
:10019000EC9130953E233C938FBF089590E0FC0195
:1001A000E057FF4F2491FC01E458FF4F84918823CE
:1001B00099F090E0880F991FFC01E859FF4FA59135
:1001C000B491FC01EE58FF4F859194918FB7F8944C
:1001D000EC91E22BEC938FBF0895CF92DF92EF92D8
:1001E000FF920F931F93CF93DF936C017A018B01E2
:1001F000C0E0D0E0CE15DF0589F0D8016D918D010A
:10020000D601ED91FC910190F081E02DC601099598
:10021000892B11F47E0102C02196ECCFC701DF913A
:10022000CF911F910F91FF90EF90DF90CF900895A5
:10023000089580E090E00895FC01538D448D252FB2
:1002400030E0842F90E0821B930B541710F0CF9670
:10025000089501970895FC01918D828D981761F0A2
:10026000828DDF01A80FB11D5D968C91928D9F5FED
:100270009F73928F90E008958FEF9FEF0895FC0198
:10028000918D828D981731F0828DE80FF11D858D4B
:1002900090E008958FEF9FEF0895FC01918D228DDE
:1002A000892F90E0805C9F4F821B91098F73992763
:1002B000089583E591E00E944D0121E0892B09F426
:1002C00020E0822F0895FC01848DDF01A80FB11D6D
:1002D000A35ABF4F2C91848D90E001968F7399277C
:1002E000848FA689B7892C93A089B1898C91806469
:1002F0008C93938D848D981306C00288F389E02D2A
:1003000080818F7D80830895EF92FF920F931F93DA
:10031000CF93DF93EC0181E0888F9B8D8C8D9813B8
:1003200005C0E889F989808185FD24C0F62E0B8DF2
:1003300010E00F5F1F4F0F731127E02E8C8DE81216
:100340000CC00FB607FCFACFE889F989808185FFD8
:10035000F5CFCE010E946301F1CF8B8DFE01E80F36
:10036000F11DE35AFF4FF0820B8FEA89FB898081F0
:10037000806207C0EE89FF896083E889F9898081FE
:100380008064808381E090E0DF91CF911F910F9195
:10039000FF90EF900895CF93DF93EC01888D882331
:1003A000C9F0EA89FB89808185FD05C0A889B989E2
:1003B0008C9186FD0FC00FB607FCF5CF808185FFBD
:1003C000F2CFA889B9898C9185FFEDCFCE010E942B
:1003D0006301E7CFDF91CF91089580E090E0892B12
:1003E00029F00E94590181110C94000008952FB743
:1003F000F894609147017091480180914901909172
:100400004A012FBF08958F929F92AF92BF92CF92D1
:10041000DF92EF92FF926B017C010E94F7014B018A
:100420005C01C60ED71EE81EF91E0E94F701681572
:1004300079058A059B0528F0C616D706E806F90651
:10044000A0F7FF90EF90DF90CF90BF90AF909F907C
:100450008F9008950E9403076115710579F0FB01E3
:1004600001900020E9F73197AF01461B570BDC01E3
:10047000ED91FC910280F381E02D099480E090E001
:1004800008954F925F926F927F92EF92FF920F9337
:100490001F93CF93DF93CDB7DEB7A1970FB6F89434
:1004A000DEBF0FBECDBF7C01FA01CB0119A2223005
:1004B00008F42AE08E010F5D1F4F422E512C612C53
:1004C000712CBF01A30192010E94DB06F901CA0150
:1004D000015011096A3014F4605D01C0695CD801F3
:1004E0006C93232B242B252B61F7B801C7010E94A5
:1004F0002C02A1960FB6F894DEBF0FBECDBFDF91E0
:10050000CF911F910F91FF90EF907F906F905F9030
:100510004F9008951F920F920FB60F9211242F93B0
:100520003F934F935F936F937F938F939F93AF937B
:10053000BF93EF93FF9383E591E00E946301FF91E6
:10054000EF91BF91AF919F918F917F916F915F914B
:100550004F913F912F910F900FBE0F901F901895C4
:100560001F920F920FB60F9211242F938F939F9388
:10057000EF93FF93E0916301F09164018081E0913A
:100580006901F0916A0182FD12C0908180916C0135
:100590008F5F8F7320916D01821751F0E0916C0194
:1005A000F0E0ED5AFE4F958F80936C0101C0808181
:1005B000FF91EF919F918F912F910F900FBE0F9010
:1005C0001F9018951F920F920FB60F9211242F9320
:1005D0003F938F939F93AF93BF93809147019091E7
:1005E0004801A0914901B0914A013091460123E0B0
:1005F000230F2D3720F40196A11DB11D05C026E85B
:10060000230F0296A11DB11D20934601809347013F
:1006100090934801A0934901B0934A01809142010F
:1006200090914301A0914401B09145010196A11D13
:10063000B11D8093420190934301A0934401B09374
:100640004501BF91AF919F918F913F912F910F9055
:100650000FBE0F901F9018951092560110925501E1
:1006600088EE93E0A0E0B0E08093570190935801AA
:10067000A0935901B0935A018EE091E090935401F8
:100680008093530185EC90E09093600180935F012B
:1006900084EC90E0909362018093610180EC90E0A3
:1006A000909364018093630181EC90E090936601E4
:1006B0008093650182EC90E09093680180936701DC
:1006C00086EC90E090936A018093690110926C012E
:1006D00010926D0110926E0110926F011092F6014E
:1006E0001092F7011092F8011092F9011092FA019C
:1006F0001092FB011092FC011092FD011092FE017C
:100700001092FF0110920002109201021092020258
:10071000109203021092040210920502E8E3F2E044
:100720008DEC9CECACE8BFEB40E050E060EA70E49C
:1007300080839183A283B38384839583A683B783C5
:1007400040875187628773871486158616861786B9
:10075000709622E0E83BF20759F70895789484B543
:10076000826084BD84B5816084BD85B5826085BDAD
:1007700085B5816085BD80916E00816080936E003B
:10078000109281008091810082608093810080912D
:1007900081008160809381008091800081608093DE
:1007A00080008091B10084608093B1008091B0009E
:1007B00081608093B00080917A00846080937A0099
:1007C00080917A00826080937A0080917A008160C3
:1007D00080937A0080917A00806880937A001092EA
:1007E000C10010923402109235021092360210921B
:1007F00037021092F2011092F3011092F40110925C
:10080000F50168EB7BE080E090E00E94030283E565
:1008100091E09093330280933202E0916301F09172
:10082000640182E08083E0915F01F09160011082B9
:10083000E0916101F091620180E1808310926B018F
:10084000E0916701F091680186E08083E0916501A5
:10085000F0916601808180618083E0916501F09173
:100860006601808188608083E0916501F091660176
:10087000808180688083E0916501F09166018081CC
:100880008F7D80830E94F7016093F2017093F301E2
:100890008093F4019093F5016CE171E08091320254
:1008A000909133020E942C026AE070E080E090E0B8
:1008B0000E94030281E0809306028EE090E0909314
:1008C0000101809300018FE090E0909303018093F9
:1008D000020180E190E0909305018093040181E1A1
:1008E00090E0909307018093060182E190E090935D
:1008F0000901809308018FE00E94CE0080910401DD
:100900000E94CE00809106010E94CE0080910801D5
:100910000E94CE00809102010E9487008091040114
:100920000E948700809106010E9487008091080143
:100930000E948700109238021092390210923A02F7
:1009400010923B0210923C0210923D0210923E0225
:1009500010923F0281E79DE3A2EAB0E48093400257
:1009600090934102A0934202B0934302109244023A
:10097000109245021092460210924702812C912C4F
:1009800020EAA22E21E4B22E8092480290924902DF
:10099000A0924A02B0924B02C12CD12C38ECE32E2B
:1009A00032E4F32EC0924C02D0924D02E0924E02FD
:1009B000F0924F028093500290935102A093520202
:1009C000B0935302109254021092550210925602A4
:1009D0001092570200E010E02AE734E40093580236
:1009E0001093590220935A0230935B0240E050E08A
:1009F0006BEE73E440935C0250935D0260935E0281
:100A000070935F028093600290936102A0936202F0
:100A1000B093630210926402109265021092660213
:100A200010926702009368021093690220936A0291
:100A300030936B0240936C0250936D0260936E0290
:100A400070936F028093700290937102A093720270
:100A5000B093730203E313E323E530E400937402DD
:100A600010937502209376023093770200E010E82D
:100A700029E035E4009378021093790220937A02FA
:100A800030937B0240937C0250937D0260937E0200
:100A900070937F028093800290938102A0938202E0
:100AA000B093830210928402109285021092860203
:100AB00010928702009388021093890220938A0281
:100AC00030938B0240938C0250938D0260938E0280
:100AD00070938F028093900290939102A093920260
:100AE000B093930210929402109295021092960283
:100AF000109297028092980290929902A0929A0284
:100B0000B0929B02C0929C02D0929D02E0929E0203
:100B1000F0929F028093A0029093A102A093A20260
:100B2000B093A3021092A4021092A5021092A60202
:100B30001092A7028092A8029092A902A092AA0203
:100B4000B092AB02C092AC02D092AD02E092AE0283
:100B5000F092AF028093B0029093B102A093B202E0
:100B6000B093B3021092B4021092B5021092B60282
:100B70001092B70244EF842E99249394A12CB12CA7
:100B80000E94F701672B682B692B41F40E94F70143
:100B9000623071058105910508F40AC10E94F701D0
:100BA00060934F01709350018093510190935201D3
:100BB00000914B0110914C0120914D0130914E015B
:100BC000601771078207930740F460934B0170939D
:100BD0004C0180934D0190934E0100914B01109177
:100BE0004C0120914D0130914E016B017C01C01AE6
:100BF000D10AE20AF30A970186010A3F110521058D
:100C0000310508F4D5C060934B0170934C0180937B
:100C10004D0190934E018092FE019092FF01A092AF
:100C20000002B0920102109202021092030210928E
:100C30000402109205028091F6019091F701A091B3
:100C4000F801B091F9018093FA019093FB01A09310
:100C5000FC01B093FD010E94F7016093F6017093CF
:100C6000F7018093F8019093F9010E94F7016093D6
:100C7000F2017093F3018093F4019093F5010E94C7
:100C8000F7016B017C016EE271E08091320290917C
:100C900033020E942C022AE041E050E060E070E064
:100CA00080913202909133020E94410265E371E02B
:100CB00080913202909133020E942C022AE0B70107
:100CC000A60180913202909133020E94410267E3B3
:100CD00071E080913202909133020E942C02809147
:100CE000F6019091F701A091F801B091F901B701D7
:100CF000A601481B590B6A0B7B0B2AE0809132023C
:100D0000909133020E94410267E371E080913202C8
:100D1000909133020E942C024091F6015091F7010C
:100D20006091F8017091F9018091FA019091FB01B5
:100D3000A091FC01B091FD01481B590B6A0B7B0B84
:100D40002AE080913202909133020E94410269E3CD
:100D500071E080913202909133020E942C020E9435
:100D6000F701AB01BC012AE080913202909133027D
:100D70000E944102E0903202F09033026BE371E096
:100D8000C7010E942C026BE271E0C7010E942C0295
:100D900065E070E080E090E00E9403020E94F701AD
:100DA0006093F6017093F7018093F8019093F90135
:100DB0000E94ED01E5CEA1E21A2EAA1BBB1BFD018C
:100DC0000DC0AA1FBB1FEE1FFF1FA217B307E4072A
:100DD000F50720F0A21BB30BE40BF50B661F771F82
:100DE000881F991F1A9469F7609570958095909562
:100DF0009B01AC01BD01CF010895EE0FFF1F0590CF
:100E0000F491E02D099481E090E0F8940C940807A7
:040E1000F894FFCF84
:100E1400FFFFFFFFFFFFFFFFFFFF00000000840153
:100E2400ED001C01CB014D012B013F01564D4450F7
:100E3400565F317C315F564D4450560D0A00564D75
:100E44004450455F003A323A007C005F564D4450AE
:020E5400450057
:107E0000112484B714BE81FFF0D085E080938100F7
:107E100082E08093C00088E18093C10086E0809377
:107E2000C20080E18093C4008EE0C9D0259A86E02C
:107E300020E33CEF91E0309385002093840096BBD3
:107E4000B09BFECF1D9AA8958150A9F7CC24DD24C4
:107E500088248394B5E0AB2EA1E19A2EF3E0BF2EE7
:107E6000A2D0813461F49FD0082FAFD0023811F036
:107E7000013811F484E001C083E08DD089C08234E0
:107E800011F484E103C0853419F485E0A6D080C0E4
:107E9000853579F488D0E82EFF2485D0082F10E0AE
:107EA000102F00270E291F29000F111F8ED06801E7
:107EB0006FC0863521F484E090D080E0DECF843638
:107EC00009F040C070D06FD0082F6DD080E0C81688
:107ED00080E7D80618F4F601B7BEE895C0E0D1E017
:107EE00062D089930C17E1F7F0E0CF16F0E7DF06D8
:107EF00018F0F601B7BEE89568D007B600FCFDCFD4
:107F0000A601A0E0B1E02C9130E011968C91119780
:107F100090E0982F8827822B932B1296FA010C0160
:107F200087BEE89511244E5F5F4FF1E0A038BF0790
:107F300051F7F601A7BEE89507B600FCFDCF97BE46
:107F4000E89526C08437B1F42ED02DD0F82E2BD052
:107F50003CD0F601EF2C8F010F5F1F4F84911BD097
:107F6000EA94F801C1F70894C11CD11CFA94CF0C13
:107F7000D11C0EC0853739F428D08EE10CD085E9AC
:107F80000AD08FE07ACF813511F488E018D01DD067
:107F900080E101D065CF982F8091C00085FFFCCF94
:107FA0009093C60008958091C00087FFFCCF809118
:107FB000C00084FD01C0A8958091C6000895E0E648
:107FC000F0E098E1908380830895EDDF803219F02E
:107FD00088E0F5DFFFCF84E1DECF1F93182FE3DFCA
:107FE0001150E9F7F2DF1F91089580E0E8DFEE27F6
:047FF000FF270994CA
:027FFE00040479
:0400000300007E007B
:00000001FF