:100000000C9469000C94DD020C94B6020C949100DF
:100010000C9491000C9491000C9491000C9491001C
:100020000C9491000C9491000C9491000C9491000C
:100030000C9491000C9491000C9491000C949100FC
:100040000C946C020C9491000C94E7010C94C10187
:100050000C9491000C9491000C9491000C949100DC
:100060000C9491000C94910042044F0459047004C4
:100070007A048C049B040000000023002600290061
:100080000000000800020100000304070000000057
:100090000000000000000000250028002B000000E8
:1000A0000000240027002A000404040404040404BB
:1000B0000202020202020303030303030102040813
:1000C00010204080010204081020010204081020C2
:1000D000500B11241FBECFEFD8E0DEBFCDBF11E023
:1000E000A0E0B1E0E8E5F8E102C005900D92A2358C
:1000F000B107D9F724E0A2E5B1E001C01D92AA3C06
:10010000B207E1F710E0C9E6D0E004C02197FE0194
:100110000E941F0CC836D107C9F70E94A6060C948E
:100120002A0C0C940000089580E090E00895FC01F2
:10013000538D448D252F30E0842F90E0821B930B4C
:10014000541710F0CF96089501970895FC01918DF2
:10015000828D981761F0828DDF01A80FB11D5D9629
:100160008C91928D9F5F9F73928F90E008958FEF97
:100170009FEF0895FC01918D828D981731F0828D4B
:10018000E80FF11D858D90E008958FEF9FEF0895A2
:10019000FC01918D228D892F90E0805C9F4F821B06
:1001A00091098F739927089589E891E00E94C8000A
:1001B00021E0892B09F420E0822F0895FC01848D31
:1001C000DF01A80FB11DA35ABF4F2C91848D90E081
:1001D00001968F739927848FA689B7892C93A0895C
:1001E000B1898C9180648C93938D848D981306C013
:1001F0000288F389E02D80818F7D80830895EF92BE
:10020000FF920F931F93CF93DF93EC0181E0888FD0
:100210009B8D8C8D981305C0E889F989808185FDB7
:1002200024C0F62E0B8D10E00F5F1F4F0F731127A8
:10023000E02E8C8DE8120CC00FB607FCFACFE889CF
:10024000F989808185FFF5CFCE010E94DE00F1CFD4
:100250008B8DFE01E80FF11DE35AFF4FF0820B8FEB
:10026000EA89FB898081806207C0EE89FF8960830B
:10027000E889F98980818064808381E090E0DF9162
:10028000CF911F910F91FF90EF900895CF93DF933F
:10029000EC01888D8823C9F0EA89FB89808185FD7E
:1002A00005C0A889B9898C9186FD0FC00FB607FCDF
:1002B000F5CF808185FFF2CFA889B9898C9185FF20
:1002C000EDCFCE010E94DE00E7CFDF91CF91089500
:1002D00080E090E0892B29F00E94D40081110C94D9
:1002E00000000895833081F028F4813099F0823045
:1002F000A1F008958730A9F08830B9F08430D1F4A6
:10030000809180008F7D03C0809180008F778093E3
:100310008000089584B58F7702C084B58F7D84BD39
:1003200008958091B0008F7703C08091B0008F7DD9
:100330008093B00008953FB7F89480915701909151
:100340005801A0915901B0915A0126B5A89B05C04A
:100350002F3F19F00196A11DB11D3FBFBA2FA92F44
:10036000982F8827820F911DA11DB11DBC01CD01C1
:1003700042E0660F771F881F991F4A95D1F70895AD
:1003800008951F920F920FB60F9211242F933F934F
:100390004F935F936F937F938F939F93AF93BF938D
:1003A000EF93FF9389E891E00E94DE00FF91EF91C7
:1003B000BF91AF919F918F917F916F915F914F917D
:1003C0003F912F910F900FBE0F901F9018951F9285
:1003D0000F920FB60F9211242F938F939F93EF9349
:1003E000FF93E0919901F0919A018081E0919F0142
:1003F000F091A00182FD12C090818091A2018F5FD7
:100400008F732091A301821751F0E091A201F0E0D7
:10041000E757FE4F958F8093A20101C08081FF9125
:10042000EF919F918F912F910F900FBE0F901F9082
:1004300018951F93CF93DF93282F30E0F901E058F0
:10044000FF4F8491F901E454FF4FD491F901E8552D
:10045000FF4FC491CC23C9F0162F81110E94720165
:10046000EC2FF0E0EE0FFF1FEC56FF4FA591B4917B
:100470008FB7F894111105C09C91ED2FE095E923F9
:1004800002C0EC91ED2BEC938FBFDF91CF911F91C8
:1004900008958E3008F08E508770806480937C00C1
:1004A00080917A00806480937A0080917A0086FD42
:1004B000FCCF809178002091790090E0922B0895F4
:1004C0002FB7F894609153017091540180915501B8
:1004D000909156012FBF08951F920F920FB60F9261
:1004E00011242F933F938F939F93AF93BF9380914A
:1004F000530190915401A0915501B0915601309152
:10050000520123E0230F2D3720F40196A11DB11DC8
:1005100005C026E8230F0296A11DB11D20935201AC
:100520008093530190935401A0935501B0935601C9
:100530008091570190915801A0915901B0915A01B1
:100540000196A11DB11D8093570190935801A0936E
:100550005901B0935A01BF91AF919F918F913F91F3
:100560002F910F900FBE0F901F9018951F920F9212
:100570000FB60F9211242F933F934F935F936F9376
:100580007F938F939F93AF93BF93EF93FF93E091EC
:100590000201F09103010995FF91EF91BF91AF9195
:1005A0009F918F917F916F915F914F913F912F918B
:1005B0000F900FBE0F901F9018951F920F920FB6BD
:1005C0000F9211242F933F934F935F936F937F93D9
:1005D0008F939F93AF93BF93EF93FF93E0910001AD
:1005E000F09101010995FF91EF91BF91AF919F911A
:1005F0008F917F916F915F914F913F912F910F90CC
:100600000FBE0F901F9018958F929F92AF92BF923E
:10061000CF92DF92EF92FF928EE480937C000E9453
:100620009B016B017C0192E0892E912CA12CB12CB5
:100630000E949B01DC01CB018C199D09AE09BF0909
:10064000883E9340A105B10598F328EEC20E23E041
:10065000D21EE11CF11C8A9489288A288B2829F053
:10066000812C912C54018394E3CF80917A00806493
:1006700080937A0080917A0086FDFCCF20917800EB
:100680008091790030E0382B032E000C440B550B81
:100690006CEB7BE081E190E00E94CF0BC901FF9001
:1006A000EF90DF90CF90BF90AF909F908F90089584
:1006B000CF92DF92EF92FF920F931F93CF93DF932E
:1006C0006C017A018B01C0E0D0E0CE15DF0589F026
:1006D000D8016D918D01D601ED91FC910190F081D1
:1006E000E02DC6010995892B11F47E0102C02196E7
:1006F000ECCFC701DF91CF911F910F91FF90EF9049
:10070000DF90CF9008950E94250CE9E8F1E0A089E0
:10071000B18982E08C93A485B5851C92A685B785A6
:1007200083E28C93108EA489B58986E08C93A2898C
:10073000B3898C9180618C93A289B3898C918860F4
:100740008C93A289B3898C9180688C930288F389F9
:10075000E02D80818F7D8083089590E0FC01E4543A
:10076000FF4F2491FC01E855FF4F8491882399F0B5
:1007700090E0880F991FFC01E256FF4FA591B491BC
:10078000FC01EC56FF4F859194918FB7F894EC9152
:10079000E22BEC938FBF08958F929F92AF92BF92FE
:1007A000CF92DF92EF92FF926B017C010E94600278
:1007B0004B015C01C60ED71EE81EF91E0E946002A6
:1007C000681579058A059B0528F0C616D706E80640
:1007D000F906A0F7FF90EF90DF90CF90BF90AF9019
:1007E0009F908F9008956115710579F0FB0101903C
:1007F0000020E9F73197AF01461B570BDC01ED9163
:10080000FC910280F381E02D099480E090E008954E
:100810002F923F924F925F926F927F928F929F9210
:10082000AF92BF92CF92DF92EF92FF920F931F93FE
:10083000CF93DF93CDB7DEB72C970FB6F894DEBF1A
:100840000FBECDBFECE6CE2EE2E0DE2E26E232E099
:100850003C872B8787E691E09A838983E12CF12CF2
:10086000FBE43F2EF7013197E730F10528F4EC5C0B
:10087000FF4F61E00C941F0C809104010E9449021B
:100880008C017BC0809105010E94190280910401B6
:100890000E9449028C0160E0809105016CC080914A
:1008A00006010E941902809104010E9449028C01F4
:1008B00013C0809105010E94190261E08091060138
:1008C0000E941902809104010E9449028C0160E09B
:1008D000809105010E94190260E0809106014BC0E1
:1008E000809107010E941902809104010E9449022F
:1008F0008C013EC0809105010E94190261E0809147
:1009000007010E941902809104010E9449028C0192
:1009100060E0809105012AC0809106010E941902C1
:1009200061E0809107010E941902809104010E94F8
:1009300049028C0118C0809105010E94190261E0F2
:10094000809106010E94190261E0809107010E94D6
:100950001902809104010E9449028C0160E080919B
:1009600005010E94190260E0809106010E941902AF
:1009700060E0809107010E941902EB85FC8580846C
:100980009184F5E08F0E911C880C991C3E9CC0014F
:100990003F9C900D1124880D991D9C012A5D3D4FAF
:1009A0004901F90180819181F60140815181628183
:1009B0007381481B590B610971094083518362831C
:1009C0007383EB85FC85E65BFF4F2081EB85FC851F
:1009D00084819581A681B781222309F44CC0892B9B
:1009E0008A2B8B2B11F50E9404035C010E940403E7
:1009F000792E0E9404037694769476947B821C82EE
:100A00002B813C81281B390BA09EC001A19E900D1B
:100A1000B09E900D1124892F992786958695820F77
:100A2000931FF4019183808376C00E9404035C01CC
:100A30000E940403292E0E940403EB85FC85448058
:100A40005580668077802694269426942D821E8277
:100A50002D813E81281B390BA09EA001A19E500D27
:100A6000B09E500D1124DA01AB2FBB27A695A69599
:100A7000A20FB31F3DC0892B8A2B8B2BD1F40E9470
:100A800004035C010E940403A09E9001A19E300D0E
:100A9000B09E300D1124232F332726952695969549
:100AA000969596959F831886AF80B8842A0D3B1D36
:100AB0002FC00E9404035C010E940403EB85FC85A7
:100AC0004480558066807780A09ED001A19EB00DA5
:100AD000B09EB00D1124AB2FBB27A695A695969579
:100AE0009695969599871A86A984BA84AA0DBB1DF6
:100AF00040815181628173819A01AB01240D351DC2
:100B0000461D571D0E94F10BA30192010E94CF0BBD
:100B1000F40131832083EB85FC8580859185AC01D0
:100B20004B5F5F4F440F551F3E9C90013F9C300D23
:100B30001124240F351FF901EA5DFD4F2081318119
:100B4000F60140815181628173814A015B01820E0D
:100B5000931EA11CB11C80829182A282B382019655
:100B60006EE170E00E940B0CEB85FC85918780871D
:100B7000C501B4012EE130E040E050E00E94CF0B0F
:100B8000E981FA8121933193FA83E983FBE4CF0E63
:100B9000D11C2B853C85255B3F4F3C872B87C701AC
:100BA00001967C0198E0E916F10409F05BCE2C96E1
:100BB0000FB6F894DEBF0FBECDBFDF91CF911F916E
:100BC0000F91FF90EF90DF90CF90BF90AF909F90EC
:100BD0008F907F906F905F904F903F902F900895EF
:100BE0004F925F926F927F92EF92FF920F931F93BB
:100BF000CF93DF93CDB7DEB7A1970FB6F894DEBFE2
:100C00000FBECDBF7C01FA01CB0119A2223008F43E
:100C10002AE08E010F5D1F4F422E512C612C712C4A
:100C2000BF01A30192010E94CF0BF901CA0101503B
:100C300011096A3014F4605D01C0695CD8016C93DD
:100C4000232B242B252B61F7B801C7010E94F30346
:100C5000A1960FB6F894DEBF0FBECDBFDF91CF9146
:100C60001F910F91FF90EF907F906F905F904F904A
:100C70000895CF92DF92EF92FF920F931F93CF933D
:100C8000DF93EC016A017B01E881F9810190F08139
:100C9000E02D6DE209958C0144275527BA014C19C6
:100CA0005D096E097F092AE0CE010E94F005800FE0
:100CB000911FDF91CF911F910F91FF90EF90DF90E7
:100CC000CF900895CF93DF9300D0CDB7DEB72091BA
:100CD000C6043091C704CE0101962115310519F4DF
:100CE0008A5C944018C0AC01421B530BE091C804CD
:100CF000F091C90480E090E0309759F09C012E5F9C
:100D00003F4F80819181820F931F0280F381E02DFC
:100D1000F3CF840F951F9A83898349815A818091EB
:100D2000C0049091C104052E000C660B770B77FF71
:100D300003C00E94390603C02AE00E94F0050F900C
:100D40000F90DF91CF9108950C94F303789484B5BC
:100D5000826084BD84B5816084BD85B5826085BDB7
:100D600085B5816085BD80916E00816080936E0045
:100D70001092810080918100826080938100809137
:100D800081008160809381008091800081608093E8
:100D900080008091B10084608093B1008091B000A8
:100DA00081608093B00080917A00846080937A00A3
:100DB00080917A00826080937A0080917A008160CD
:100DC00080937A0080917A00806880937A001092F4
:100DD000C1001092C2041092C3041092C404109275
:100DE000C504109280041092810410928204109223
:100DF000830468EB7BE080E090E00E94CC0389E80C
:100E000091E09093C1048093C0040E9485030E94E6
:100E100060026093800470938104809382049093B5
:100E200083046BE171E08091C0049091C1040E9441
:100E3000A4066AE070E080E090E00E94CC0381E0CC
:100E4000809394040E9460020091800410918104B8
:100E500020918204309183046B017C01C01AD10A75
:100E6000E20AF30A82E3C816D104E104F10408F4AB
:100E700097C00E9460026093800470938104809305
:100E80008204909383046DE271E08091C00490919C
:100E9000C1040E94A40664E371E08091C0049091B3
:100EA000C1040E94A40664E371E08091C0049091A3
:100EB000C1040E94A40664E371E08091C004909193
:100EC000C1040E94A4060E94620664E371E080915E
:100ED000C0049091C1040E94A40666E371E0809171
:100EE000C0049091C1040E94A4066AE070E080E012
:100EF00090E00E94CC030E94850381E0809304016E
:100F000080E18093050181E18093060182E1809375
:100F1000070183E18093080180E10E94AD03809185
:100F200006010E94AD03809107010E94AD038091EC
:100F300008010E94AD0360E0809105010E94190242
:100F400060E0809106010E94190260E08091070133
:100F50000E94190260E0809108010E94190210921B
:100F60002602109227021092280210922902109253
:100F70002A0210922B0210922C0210922D02109233
:100F8000700210926C0210926D0210926E0210921A
:100F90006F0210922F0210922E02E0E3F2E01FC0C7
:100FA0000E9460024B015C01DC01CB018C199D09A0
:100FB000AE09BF096C017D0192E3C90ED11CE11C91
:100FC000F11C0E946002681579058A059B0508F4EA
:100FD00050CFC616D706E806F90698F74ACF119201
:100FE0001192A2E0EC36FA07D1F784E89EE4A0E083
:100FF000B0E08093710290937202A0937302B09359
:1010000074028CEA94E8A1E0B0E0809375029093BA
:101010007602A0937702B09378021092BB021092EE
:10102000B7021092B8021092B9021092BA0210924E
:101030007A0210927902EBE7F2E011921192B2E09B
:10104000E73BFB07D1F780EB99E5AFE0B0E0809399
:10105000BC029093BD02A093BE02B093BF0288ED84
:101060009FE2A7E0B0E08093C0029093C102A093FA
:10107000C202B093C30210920603109202031092B0
:10108000030310920403109205031092C5021092FC
:10109000C402E6ECF2E01192119283E0E230F8072C
:1010A000D1F780E79AE3AFE0B0E080930703909335
:1010B0000803A0930903B0930A0388E098E2A7E02D
:1010C000B0E080930B0390930C03A0930D03B093B7
:1010D0000E0381E08093510310924D0310924E0352
:1010E00010924F03109250031092100310920F03AE
:1010F000E1E1F3E01192119293E0ED34F907D1F7B9
:1011000080EB9AE6A1E2B0E0809352039093530300
:10111000A0935403B093550388E098E2A7E0B0E0B1
:101120008093560390935703A0935803B0935903A9
:1011300010929C03109298031092990310929A03B4
:1011400010929B0310925B0310925A03ECE5F3E0BC
:1011500011921192A3E0E839FA07D1F780EB9AE6F1
:10116000A1E2B0E080939D0390939E03A0939F0320
:10117000B093A00388E098E2A7E0B0E08093A103D9
:101180009093A203A093A303B093A4031092E70348
:101190001092E3031092E4031092E5031092E60329
:1011A0001092A6031092A503E7EAF3E011921192C0
:1011B000B3E0E33EFB07D1F784E89EE4A0E0B0E0B3
:1011C0008093E8039093E903A093EA03B093EB03C1
:1011D00080E398E8A1E0B0E08093EC039093ED0306
:1011E000A093EE03B093EF031092320410922E04FA
:1011F00010922F0410923004109231041092F103D7
:101200001092F003E2EFF3E01192119284E0EE32DB
:10121000F807D1F788EE9EE4A0E0B0E080933304B5
:1012200090933404A0933504B09336048CEC97E883
:10123000A1E0B0E08093370490933804A093390480
:10124000B0933A0410927D041092790410927A04BB
:1012500010927B0410927C0410923C0410923B0488
:10126000EDE3F4E01192119294E0E937F907D1F738
:10127000CEE1D0E00E9408042197E1F794EF892E97
:1012800099249394A12CB12C0E94600200916301D7
:10129000109164012091650130916601DC01CB0160
:1012A000801B910BA20BB30B86399105A105B105EB
:1012B00008F4D9C00E9460026093630170936401D6
:1012C000809365019093660161E070E080E090E0BA
:1012D0000E94CC030E94600260938004709381049A
:1012E00080938204909383046DE271E08091C00446
:1012F0009091C1040E94A40664E371E08091C0044F
:101300009091C1040E94A406C12CD12C7601D0E09A
:1013100010E080E0012E01C0880F0A94EAF7D82B74
:101320001F5F183031F0BDE0CB16D104E104F104A9
:10133000A9F44D2F50E060E070E02AE08091C004F5
:101340009091C1040E94F00568E471E08091C004AE
:101350009091C1040E94A40610E0D0E061E070E02A
:1013600080E090E00E94CC038FEFC81AD80AE80A08
:10137000F80A9EE0C916D104E104F10431F1A1E0BC
:10138000CA16D104E104F10421F2F601E058FF4F3E
:101390008491F601E454FF4F0491F601E855FF4FA4
:1013A000C491CC2309F4B5CF81110E947201EC2FB6
:1013B000F0E0EE0FFF1FEA58FF4FA591B491EC91BA
:1013C0000E2309F4A6CF81E0A5CF61E070E080E0B4
:1013D00090E00E94CC0364E371E08091C00490919E
:1013E000C1040E94A406C0E08C2F0E944902AC01F7
:1013F0008091C0049091C104052E000C660B770B00
:1014000077FF03C00E94390603C02AE00E94F0055E
:1014100068E471E08091C0049091C1040E94A40628
:10142000CF5FC63009F764E371E08091C00490910A
:10143000C1040E94A4060E94620664E371E08091E8
:10144000C0049091C1040E94A40666E371E08091FB
:10145000C0049091C1040E94A40661E070E080E0A5
:1014600090E00E94CC030E946002672B682B692BDE
:1014700041F40E946002623071058105910508F413
:101480000AC10E94600260935F01709360018093C3
:1014900061019093620100915B0110915C012091C8
:1014A0005D0130915E01601771078207930740F478
:1014B00060935B0170935C0180935D0190935E018A
:1014C00000915B0110915C0120915D0130915E0102
:1014D0006B017C01C01AD10AE20AF30A9701860166
:1014E0000A3F11052105310508F4D5C060935B0161
:1014F00070935C0180935D0190935E0180928C04F7
:1015000090928D04A0928E04B0928F041092900459
:10151000109291041092920410929304809184048A
:1015200090918504A0918604B091870480938804EB
:1015300090938904A0938A04B0938B040E94600264
:101540006093840470938504809386049093870449
:101550000E946002609380047093810480938204EF
:10156000909383040E9460026B017C016FE371E041
:101570008091C0049091C1040E94A4062AE041E039
:1015800050E060E070E08091C0049091C1040E943E
:10159000F00566E471E08091C0049091C1040E945E
:1015A000A4062AE0B701A6018091C0049091C1046D
:1015B0000E94F00568E471E08091C0049091C1043C
:1015C0000E94A4068091840490918504A0918604D1
:1015D000B0918704B701A601481B590B6A0B7B0B1E
:1015E0002AE08091C0049091C1040E94F00568E453
:1015F00071E08091C0049091C1040E94A4064091C2
:1016000084045091850460918604709187048091D0
:10161000880490918904A0918A04B0918B04481B9E
:10162000590B6A0B7B0B2AE08091C0049091C10496
:101630000E94F00564E371E08091C0049091C104C0
:101640000E94A4060E946002AB01BC012AE08091C6
:10165000C0049091C1040E94F005C091C004D091D3
:10166000C1046AE471E0CE010E94F3036CE371E00F
:10167000CE010E94F30365E070E080E090E00E94FC
:10168000CC030E946002609384047093850480936D
:101690008604909387040E9408040E946801F4CD98
:1016A00010928C0110928B0188EE93E0A0E0B0E0E4
:1016B00080938D0190938E01A0938F01B093900140
:1016C0008DE091E090938A018093890185EC90E010
:1016D000909396018093950184EC90E0909398010B
:1016E0008093970180EC90E090939A018093990108
:1016F00081EC90E090939C0180939B0182EC90E0C0
:1017000090939E0180939D0186EC90E09093A001C0
:1017100080939F011092A2011092A3011092A40144
:101720001092A501E6E2F2E0108211821282138289
:10173000148215821682178211861086DF01AA5B39
:10174000BF4F1D921D921D921C92139714961C92CE
:10175000E55BFF4F84E0EE37F80731F71092840421
:1017600010928504109286041092870410928804C7
:101770001092890410928A0410928B0410928C04A7
:1017800010928D0410928E0410928F041092900487
:101790001092910410929204109293040895A1E281
:1017A0001A2EAA1BBB1BFD010DC0AA1FBB1FEE1FDB
:1017B000FF1FA217B307E407F50720F0A21BB30B26
:1017C000E40BF50B661F771F881F991F1A9469F7A2
:1017D00060957095809590959B01AC01BD01CF01FE
:1017E00008950E94FC0BA59F900DB49F900DA49F9F
:1017F000800D911D11240895A29FB001B39FC001D7
:10180000A39F700D811D1124911DB29F700D811D2C
:101810001124911D0895AA1BBB1B51E107C0AA1FEB
:10182000BB1FA617B70710F0A61BB70B881F991F81
:101830005A95A9F780959095BC01CD010895EE0FBA
:10184000FF1F0590F491E02D099481E090E0F89459
:081850000C942A0CF894FFCF60
:10185800C001C001FFFFFFFFFF00000000FF0058AC
:101868000397004601C800A600BA00564D445056DA
:101878005F317C315F564D4450560D0A00564D4439
:1018880050525F007C005F564D4450520D0A00567E
:101898004D4450455F003A323A005F564D4450453A
:0218A80000003E
:107E0000112484B714BE81FFF0D085E080938100F7
:107E100082E08093C00088E18093C10086E0809377
:107E2000C20080E18093C4008EE0C9D0259A86E02C
:107E300020E33CEF91E0309385002093840096BBD3
:107E4000B09BFECF1D9AA8958150A9F7CC24DD24C4
:107E500088248394B5E0AB2EA1E19A2EF3E0BF2EE7
:107E6000A2D0813461F49FD0082FAFD0023811F036
:107E7000013811F484E001C083E08DD089C08234E0
:107E800011F484E103C0853419F485E0A6D080C0E4
:107E9000853579F488D0E82EFF2485D0082F10E0AE
:107EA000102F00270E291F29000F111F8ED06801E7
:107EB0006FC0863521F484E090D080E0DECF843638
:107EC00009F040C070D06FD0082F6DD080E0C81688
:107ED00080E7D80618F4F601B7BEE895C0E0D1E017
:107EE00062D089930C17E1F7F0E0CF16F0E7DF06D8
:107EF00018F0F601B7BEE89568D007B600FCFDCFD4
:107F0000A601A0E0B1E02C9130E011968C91119780
:107F100090E0982F8827822B932B1296FA010C0160
:107F200087BEE89511244E5F5F4FF1E0A038BF0790
:107F300051F7F601A7BEE89507B600FCFDCF97BE46
:107F4000E89526C08437B1F42ED02DD0F82E2BD052
:107F50003CD0F601EF2C8F010F5F1F4F84911BD097
:107F6000EA94F801C1F70894C11CD11CFA94CF0C13
:107F7000D11C0EC0853739F428D08EE10CD085E9AC
:107F80000AD08FE07ACF813511F488E018D01DD067
:107F900080E101D065CF982F8091C00085FFFCCF94
:107FA0009093C60008958091C00087FFFCCF809118
:107FB000C00084FD01C0A8958091C6000895E0E648
:107FC000F0E098E1908380830895EDDF803219F02E
:107FD00088E0F5DFFFCF84E1DECF1F93182FE3DFCA
:107FE0001150E9F7F2DF1F91089580E0E8DFEE27F6
:047FF000FF270994CA
:027FFE00040479
:0400000300007E007B
:00000001FF