:100000000C9469000C9491000C9491000C94910054
:100010000C9491000C9491000C9491000C9491001C
:100020000C9491000C9491000C9491000C9491000C
:100030000C9491000C9491000C9491000C949100FC
:100040000C946B020C9491000C94E6010C94C0018A
:100050000C9491000C9491000C9491000C949100DC
:100060000C9491000C9491002C04390443045A041C
:1000700064047604850400000000230026002900A3
:100080000000000800020100000304070000000057
:100090000000000000000000250028002B000000E8
:1000A0000000240027002A000404040404040404BB
:1000B0000202020202020303030303030102040813
:1000C00010204080010204081020010204081020C2
:1000D0003C0B11241FBECFEFD8E0DEBFCDBF11E037
:1000E000A0E0B1E0E4EBFCE102C005900D92A23586
:1000F000B107D9F725E0A2E5B1E001C01D92AC300F
:10010000B207E1F710E0C9E6D0E004C02197FE0194
:100110000E94390EC836D107C9F70E9462070C94B5
:10012000580E0C940000089580E090E00895FC01C2
:10013000538D448D252F30E0842F90E0821B930B4C
:10014000541710F0CF96089501970895FC01918DF2
:10015000828D981761F0828DDF01A80FB11D5D9629
:100160008C91928D9F5F9F73928F90E008958FEF97
:100170009FEF0895FC01918D828D981731F0828D4B
:10018000E80FF11D858D90E008958FEF9FEF0895A2
:10019000FC01918D228D892F90E0805C9F4F821B06
:1001A00091098F73992708958BEA91E00E94C80006
:1001B00021E0892B09F420E0822F0895FC01848D31
:1001C000DF01A80FB11DA35ABF4F2C91848D90E081
:1001D00001968F739927848FA689B7892C93A0895C
:1001E000B1898C9180648C93938D848D981306C013
:1001F0000288F389E02D80818F7D80830895EF92BE
:10020000FF920F931F93CF93DF93EC0181E0888FD0
:100210009B8D8C8D981305C0E889F989808185FDB7
:1002200024C0F62E0B8D10E00F5F1F4F0F731127A8
:10023000E02E8C8DE8120CC00FB607FCFACFE889CF
:10024000F989808185FFF5CFCE010E94DE00F1CFD4
:100250008B8DFE01E80FF11DE35AFF4FF0820B8FEB
:10026000EA89FB898081806207C0EE89FF8960830B
:10027000E889F98980818064808381E090E0DF9162
:10028000CF911F910F91FF90EF900895CF93DF933F
:10029000EC01888D8823C9F0EA89FB89808185FD7E
:1002A00005C0A889B9898C9186FD0FC00FB607FCDF
:1002B000F5CF808185FFF2CFA889B9898C9185FF20
:1002C000EDCFCE010E94DE00E7CFDF91CF91089500
:1002D00080E090E0892B29F00E94D40081110C94D9
:1002E00000000895833081F028F4813099F0823045
:1002F000A1F008958730A9F08830B9F08430D1F4A6
:10030000809180008F7D03C0809180008F778093E3
:100310008000089584B58F7702C084B58F7D84BD39
:1003200008958091B0008F7703C08091B0008F7DD9
:100330008093B00008953FB7F89480915701909151
:100340005801A0915901B0915A0126B5A89B05C04A
:100350002F3F19F00196A11DB11D3FBFBA2FA92F44
:10036000982F8827820F911DA11DB11DBC01CD01C1
:1003700042E0660F771F881F991F4A95D1F70895AD
:100380001F920F920FB60F9211242F933F934F930A
:100390005F936F937F938F939F93AF93BF93EF93ED
:1003A000FF938BEA91E00E94DE00FF91EF91BF91F5
:1003B000AF919F918F917F916F915F914F913F91FD
:1003C0002F910F900FBE0F901F9018951F920F92B4
:1003D0000FB60F9211242F938F939F93EF93FF9358
:1003E000E091BB01F091BC018081E091C101F091ED
:1003F000C20182FD12C090818091C4018F5F8F7312
:100400002091C501821751F0E091C401F0E0E5555B
:10041000FE4F958F8093C40101C08081FF91EF91C1
:100420009F918F912F910F900FBE0F901F90189555
:100430001F93CF93DF93282F30E0F901E058FF4F4F
:100440008491F901E454FF4FD491F901E855FF4F2D
:10045000C491CC23C9F0162F81110E947201EC2F98
:10046000F0E0EE0FFF1FEC56FF4FA591B4918FB750
:10047000F894111105C09C91ED2FE095E92302C07D
:10048000EC91ED2BEC938FBFDF91CF911F910895ED
:100490008E3008F08E508770806480937C0080914D
:1004A0007A00806480937A0080917A0086FDFCCF88
:1004B000809178002091790090E0922B08952FB7D9
:1004C000F89460915301709154018091550190917D
:1004D00056012FBF08951F920F920FB60F9211244D
:1004E0002F933F938F939F93AF93BF93809153012B
:1004F00090915401A0915501B09156013091520153
:1005000023E0230F2D3720F40196A11DB11D05C056
:1005100026E8230F0296A11DB11D2093520180935E
:10052000530190935401A0935501B09356018091CB
:10053000570190915801A0915901B0915A0101962B
:10054000A11DB11D8093570190935801A0935901AB
:10055000B0935A01BF91AF919F918F913F912F918D
:100560000F900FBE0F901F9018954F925F926F9251
:100570007F928F929F92AF92BF92CF92DF92EF9233
:10058000FF926B017C018EE480937C000E949B01B2
:100590004B015C0192E0492E512C612C712C0E9480
:1005A0009B01DC01CB0188199909AA09BB09883E86
:1005B0009340A105B10598F328EE820E23E0921E28
:1005C000A11CB11C4A9445284628472829F0412CF3
:1005D000512C32014394E3CF80917A008064809360
:1005E0007A0080917A0086FDFCCF8091780020917E
:1005F000790090E0922BBC01990F880B990B0E9417
:10060000D10B4B015C0120E030EC4FE754E4C70113
:10061000B6010E94300CA50194010E947D0DFF904F
:10062000EF90DF90CF90BF90AF909F908F907F9092
:100630006F905F904F900895CF92DF92EF92FF926C
:100640000F931F93CF93DF936C017A018B01C0E06E
:10065000D0E0CE15DF0589F0D8016D918D01D6016E
:10066000ED91FC910190F081E02DC6010995892B57
:1006700011F47E0102C02196ECCFC701DF91CF912A
:100680001F910F91FF90EF90DF90CF9008950E94FF
:10069000530EEBEAF1E0A089B18982E08C93A48546
:1006A000B5851C92A685B78583E28C93108EA489AC
:1006B000B58986E08C93A289B3898C9180618C93F3
:1006C000A289B3898C9188608C93A289B3898C911B
:1006D00080688C930288F389E02D80818F7D8083F0
:1006E00008950F931F93FC014083518362837383AA
:1006F000048315832683378388EA96ECABE8BFE34F
:1007000080879187A287B387DF01A25BBF4F1C92CE
:100710001486158616861786129711961C921E92BD
:10072000709611921192EA17FB07D9F71F910F915A
:10073000089590E0FC01E454FF4F2491FC01E8553A
:10074000FF4F8491882399F090E0880F991FFC0156
:10075000E256FF4FA591B491FC01EC56FF4F8591F5
:1007600094918FB7F894EC91E22BEC938FBF08959E
:100770008F929F92AF92BF92CF92DF92EF92FF92B1
:100780006B017C010E945F024B015C01C60ED71E0B
:10079000E81EF91E0E945F02681579058A059B050F
:1007A00028F0C616D706E806F906A0F7FF90EF90E6
:1007B000DF90CF90BF90AF909F908F90089561157C
:1007C000710579F0FB0101900020E9F73197AF0145
:1007D000461B570BDC01ED91FC910280F381E02D6B
:1007E000099480E090E008952F923F924F925F929B
:1007F0006F927F928F929F92AF92BF92CF92DF9231
:10080000EF92FF920F931F93CF93DF93CDB7DEB795
:100810002A970FB6F894DEBF0FBECDBF28E432E0B2
:100820003A87298784E992E09A838983E7E6F1E0B1
:10083000FC83EB8300E010E0F8013197E730F1052D
:1008400028F4EC5CFF4F61E00C94390E80910001BC
:100850000E9448026C017BC0809102010E94180234
:10086000809100010E9448026C0160E080910201C9
:100870006CC0809104010E941802809100010E94C6
:1008800048026C0113C0809102010E94180261E0CD
:10089000809104010E941802809100010E94480288
:1008A0006C0160E0809102010E94180260E080917A
:1008B00004014BC0809106010E9418028091000142
:1008C0000E9448026C013EC0809102010E94180201
:1008D00061E0809106010E941802809100010E944F
:1008E00048026C0160E0809102012AC080910401FD
:1008F0000E94180261E0809106010E941802809116
:1009000000010E9448026C0118C0809102010E94FF
:10091000180261E0809104010E94180261E0809158
:1009200006010E941802809100010E9448026C0199
:1009300060E0809102010E94180260E08091040151
:100940000E94180260E0809106010E941802E9816D
:10095000FA8120803180F8E02F0E311C220C331CEC
:100960002FE4209FC001219F900D1124820D931D23
:10097000FC01E85BFD4F1F0160817181072E000CB7
:10098000880B990B0E94D10B9B01AC01E985FA857C
:1009900064857585868597850E94100DE985FA85A1
:1009A0006487758786879787E25BFF4F8081E9853B
:1009B000FA8580849184A284B3840D2C000CEE0807
:1009C000FF0820E030E0A901882309F4B8C0648161
:1009D0007581868197810E94CA0B81114BC0C50128
:1009E000B4010E94B5029B01AC01E985FA856085DE
:1009F0007185828593852D833E834F8358870E941E
:100A0000B5024B015C01C701B6010E94D10B2D81DB
:100A10003E814F8158850E94300C20E030E040E854
:100A20005AE30E94300C6B017C0120E030E040E88A
:100A30005AE3C501B4010E94300C20E030E040E0F0
:100A40005FE30E94300C9B01AC01C701B6010E941C
:100A5000110D6B017C01E985FA85608571858285C0
:100A600093850E94B5029B01AC01C701B6010E94AB
:100A7000100D00C1C501B4010E94B5029B01AC017B
:100A8000E985FA8560857185828593852D833E830E
:100A90004F8358870E94B5024B015C01C701B60124
:100AA0000E94D10B2D813E814F8158850E94300CD0
:100AB00020E030E040E85AE30E94300C6B017C01FA
:100AC00020E030E040E85AE3C501B4010E94300C58
:100AD00020E030E040E05FE30E94300C9B01AC017D
:100AE000C701B6010E94110D4B015C01E985FA8531
:100AF00060857185828593850E94B5029B01AC015A
:100B0000E985FA85C480D580E680F780C501B40107
:100B10000E94100D4B015C01E985FA85208131812D
:100B200042815381C701B6010E94110D9B01AC01A6
:100B3000C501B4010E94300CA701960199C0E98556
:100B4000FA8564817581868197810E94CA0B811123
:100B50003BC0C501B4010E94B5029B01AC01E9850F
:100B6000FA8560857185828593852D833E834F83C9
:100B700058870E94B5024B015C01C701B6010E9473
:100B8000D10B2D813E814F8158850E94300C20E091
:100B900030E040E85AE30E94300C6B017C0120E019
:100BA00030E040E85AE3C501B4010E94300C20E077
:100BB00030E040E05FE30E94300C9B01AC01C701D4
:100BC000B6010E94110D56C0C501B4010E94B502C4
:100BD0009B01AC01E985FA856085718582859385E5
:100BE0002D833E834F8358870E94B5022B013C0121
:100BF000E985FA8584809580A680B780C701B60113
:100C00000E94D10B2D813E814F8158850E94300C6E
:100C100020E030E040E85AE30E94300C6B017C0198
:100C200020E030E040E85AE3C301B2010E94300CFA
:100C300020E030E040E05FE30E94300C9B01AC011B
:100C4000C701B6010E94110D6B017C01E985FA858F
:100C50002081318142815381C501B4010E94110D6F
:100C60009B01AC01C701B6010E94300CA5019401A3
:100C70000E947D0D20E030E040EF51E40E947D0DA8
:100C80000E94EF0DF10171836083E981FA81E080B8
:100C9000F180F7013896EE0FFF1F2FE4209FC0016F
:100CA000219F900D1124E80FF91FE85BFD4F608133
:100CB0007181072E000C880B990B0E94D10BE985DE
:100CC000FA8524853585468557850E94110D4B018F
:100CD0005C01E985FA856487758786879787C701F0
:100CE00001966EE170E00E94250EE981FA81918300
:100CF0008083EB81FC8181929192A192B192FC83DD
:100D0000EB8329853A85215B3F4F3A872987898183
:100D10009A81815B9F4F9A8389830F5F1F4F0830B1
:100D2000110509F089CD2A960FB6F894DEBF0FBEE3
:100D3000CDBFDF91CF911F910F91FF90EF90DF908A
:100D4000CF90BF90AF909F908F907F906F905F906B
:100D50004F903F902F9008954F925F926F927F92A5
:100D6000EF92FF920F931F93CF93DF93CDB7DEB730
:100D7000A1970FB6F894DEBF0FBECDBF7C01FA017C
:100D8000CB0119A2223008F42AE08E010F5D1F4F1B
:100D9000422E512C612C712CBF01A30192010E94A3
:100DA000EE0CF901CA01015011096A3014F4605DBA
:100DB00001C0695CD8016C93232B242B252B61F790
:100DC000B801C7010E94DF03A1960FB6F894DEBFF9
:100DD0000FBECDBFDF91CF911F910F91FF90EF908C
:100DE0007F906F905F904F900895CF92DF92EF9237
:100DF000FF920F931F93CF93DF93EC016A017B0166
:100E0000E881F9810190F081E02D6DE209958C0176
:100E100044275527BA014C195D096E097F092AE05C
:100E2000CE010E94AC06800F911FDF91CF911F91E0
:100E30000F91FF90EF90DF90CF900895CF93DF93C5
:100E400000D0CDB7DEB72091080530910905CE015D
:100E500001962115310519F48C50954018C0AC014C
:100E6000421B530BE0910A05F0910B0580E090E0E6
:100E7000309759F09C012E5F3F4F80819181820F06
:100E8000931F0280F381E02DF3CF840F951F9A8387
:100E9000898349815A818091020590910305052E2D
:100EA000000C660B770B77FF03C00E94F50603C0AA
:100EB0002AE00E94AC060F900F90DF91CF91089529
:100EC0000C94DF03789484B5826084BD84B581601E
:100ED00084BD85B5826085BD85B5816085BD809105
:100EE0006E00816080936E0010928100809181007D
:100EF0008260809381008091810081608093810075
:100F0000809180008160809380008091B100846036
:100F10008093B1008091B00081608093B000809197
:100F20007A00846080937A0080917A008260809356
:100F30007A0080917A00816080937A0080917A00B3
:100F4000806880937A001092C1001092040510927C
:100F5000050510920605109207051092C204109222
:100F6000C3041092C4041092C50468EB7BE080E0D7
:100F700090E00E94B8038BEA91E090930305809380
:100F800002050E9449030E945F026093C2047093AD
:100F9000C3048093C4049093C5046CE171E0809114
:100FA0000205909103050E9460076AE070E080E00E
:100FB00090E00E94B80381E08093D6040E945F0213
:100FC0000091C2041091C3042091C4043091C5045F
:100FD0006B017C01C01AD10AE20AF30A84E6C81642
:100FE000D104E104F10408F4DAC00E945F026093C6
:100FF000C2047093C3048093C4049093C5046EE24A
:1010000071E080910205909103050E94600765E3FD
:1010100071E080910205909103050E94600765E3ED
:1010200071E080910205909103050E94600765E3DD
:1010300071E080910205909103050E9460070E9473
:101040001E0765E371E080910205909103050E94FF
:10105000600767E371E080910205909103050E94AB
:1010600060076AE070E080E090E00E94B8030E94B0
:10107000490310920101109200018FE090E09093DB
:1010800003018093020180E190E090930501809339
:10109000040181E190E0909307018093060182E1D1
:1010A00090E090930901809308018FE00E949903DA
:1010B000809104010E949903809106010E94990386
:1010C000809108010E94990360E0809102010E94D2
:1010D000180260E0809104010E94180260E0809193
:1010E00006010E94180260E0809108010E94180227
:1010F00000E010E09801B901A80188E492E00E94A4
:10110000710300E010E027EC32E44DEC5CEC60EAA7
:1011100071E487E992E00E94710300E010E82BEE91
:1011200033E440E050E86BE774E486EE92E00E941E
:10113000710380E090E8A9E7B4E4809335039093CD
:101140003603A0933703B093380380E090E8AAEE0B
:10115000B3E48093390390933A03A0933B03B09395
:101160003C0388EA96ECABE8BFE380933D039093A1
:101170003E03A0933F03B093400381E08093830339
:1011800010924103109242031092430310924403C1
:101190001092820310928103E5E4F3E01FC00E94E5
:1011A0005F024B015C01DC01CB018C199D09AE098A
:1011B000BF096C017D0194E6C90ED11CE11CF11C34
:1011C0000E945F02681579058A059B0508F40DCF1A
:1011D000C616D706E806F90698F707CF11921192BE
:1011E000A3E0E138FA07D1F700E010E82AEE33E493
:1011F00040E050EE68E075E484E893E00E947103FB
:1012000000E010E82AEE33E440E050EE68E075E4D8
:1012100083ED93E00E9471030DEC1CEC28EC32E4AA
:101220004DEC5CEC60EA71E482E294E00E947103B0
:101230000AE919E928EC32E44AE959E961EA71E47A
:1012400081E794E00E947103CEE1D0E00E94F403B4
:101250002197E1F794EF892E99249394A12CB12C36
:101260000E945F0200916301109164012091650169
:1012700030916601DC01CB01801B910BA20BB30BFB
:1012800086399105A105B10508F4D9C00E945F0215
:10129000609363017093640180936501909366018C
:1012A00061E070E080E090E00E94B8030E945F027D
:1012B0006093C2047093C3048093C4049093C504E4
:1012C0006EE271E080910205909103050E94600733
:1012D00065E371E080910205909103050E9460072B
:1012E00010E0D0E0C12CD12C760180E0012E01C0AD
:1012F000880F0A94EAF7D82B1F5F183031F08DE081
:10130000C816D104E104F104A9F44D2F50E060E0C7
:1013100070E02AE080910205909103050E94AC06DE
:1013200069E471E080910205909103050E946007D5
:1013300010E0D0E061E070E080E090E00E94B8034F
:101340009FEFC91AD90AE90AF90AAEE0CA16D10410
:10135000E104F10431F1B1E0CB16D104E104F10470
:1013600021F2F601E058FF4F8491F601E454FF4F5B
:101370000491F601E855FF4FC491CC2309F4B5CF91
:1013800081110E947201EC2FF0E0EE0FFF1FEA586E
:10139000FF4FA591B491EC910E2309F4A6CF81E003
:1013A000A5CF61E070E080E090E00E94B80365E3C3
:1013B00071E080910205909103050E946007C0E0F2
:1013C0008C2F0E944802AC01809102059091030588
:1013D000052E000C660B770B77FF03C00E94F50605
:1013E00003C02AE00E94AC0669E471E08091020526
:1013F000909103050E946007CF5FC63009F765E34F
:1014000071E080910205909103050E9460070E949F
:101410001E0765E371E080910205909103050E942B
:10142000600767E371E080910205909103050E94D7
:10143000600761E070E080E090E00E94B8030E94E5
:101440005F02672B682B692B41F40E945F026230B8
:1014500071058105910508F40AC10E945F0260933D
:101460005F0170936001809361019093620100912C
:101470005B0110915C0120915D0130915E0160176C
:1014800071078207930740F460935B0170935C01DE
:1014900080935D0190935E0100915B0110915C016E
:1014A00020915D0130915E016B017C01C01AD10A6F
:1014B000E20AF30A970186010A3F11052105310569
:1014C00008F4D5C060935B0170935C0180935D016B
:1014D00090935E018092CE049092CF04A092D004AB
:1014E000B092D1041092D2041092D3041092D4047A
:1014F0001092D5048091C6049091C704A091C804AD
:10150000B091C9048093CA049093CB04A093CC04F7
:10151000B093CD040E945F026093C6047093C70429
:101520008093C8049093C9040E945F026093C20430
:101530007093C3048093C4049093C5040E945F0217
:101540006B017C0160E471E08091020590910305DC
:101550000E9460072AE041E050E060E070E0809186
:101560000205909103050E94AC0667E471E080914A
:101570000205909103050E9460072AE0B701A601C9
:1015800080910205909103050E94AC0669E471E028
:1015900080910205909103050E9460078091C60426
:1015A0009091C704A091C804B091C904B701A601E5
:1015B000481B590B6A0B7B0B2AE080910205909126
:1015C00003050E94AC0669E471E0809102059091E8
:1015D00003050E9460074091C6045091C7046091C2
:1015E000C8047091C9048091CA049091CB04A09161
:1015F000CC04B091CD04481B590B6A0B7B0B2AE03D
:1016000080910205909103050E94AC0665E371E0AC
:1016100080910205909103050E9460070E945F027D
:10162000AB01BC012AE080910205909103050E9464
:10163000AC06C0910205D09103056BE471E0CE01C8
:101640000E94DF036DE371E0CE010E94DF0365E0DD
:1016500070E080E090E00E94B8030E945F02609317
:10166000C6047093C7048093C8049093C9040E9471
:10167000F4030E946801F4CDCF93DF931092AE0182
:101680001092AD0188EE93E0A0E0B0E08093AF014E
:101690009093B001A093B101B093B2018EE091E0BC
:1016A0009093AC018093AB0185EC90E09093B801EE
:1016B0008093B70184EC90E09093BA018093B901D4
:1016C00080EC90E09093BC018093BB0181EC90E0B2
:1016D0009093BE018093BD0182EC90E09093C00195
:1016E0008093BF0186EC90E09093C2018093C1018A
:1016F0001092C4011092C5011092C6011092C70148
:10170000E8E4F2E08DEC9CECACE8BFEB4DEC5CEC7B
:101710006CE87FE380839183A283B3838483958382
:10172000A683B7834087518762877387148615869F
:1017300016861786EF01C45BDF4F19821882229646
:101740001882E15BFF4F24E0E03CF20719F71092AA
:10175000C6041092C7041092C8041092C9041092D3
:10176000CA041092CB041092CC041092CD041092B3
:10177000CE041092CF041092D0041092D104109293
:10178000D2041092D3041092D4041092D504DF91A5
:10179000CF9108950E940C0C08F481E00895E8941C
:1017A00009C097FB3EF490958095709561957F4FA9
:1017B0008F4F9F4F9923A9F0F92F96E9BB27939557
:1017C000F695879577956795B795F111F8CFFAF467
:1017D000BB0F11F460FF1BC06F5F7F4F8F4F9F4F98
:1017E00016C0882311F096E911C0772321F09EE8F6
:1017F000872F762F05C0662371F096E8862F70E05C
:1018000060E02AF09A95660F771F881FDAF7880F35
:101810009695879597F90895990F0008550FAA0B8B
:10182000E0E8FEEF16161706E807F907C0F01216F3
:101830001306E407F50798F0621B730B840B950BF6
:1018400039F40A2661F0232B242B252B21F408954B
:101850000A2609F4A140A6958FEF811D811D0895E8
:101860000E94430C0C94B40C0E94A60C38F00E9409
:10187000AD0C20F0952311F00C949D0C0C94A30C4E
:1018800011240C94E80C0E94C50C70F3959FC1F3D1
:10189000950F50E0551F629FF001729FBB27F00D1E
:1018A000B11D639FAA27F00DB11DAA1F649F662773
:1018B000B00DA11D661F829F2227B00DA11D621FC2
:1018C000739FB00DA11D621F839FA00D611D221F7C
:1018D000749F3327A00D611D231F849F600D211D60
:1018E000822F762F6A2F11249F5750409AF0F1F0E3
:1018F00088234AF0EE0FFF1FBB1F661F771F881F4C
:1019000091505040A9F79E3F510580F00C949D0CDA
:101910000C94E80C5F3FE4F3983ED4F386957795FA
:101920006795B795F795E7959F5FC1F7FE2B880FF1
:10193000911D9695879597F9089597F99F6780E887
:1019400070E060E008959FEF80EC089500240A9411
:101950001616170618060906089500240A9412168A
:101960001306140605060895092E0394000C11F4BD
:10197000882352F0BB0F40F4BF2B11F460FF04C06A
:101980006F5F7F4F8F4F9F4F089557FD9058440FC3
:10199000551F59F05F3F71F04795880F97FB991FCE
:1019A00061F09F3F79F0879508951216130614068B
:1019B000551FF2CF4695F1DF08C016161706180618
:1019C000991FF1CF86957105610508940895E894F3
:1019D000BB2766277727CB0197F90895A1E21A2E36
:1019E000AA1BBB1BFD010DC0AA1FBB1FEE1FFF1FC3
:1019F000A217B307E407F50720F0A21BB30BE40B13
:101A0000F50B661F771F881F991F1A9469F7609559
:101A10007095809590959B01AC01BD01CF01089513
:101A20005058BB27AA270E94280D0C94B40C0E9482
:101A3000A60C38F00E94AD0C20F039F49F3F19F449
:101A400026F40C94A30C0EF4E095E7FB0C949D0C8B
:101A5000E92F0E94C50C58F3BA1762077307840771
:101A6000950720F079F4A6F50C94E70C0EF4E095B8
:101A70000B2EBA2FA02D0B01B90190010C01CA0148
:101A8000A0011124FF27591B99F0593F50F4503EF3
:101A900068F11A16F040A22F232F342F4427585FE5
:101AA000F3CF469537952795A795F0405395C9F7FD
:101AB0007EF41F16BA0B620B730B840BBAF09150B5
:101AC000A1F0FF0FBB1F661F771F881FC2F70EC054
:101AD000BA0F621F731F841F48F487957795679527
:101AE000B795F7959E3F08F0B0CF9395880F08F013
:101AF0009927EE0F9795879508950E94910D0C9464
:101B0000B40C0E94AD0C58F00E94A60C40F029F4D1
:101B10005F3F29F00C949D0C51110C94E80C0C942F
:101B2000A30C0E94C50C68F39923B1F3552391F3DC
:101B3000951B550BBB27AA2762177307840738F03C
:101B40009F5F5F4F220F331F441FAA1FA9F335D099
:101B50000E2E3AF0E0E832D091505040E695001C4D
:101B6000CAF72BD0FE2F29D0660F771F881FBB1F07
:101B7000261737074807AB07B0E809F0BB0B802DE5
:101B8000BF01FF2793585F4F3AF09E3F510578F011
:101B90000C949D0C0C94E80C5F3FE4F3983ED4F356
:101BA000869577956795B795F7959F5FC9F7880FE5
:101BB000911D9695879597F90895E1E0660F771F37
:101BC000881FBB1F621773078407BA0720F0621BC8
:101BD000730B840BBA0BEE1F88F7E09508950E94F3
:101BE000F60D6894B1110C94E80C08950E94CD0C88
:101BF00088F09F5798F0B92F9927B751B0F0E1F0CE
:101C0000660F771F881F991F1AF0BA95C9F714C07D
:101C1000B13091F00E94E70CB1E008950C94E70C0C
:101C2000672F782F8827B85F39F0B93FCCF38695B6
:101C300077956795B395D9F73EF490958095709513
:101C400061957F4F8F4F9F4F089597FB072E16F496
:101C5000009407D077FD09D00E943F0E07FC05D005
:101C60003EF4909581959F4F0895709561957F4FB3
:101C70000895EE0FFF1F0590F491E02D0994AA1B23
:101C8000BB1B51E107C0AA1FBB1FA617B70710F067
:101C9000A61BB70B881F991F5A95A9F78095909599
:101CA000BC01CD01089581E090E0F8940C94580EA9
:041CB000F894FFCFD6
:101CB400FFFFFFFFFFFFFFFFFFFF00000000FF002B
:101CC4001C0397004601C800A600BA00564D4450B4
:101CD400565F317C315F564D4450560D0A00564DC7
:101CE4004450525F007C005F564D4450520D0A0030
:101CF400564D4450455F003A323A005F564D4450C9
:021D0400450098
:107E0000112484B714BE81FFF0D085E080938100F7
:107E100082E08093C00088E18093C10086E0809377
:107E2000C20080E18093C4008EE0C9D0259A86E02C
:107E300020E33CEF91E0309385002093840096BBD3
:107E4000B09BFECF1D9AA8958150A9F7CC24DD24C4
:107E500088248394B5E0AB2EA1E19A2EF3E0BF2EE7
:107E6000A2D0813461F49FD0082FAFD0023811F036
:107E7000013811F484E001C083E08DD089C08234E0
:107E800011F484E103C0853419F485E0A6D080C0E4
:107E9000853579F488D0E82EFF2485D0082F10E0AE
:107EA000102F00270E291F29000F111F8ED06801E7
:107EB0006FC0863521F484E090D080E0DECF843638
:107EC00009F040C070D06FD0082F6DD080E0C81688
:107ED00080E7D80618F4F601B7BEE895C0E0D1E017
:107EE00062D089930C17E1F7F0E0CF16F0E7DF06D8
:107EF00018F0F601B7BEE89568D007B600FCFDCFD4
:107F0000A601A0E0B1E02C9130E011968C91119780
:107F100090E0982F8827822B932B1296FA010C0160
:107F200087BEE89511244E5F5F4FF1E0A038BF0790
:107F300051F7F601A7BEE89507B600FCFDCF97BE46
:107F4000E89526C08437B1F42ED02DD0F82E2BD052
:107F50003CD0F601EF2C8F010F5F1F4F84911BD097
:107F6000EA94F801C1F70894C11CD11CFA94CF0C13
:107F7000D11C0EC0853739F428D08EE10CD085E9AC
:107F80000AD08FE07ACF813511F488E018D01DD067
:107F900080E101D065CF982F8091C00085FFFCCF94
:107FA0009093C60008958091C00087FFFCCF809118
:107FB000C00084FD01C0A8958091C6000895E0E648
:107FC000F0E098E1908380830895EDDF803219F02E
:107FD00088E0F5DFFFCF84E1DECF1F93182FE3DFCA
:107FE0001150E9F7F2DF1F91089580E0E8DFEE27F6
:047FF000FF270994CA
:027FFE00040479
:0400000300007E007B
:00000001FF