:100000000C946D000C946D040C9446040C949500B3
:100010000C9495000C9495000C9495000C9495000C
:100020000C9495000C9495000C9495000C949500FC
:100030000C9495000C9495000C9495000C949500EC
:100040000C94FC030C9495000C945B030C94350306
:100050000C9495000C9495000C9495000C949500CC
:100060000C9495000C949500D505DB05E905F40585
:100070000C0617062A063A065C0667067A068A0602
:10008000A706B706CF06E40600000008000201003C
:100090000003040700000000000000000000000052
:1000A000250028002B0000000000240027002A0063
:1000B000040404040404040402020202020203030E
:1000C0000303030301020408102040800102040816
:1000D0001020010204081020980B11241FBECFEF3E
:1000E000D8E0DEBFCDBF24E0A2E7B1E001C01D92A1
:1000F000A63EB207E1F711E0A0E0B1E0E8E0F9E1E7
:1001000002C005900D92A237B107D9F710E0CDE6F5
:10011000D0E004C02197FE010E94770CCC36D107B5
:10012000C9F70E9420070C94820C0C9400000895DB
:1001300080E090E00895FC01538D448D252F30E040
:10014000842F90E0821B930B541710F0CF960895E4
:1001500001970895FC01918D828D981761F0828D31
:10016000DF01A80FB11D5D968C91928D9F5F9F73EB
:10017000928F90E008958FEF9FEF0895FC01918D8D
:10018000828D981731F0828DE80FF11D858D90E0FA
:1001900008958FEF9FEF0895FC01918D228D892F97
:1001A00090E0805C9F4F821B91098F73992708957F
:1001B00089EA91E00E94CC0021E0892B09F420E03B
:1001C000822F0895FC01848DDF01A80FB11DA35A71
:1001D000BF4F2C91848D90E001968F739927848F67
:1001E000A689B7892C93A089B1898C9180648C935E
:1001F000938D848D981306C00288F389E02D808149
:100200008F7D80830895EF92FF920F931F93CF937A
:10021000DF93EC0181E0888F9B8D8C8D981305C056
:10022000E889F989808185FD24C0F62E0B8D10E0C8
:100230000F5F1F4F0F731127E02E8C8DE8120CC03B
:100240000FB607FCFACFE889F989808185FFF5CFE1
:10025000CE010E94E200F1CF8B8DFE01E80FF11D6F
:10026000E35AFF4FF0820B8FEA89FB89808180621D
:1002700007C0EE89FF896083E889F98980818064FD
:10028000808381E090E0DF91CF911F910F91FF90EB
:10029000EF900895CF93DF93EC01888D8823C9F008
:1002A000EA89FB89808185FD05C0A889B9898C917F
:1002B00086FD0FC00FB607FCF5CF808185FFF2CF1A
:1002C000A889B9898C9185FFEDCFCE010E94E2000B
:1002D000E7CFDF91CF91089580E090E0892B29F05E
:1002E0000E94D80081110C94000008953FB7F89443
:1002F0008091770190917801A0917901B0917A0174
:1003000026B5A89B05C02F3F19F00196A11DB11D70
:100310003FBFBA2FA92F982F8827820F911DA11DAB
:10032000B11DBC01CD0142E0660F771F881F991FE8
:100330004A95D1F7089508958F929F92AF92BF92F8
:10034000CF92DF92EF92FF928EE480937C000E9426
:1003500076016B017C0192E0892E912CA12CB12CAD
:100360000E947601DC01CB018C199D09AE09BF0901
:10037000883E9340A105B10598F328EEC20E23E014
:10038000D21EE11CF11C8A9489288A288B2829F026
:10039000812C912C54018394E3CF80917A00806466
:1003A00080937A0080917A0086FDFCCF20917800BE
:1003B0008091790030E0382B032E000C440B550B54
:1003C0006CEB7BE081E190E00E94270CC901FF907B
:1003D000EF90DF90CF90BF90AF909F908F90089557
:1003E0002F923F924F925F926F927F928F929F9245
:1003F000AF92BF92CF92DF92EF92FF920F931F9333
:10040000CF93DF9300D000D0CDB7DEB71C019A01A7
:10041000AB01DC0118960D911C911997000F111F6B
:10042000080F191F5C01B6E4AB0EB11CF801628520
:100430007385F50180819181A281B381861B970B21
:10044000A109B10980839183A283B383349660812B
:10045000F10184819581A681B78129833A834B83F9
:100460005C83662309F45AC0892B8A2B8B2B39F5C0
:100470000E949C017C010E949C01D92E0E949C013B
:10048000ED2DE695E695E695F0E0E81BF90BD70132
:1004900029813A814B815C810E94490CDC01CB01AE
:1004A0006AE0B695A795979587956A95D1F7E80F75
:1004B000F91FD8011B96FC93EE931A9793C00E94E4
:1004C0009C014C010E949C01F92E0E949C01F101AB
:1004D0004480558066807780CF2CC694C694C6949D
:1004E000D12CE12CF12CC81AD90AE108F108D40169
:1004F00029813A814B815C810E94490CDC01CB014E
:100500005AE0B695A795979587955A95D1F7A70183
:100510009601280F391F4A1F5B1F4FC0892B8A2B5A
:100520008B2B11F50E949C017C010E949C01E92FFC
:10053000D70129813A814B815C810E94490CDC0101
:10054000CB014AE0B695A795979587954A95D1F73F
:100550002E2F26952695269530E0B901680F791F34
:10056000F801738762873EC00E949C017C010E9453
:100570009C01E92FD10114964D905D906D907C9077
:100580001797D70129813A814B815C810E94490CE0
:10059000AB01BC013AE076956795579547953A953A
:1005A000D1F78E2F86958695869590E09A01AB01BE
:1005B000280F391F411D511DF10180819181A281B8
:1005C000B381BC01CD01640D751D861D971D0E9470
:1005D000170CA30192010E94270CD8011B963C9393
:1005E0002E931A97F10180859185FC013596EE0FC7
:1005F000FF1FE20DF31D40815181D5010D911D9129
:100600002D913C91040F151F211D311DF501008313
:1006100011832283338301966EE170E00E94630CA4
:10062000D10119969C938E931897C901B8012EE1B8
:1006300030E040E050E00E94270CC9010F900F907D
:100640000F900F90DF91CF911F910F91FF90EF903E
:10065000DF90CF90BF90AF909F908F907F906F90E2
:100660005F904F903F902F9008951F920F920FB67A
:100670000F9211242F933F934F935F936F937F9328
:100680008F939F93AF93BF93EF93FF9389EA91E08A
:100690000E94E200FF91EF91BF91AF919F918F91E6
:1006A0007F916F915F914F913F912F910F900FBE6E
:1006B0000F901F9018951F920F920FB60F92112452
:1006C0002F938F939F93EF93FF93E091B901F09154
:1006D000BA018081E091BF01F091C00182FD12C09A
:1006E00090818091C2018F5F8F732091C301821727
:1006F00051F0E091C201F0E0E755FE4F958F8093F5
:10070000C20101C08081FF91EF919F918F912F9144
:100710000F900FBE0F901F90189590E0FC01E857C6
:10072000FF4F3491FC01EC53FF4F2491FC01E05545
:10073000FF4FE491EE2309F43BC0332339F133300A
:1007400091F038F43130A9F0323001F584B58F7D65
:1007500012C0373091F03830A1F03430B9F48091C4
:1007600080008F7D03C0809180008F778093800010
:100770000DC084B58F7784BD09C08091B0008F779C
:1007800003C08091B0008F7D8093B000F0E0EE0F49
:10079000FF1FE456FF4FA591B4918FB7F894EC91E9
:1007A000611103C020952E2301C02E2B2C938FBFE7
:1007B00008958E3008F08E508770806480937C009E
:1007C00080917A00806480937A0080917A0086FD1F
:1007D000FCCF809178002091790090E0922B0895D1
:1007E0002FB7F89460917301709174018091750135
:1007F000909176012FBF08951F920F920FB60F921E
:1008000011242F933F938F939F93AF93BF93809126
:10081000730190917401A0917501B09176013091AE
:10082000720123E0230F2D3720F40196A11DB11D85
:1008300005C026E8230F0296A11DB11D2093720169
:100840008093730190937401A0937501B093760126
:100850008091770190917801A0917901B0917A010E
:100860000196A11DB11D8093770190937801A0930B
:100870007901B0937A01BF91AF919F918F913F9190
:100880002F910F900FBE0F901F9018951F920F92EF
:100890000FB60F9211242F933F934F935F936F9353
:1008A0007F938F939F93AF93BF93EF93FF93E091C9
:1008B0000201F09103010995FF91EF91BF91AF9172
:1008C0009F918F917F916F915F914F913F912F9168
:1008D0000F900FBE0F901F9018951F920F920FB69A
:1008E0000F9211242F933F934F935F936F937F93B6
:1008F0008F939F93AF93BF93EF93FF93E09100018A
:10090000F09101010995FF91EF91BF91AF919F91F6
:100910008F917F916F915F914F913F912F910F90A8
:100920000FBE0F901F901895CF92DF92EF92FF921B
:100930000F931F93CF93DF936C017A018B01C0E07B
:10094000D0E0CE15DF0589F0D8016D918D01D6017B
:10095000ED91FC910190F081E02DC6010995892B64
:1009600011F47E0102C02196ECCFC701DF91CF9137
:100970001F910F91FF90EF90DF90CF9008950E940C
:100980007D0C6115710579F0FB0101900020E9F7FC
:100990003197AF01461B570BDC01ED91FC910280B2
:1009A000F381E02D099480E090E00895E9EAF1E018
:1009B000A089B18982E08C93A485B5851C92A68517
:1009C000B78583E28C93108EA489B58986E08C93D9
:1009D000A289B3898C9180618C93A289B3898C910F
:1009E00088608C93A289B3898C9180688C930288EB
:1009F000F389E02D80818F7D8083089590E0FC0154
:100A0000EC53FF4F2491FC01E055FF4F8491882364
:100A100099F090E0880F991FFC01EA55FF4FA591CE
:100A2000B491FC01E456FF4F859194918FB7F894EF
:100A3000EC91E22BEC938FBF08958F929F92AF922F
:100A4000BF92CF92DF92EF92FF926B017C010E94E6
:100A5000F0034B015C01C60ED71EE81EF91E0E9472
:100A6000F003681579058A059B0528F0C616D70698
:100A7000E806F906A0F7FF90EF90DF90CF90BF90C7
:100A8000AF909F908F9008954F925F926F927F9258
:100A9000EF92FF920F931F93CF93DF93CDB7DEB703
:100AA000A1970FB6F894DEBF0FBECDBF7C01FA014F
:100AB000CB0119A2223008F42AE08E010F5D1F4FEE
:100AC000422E512C612C712CBF01A30192010E9476
:100AD000270CF901CA01015011096A3014F4605D54
:100AE00001C0695CD8016C93232B242B252B61F763
:100AF000B801C7010E94C104A1960FB6F894DEBFE9
:100B00000FBECDBFDF91CF911F910F91FF90EF905E
:100B10007F906F905F904F900895CF92DF92EF9209
:100B2000FF920F931F93CF93DF93EC016A017B0138
:100B3000E881F9810190F081E02D6DE209958C0149
:100B400044275527BA014C195D096E097F092AE02F
:100B5000CE010E944405800F911FDF91CF911F911C
:100B60000F91FF90EF90DF90CF9008950F931F9318
:100B7000CF93DF93EC010E94C1048C016CE371E020
:100B8000CE010E94C104800F911FDF91CF911F9170
:100B90000F910895CF93DF938031910508F042C102
:100BA000FC01EC5CFF4F0C94770C80910401DF9109
:100BB000CF910C94D90361E0809105010E948D03CF
:100BC000809104010E94D903EC0160E0809105014D
:100BD00026C161E0809106010E948D03809104018D
:100BE0000E94D903EC0114C061E0809105010E94CC
:100BF0008D0361E0809106010E948D0380910401C4
:100C00000E94D903EC0160E0809105010E948D03F0
:100C100060E08091060103C161E0809107010E94BC
:100C20008D03809104010E94D903EC0141C061E071
:100C3000809105010E948D0361E0809107010E946F
:100C40008D03809104010E94D903EC0160E0809142
:100C500005012CC061E0809106010E948D0361E0D6
:100C6000809107010E948D03809104010E94D903A5
:100C7000EC0119C061E0809105010E948D0361E0E3
:100C8000809106010E948D0361E0809107010E941E
:100C90008D03809104010E94D903EC0160E08091F2
:100CA00005010E948D0360E0809106010E948D0382
:100CB00060E080910701B3C061E0809108010E946B
:100CC0008D03809104010E94D903EC01A5C061E06D
:100CD000809105010E948D0361E0809108010E94CE
:100CE0008D03809104010E94D903EC0160E08091A2
:100CF000050190C061E0809106010E948D0361E0D2
:100D0000809108010E948D03809104010E94D90303
:100D1000EC0119C061E0809105010E948D0361E042
:100D2000809106010E948D0361E0809108010E947C
:100D30008D03809104010E94D903EC0160E0809151
:100D400005010E948D0360E08091060163C061E0AF
:100D5000809107010E948D0361E0809108010E944B
:100D60008D03809104010E94D903EC0150C061E021
:100D7000809105010E948D0361E0809107010E942E
:100D80008D0361E0809108010E948D038091040130
:100D90000E94D903EC0160E08091050136C061E05A
:100DA000809106010E948D0361E0809107010E94FD
:100DB0008D0361E0809108010E948D038091040100
:100DC0000E94D903EC011EC061E0809105010E94E0
:100DD0008D0361E0809106010E948D0361E08091A6
:100DE00007010E948D0361E0809108010E948D033C
:100DF000809104010E94D903EC0160E0809105011B
:100E00000E948D0360E0809106010E948D0360E0E6
:100E1000809107010E948D0360E0809108010E948B
:100E20008D0308C063E571E089EA91E00E94B60590
:100E3000C0E0D0E0CE01DF91CF9108950C94C104C1
:100E4000789484B5826084BD84B5816084BD85B5A5
:100E5000826085BD85B5816085BD80916E008160B1
:100E600080936E0010928100809181008260809357
:100E70008100809181008160809381008091800059
:100E80008160809380008091B10084608093B10084
:100E90008091B00081608093B00080917A0084607E
:100EA00080937A0080917A00826080937A008091AA
:100EB0007A00816080937A0080917A0080688093C4
:100EC0007A001092C1001092E2041092E304109292
:100ED000E4041092E5041092A0041092A104109270
:100EE000A2041092A30468EB7BE080E090E00E94F3
:100EF0001D0589EA91E09093E1048093E0040E944B
:100F0000D6040E94F0036093A0047093A104809320
:100F1000A2049093A3046BE171E08091E0049091AE
:100F2000E1040E941E076AE070E080E090E00E9409
:100F30001D0581E08093B4040E94F0030091A00499
:100F40001091A1042091A2043091A304DC01CB01F3
:100F5000801B910BA20BB30B82339105A105B10548
:100F600070F442E350E060E070E04A015B01881AEF
:100F7000990AAA0ABB0AC501B4010E941D050E9474
:100F8000F0036093A0047093A1048093A204909353
:100F9000A3046DE271E08091E0049091E1040E946D
:100FA0001E0764E371E08091E0049091E1040E94E7
:100FB0001E0764E371E08091E0049091E1040E94D7
:100FC0001E0764E371E08091E0049091E1040E94C7
:100FD0001E0764E371E08091E0049091E1040E94B7
:100FE0001E0766E371E08091E0049091E1040E94A5
:100FF0001E076AE070E080E090E00E941D050E94FC
:10100000D6041092040182E18093050181E180936E
:10101000060180E1809307018FE08093080182E15F
:101020000E94FE04809106010E94FE048091070147
:101030000E94FE04809108010E94FE0460E08091FD
:1010400005010E948D0360E0809106010E948D03DE
:1010500060E0809107010E948D0360E080910801AB
:101060000E948D031092460210924702109248028D
:101070001092490210924A0210924B0210924C02B6
:1010800010924D021092900210928C0210928D02DA
:1010900010928E0210928F0210924F0210924E0206
:1010A000E0E5F2E01192119202E0EC38F007D1F79E
:1010B00084E89EE4A0E0B0E08093910290939202D5
:1010C000A0939302B09394028CEA94E8A1E0B0E07C
:1010D0008093950290939602A0939702B093980202
:1010E0001092DB021092D7021092D8021092D9020D
:1010F0001092DA0210929A0210929902EBE9F2E051
:101100001192119212E0E73DF107D1F780EB99E5DA
:10111000AFE0B0E08093DC029093DD02A093DE02AA
:10112000B093DF0288ED9FE2A7E0B0E08093E00299
:101130009093E102A093E202B093E302109226039F
:10114000109222031092230310922403109225037D
:101150001092E5021092E402E6EEF2E01192119292
:1011600023E0E232F207D1F780E79AE3AFE0B0E0A4
:101170008093270390932803A0932903B0932A0315
:1011800088E098E2A7E0B0E080932B0390932C03D3
:10119000A0932D03B0932E0381E0809371031092EE
:1011A0006D0310926E0310926F03109270031092F1
:1011B000300310922F03E1E3F3E01192119233E038
:1011C000ED36F307D1F780EB9AE6A1E2B0E0809329
:1011D000720390937303A0937403B093750388E034
:1011E00098E2A7E0B0E08093760390937703A09312
:1011F0007803B09379031092BC031092B803109255
:10120000B9031092BA031092BB0310927B031092A1
:101210007A03ECE7F3E01192119283E0E83BF807E0
:10122000D1F780EB9AE6A1E2B0E08093BD03909302
:10123000BE03A093BF03B093C00388E098E2A7E089
:10124000B0E08093C1039093C203A093C303B09313
:10125000C403109207041092030410920404109225
:101260000504109206041092C6031092C503E7EC21
:10127000F3E01192119204E0E330F007D1F784E833
:101280009EE4A0E0B0E08093080490930904A0934A
:101290000A04B0930B0480E398E8A1E0B0E08093E7
:1012A0000C0490930D04A0930E04B0930F041092BD
:1012B000520410924E0410924F0410925004109257
:1012C00051041092110410921004E2E1F4E0119222
:1012D000119214E0EE34F107D1F788EE9EE4A0E01D
:1012E000B0E08093530490935404A0935504B093BA
:1012F00056048CEC97E8A1E0B0E0809357049093FB
:101300005804A0935904B0935A0410929D0410926B
:10131000990410929A0410929B0410929C041092CB
:101320005C0410925B04EDE5F4E01192119224E06C
:10133000E939F207D1F72EE1E22EF12C06E412E0B2
:101340008BE7C82E81E0D82EC0E0D0E0CE010E940D
:10135000CA05AC0160E070E0C8010E94F001F6012E
:10136000819391936F01055B1F4F2196C830D10582
:1013700069F7F1E0EF1AF10809F794EFC92EDD24BF
:10138000D394E12CF12C0E94F0030091A50110915F
:10139000A6012091A7013091A801DC01CB01801B9F
:1013A000910BA20BB30B86399105A105B10508F489
:1013B00070C00E94F0036093A5017093A601809312
:1013C000A7019093A80161E070E080E090E00E94A6
:1013D0001D050E94F0036093A0047093A104809304
:1013E000A2049093A3046DE271E08091E0049091D7
:1013F000E1040E941E0764E371E08091E004909193
:10140000E1040E941E0764E371E08091E004909182
:10141000E1040E941E07C0E08C2F0E94D903AC019A
:101420008091E0049091E104052E000C660B770B8F
:1014300077FF03C00E948D0503C02AE00E94440587
:1014400068E471E08091E0049091E1040E941E073D
:10145000CF5FC63009F764E371E08091E0049091BA
:10146000E1040E941E0764E371E08091E004909122
:10147000E1040E941E0766E371E08091E004909110
:10148000E1040E941E0761E070E080E090E00E94AD
:101490001D050E94F003672B682B692B41F40E9405
:1014A000F003623071058105910508F404C10E94C2
:1014B000F0036093A1017093A2018093A301909324
:1014C000A40100919D0110919E0120919F013091F6
:1014D000A001601771078207930740F460939D0194
:1014E00070939E0180939F019093A00100919D01B4
:1014F00010919E0120919F013091A0014B015C0150
:10150000801A910AA20AB30A950184010A3F1105C3
:101510002105310508F4CFC060939D0170939E01B1
:1015200080939F019093A001C092AC04D092AD042F
:10153000E092AE04F092AF041092B0041092B104A5
:101540001092B2041092B3048091A4049091A50467
:10155000A091A604B091A7048093A8049093A90435
:10156000A093AA04B093AB040E94F0036093A40478
:101570007093A5048093A6049093A7040E94F0039F
:101580006093A0047093A1048093A2049093A30499
:101590000E94F0034B015C016FE371E08091E00475
:1015A0009091E1040E941E072AE041E050E060E0D3
:1015B00070E08091E0049091E1040E94440566E4AB
:1015C00071E08091E0049091E1040E941E072AE0FE
:1015D000B501A4018091E0049091E1040E944405CA
:1015E00068E471E08091E0049091E1040E941E079C
:1015F0008091A4049091A504A091A604B091A704A1
:10160000B501A401481B590B6A0B7B0B2AE08091A2
:10161000E0049091E1040E94440568E471E0809147
:10162000E0049091E1040E941E074091A4045091AF
:10163000A5046091A6047091A7048091A8049091DC
:10164000A904A091AA04B091AB04481B590B6A0BE2
:101650007B0B2AE08091E0049091E1040E94440514
:1016600064E371E08091E0049091E1040E941E0720
:101670000E94F003AB01BC012AE08091E00490914C
:10168000E1040E9444056AE471E08091E0049091D5
:10169000E1040E94B60565E070E080E090E00E9401
:1016A0001D050E94F0036093A4047093A504809329
:1016B000A6049093A7042AE04FE050E060E070E0B9
:1016C00089EA91E00E94440561E571E089EA91E0D0
:1016D0000E941E0762E571E089EA91E00E94B6056A
:1016E0008FE090E00E94CA05AC0160E070E086E403
:1016F00092E00E94F001AC0160E070E02AE089EA2B
:1017000091E00E94440561E571E089EA91E00E9460
:101710001E0762E571E089EA91E00E94B60562E584
:1017200071E089EA91E00E94B6050E946C012BCE1F
:101730001092AC011092AB0188EE93E0A0E0B0E013
:101740008093AD019093AE01A093AF01B093B0012F
:101750008DE091E09093AA018093A90185EC90E03F
:101760009093B6018093B50184EC90E09093B8011A
:101770008093B70180EC90E09093BA018093B90117
:1017800081EC90E09093BC018093BB0182EC90E0EF
:101790009093BE018093BD0186EC90E09093C001D0
:1017A0008093BF011092C2011092C3011092C40134
:1017B0001092C501E6E4F2E01082118212821382D7
:1017C000148215821682178211861086DF01AA5BA9
:1017D000BF4F1D921D921D921C92139714961C923E
:1017E000E55BFF4F84E0EE39F80731F71092A4046F
:1017F0001092A5041092A6041092A7041092A804B7
:101800001092A9041092AA041092AB041092AC0496
:101810001092AD041092AE041092AF041092B00476
:101820001092B1041092B2041092B3040895DB0137
:101830008F939F930E94490CBF91AF91A29F800DFF
:10184000911DA39F900DB29F900D11240895A1E2C8
:101850001A2EAA1BBB1BFD010DC0AA1FBB1FEE1F2A
:10186000FF1FA217B307E407F50720F0A21BB30B75
:10187000E40BF50B661F771F881F991F1A9469F7F1
:1018800060957095809590959B01AC01BD01CF014D
:1018900008950E94540CA59F900DB49F900DA49F95
:1018A000800D911D11240895A29FB001B39FC00126
:1018B000A39F700D811D1124911DB29F700D811D7C
:1018C0001124911D0895AA1BBB1B51E107C0AA1F3B
:1018D000BB1FA617B70710F0A61BB70B881F991FD1
:1018E0005A95A9F780959095BC01CD010895EE0F0A
:1018F000FF1F0590F491E02D099481E090E0F894A9
:081900000C94820CF894FFCF57
:101908009B019B01FFFFFFFFFF0000000003019404
:10191800049B004A01CC00AA00BE00564D44505614
:101928005F317C315F564D4450560D0A00564D4488
:1019380050525F007C005F564D4450520D0A0056CD
:101948004D4450455F003A323A005F564D44504589
:101958000009004552524F523A20496E76616C692F
:1019680064204D7578204368616E6E656C2049442B
:0219780000006D
:107E0000112484B714BE81FFF0D085E080938100F7
:107E100082E08093C00088E18093C10086E0809377
:107E2000C20080E18093C4008EE0C9D0259A86E02C
:107E300020E33CEF91E0309385002093840096BBD3
:107E4000B09BFECF1D9AA8958150A9F7CC24DD24C4
:107E500088248394B5E0AB2EA1E19A2EF3E0BF2EE7
:107E6000A2D0813461F49FD0082FAFD0023811F036
:107E7000013811F484E001C083E08DD089C08234E0
:107E800011F484E103C0853419F485E0A6D080C0E4
:107E9000853579F488D0E82EFF2485D0082F10E0AE
:107EA000102F00270E291F29000F111F8ED06801E7
:107EB0006FC0863521F484E090D080E0DECF843638
:107EC00009F040C070D06FD0082F6DD080E0C81688
:107ED00080E7D80618F4F601B7BEE895C0E0D1E017
:107EE00062D089930C17E1F7F0E0CF16F0E7DF06D8
:107EF00018F0F601B7BEE89568D007B600FCFDCFD4
:107F0000A601A0E0B1E02C9130E011968C91119780
:107F100090E0982F8827822B932B1296FA010C0160
:107F200087BEE89511244E5F5F4FF1E0A038BF0790
:107F300051F7F601A7BEE89507B600FCFDCF97BE46
:107F4000E89526C08437B1F42ED02DD0F82E2BD052
:107F50003CD0F601EF2C8F010F5F1F4F84911BD097
:107F6000EA94F801C1F70894C11CD11CFA94CF0C13
:107F7000D11C0EC0853739F428D08EE10CD085E9AC
:107F80000AD08FE07ACF813511F488E018D01DD067
:107F900080E101D065CF982F8091C00085FFFCCF94
:107FA0009093C60008958091C00087FFFCCF809118
:107FB000C00084FD01C0A8958091C6000895E0E648
:107FC000F0E098E1908380830895EDDF803219F02E
:107FD00088E0F5DFFFCF84E1DECF1F93182FE3DFCA
:107FE0001150E9F7F2DF1F91089580E0E8DFEE27F6
:047FF000FF270994CA
:027FFE00040479
:0400000300007E007B
:00000001FF