:100000000C9464000C940B030C94E4020C948C008C
:100010000C948C000C948C000C948C000C948C0030
:100020000C948C000C948C000C948C000C948C0020
:100030000C948C000C948C000C948C000C948C0010
:100040000C949A020C948C000C94F9010C94D3013A
:100050000C948C000C948C000C948C000C948C00F0
:100060000C948C000C948C0032053F05490560050A
:100070006A057C058B0500000008000201000003F2
:100080000407000000000000000000000000250040
:1000900028002B0000000000240027002A00040490
:1000A0000404040404040202020202020303030320
:1000B00003030102040810204080010204081020FC
:1000C000010204081020C10B11241FBECFEFD8E09D
:1000D000DEBFCDBF25E0A8E6B1E001C01D92A5328C
:1000E000B207E1F711E0A0E0B1E0E0E8F9E102C019
:1000F00005900D92A836B107D9F710E0C4E6D0E01C
:1001000004C02197FE010E94AC0CC336D107C9F789
:100110000E94FE060C94BE0C0C940000CF92DF925D
:10012000EF92FF920F931F93CF93DF936C017A01AD
:100130008B01C0E0D0E0CE15DF0589F0D8016D91CC
:100140008D01D601ED91FC910190F081E02DC60169
:100150000995892B11F47E0102C02196ECCFC701CD
:10016000DF91CF911F910F91FF90EF90DF90CF9093
:100170000895089580E090E00895FC01538D448D2A
:10018000252F30E0842F90E0821B930B541710F042
:10019000CF96089501970895FC01918D828D98174F
:1001A00061F0828DDF01A80FB11D5D968C91928D5B
:1001B0009F5F9F73928F90E008958FEF9FEF089558
:1001C000FC01918D828D981731F0828DE80FF11D21
:1001D000858D90E008958FEF9FEF0895FC01918D3C
:1001E000228D892F90E0805C9F4F821B91098F7335
:1001F0009927089586EA91E00E94EE0021E0892B7C
:1002000009F420E0822F0895FC01848DDF01A80FFE
:10021000B11DA35ABF4F2C91848D90E001968F732E
:100220009927848FA689B7892C93A089B1898C914D
:1002300080648C93938D848D981306C00288F38913
:10024000E02D80818F7D80830895EF92FF920F9340
:100250001F93CF93DF93EC0181E0888F9B8D8C8D72
:10026000981305C0E889F989808185FD24C0F62EA0
:100270000B8D10E00F5F1F4F0F731127E02E8C8D39
:10028000E8120CC00FB607FCFACFE889F989808123
:1002900085FFF5CFCE010E940401F1CF8B8DFE01C9
:1002A000E80FF11DE35AFF4FF0820B8FEA89FB89BB
:1002B0008081806207C0EE89FF896083E889F989BF
:1002C00080818064808381E090E0DF91CF911F91F5
:1002D0000F91FF90EF900895CF93DF93EC01888DFD
:1002E0008823C9F0EA89FB89808185FD05C0A8893A
:1002F000B9898C9186FD0FC00FB607FCF5CF8081C0
:1003000085FFF2CFA889B9898C9185FFEDCFCE0109
:100310000E940401E7CFDF91CF91089580E090E043
:10032000892B29F00E94FA0081110C940000089595
:100330003FB7F89480916D0190916E01A0916F018B
:10034000B091700126B5A89B05C02F3F19F001960A
:10035000A11DB11D3FBFBA2FA92F982F8827820F4B
:10036000911DA11DB11DBC01CD0142E0660F771F9B
:10037000881F991F4A95D1F7089508956115710551
:1003800079F0FB0101900020E9F73197AF01461B9E
:10039000570BDC01ED91FC910280F381E02D099473
:1003A00080E090E008951F920F920FB60F921124F3
:1003B0002F933F934F935F936F937F938F939F936D
:1003C000AF93BF93EF93FF9386EA91E00E940401FD
:1003D000FF91EF91BF91AF919F918F917F916F911D
:1003E0005F914F913F912F910F900FBE0F901F90F3
:1003F00018951F920F920FB60F9211242F938F937F
:100400009F93EF93FF93E091B601F091B701808144
:10041000E091BC01F091BD0182FD12C090818091FC
:10042000BF018F5F8F732091C001821751F0E0915F
:10043000BF01F0E0EA55FE4F958F8093BF0101C0E8
:100440008081FF91EF919F918F912F910F900FBE1F
:100450000F901F90189590E0FC01EA58FF4F3491DF
:10046000FC01EE54FF4F2491FC01E256FF4FE49152
:10047000EE2309F43BC0332339F1333091F038F4E3
:100480003130A9F0323001F584B58F7D12C037309C
:1004900091F03830A1F03430B9F4809180008F7D34
:1004A00003C0809180008F77809380000DC084B559
:1004B0008F7784BD09C08091B0008F7703C0809191
:1004C000B0008F7D8093B000F0E0EE0FFF1FE65785
:1004D000FF4FA591B4918FB7F894EC91611103C0CF
:1004E00020952E2301C02E2B2C938FBF08958E3084
:1004F00008F08E508770806480937C0080917A0031
:10050000806480937A0080917A0086FDFCCF809190
:1005100078002091790090E0922B08952FB7F894FD
:100520006091690170916A0180916B0190916C01F9
:100530002FBF08951F920F920FB60F9211242F9381
:100540003F938F939F93AF93BF9380916901909155
:100550006A01A0916B01B0916C013091680123E0B8
:10056000230F2D3720F40196A11DB11D05C026E8EB
:10057000230F0296A11DB11D20936801809369018C
:1005800090936A01A0936B01B0936C0180916D010F
:1005900090916E01A0916F01B09170010196A11D23
:1005A000B11D80936D0190936E01A0936F01B09384
:1005B0007001BF91AF919F918F913F912F910F90BB
:1005C0000FBE0F901F9018951F920F920FB60F92AB
:1005D00011242F933F934F935F936F937F938F9348
:1005E0009F93AF93BF93EF93FF93E0910201F0913C
:1005F00003010995FF91EF91BF91AF919F918F9169
:100600007F916F915F914F913F912F910F900FBE0E
:100610000F901F9018951F920F920FB60F921124F2
:100620002F933F934F935F936F937F938F939F93FA
:10063000AF93BF93EF93FF93E0910001F09101011D
:100640000995FF91EF91BF91AF919F918F917F910C
:100650006F915F914F913F912F910F900FBE0F902F
:100660001F9018958F929F92AF92BF92CF92DF9278
:10067000EF92FF928EE480937C000E9498016B01C0
:100680007C0192E0892E912CA12CB12C0E94980122
:10069000DC01CB018C199D09AE09BF09883E93404E
:1006A000A105B10598F328EEC20E23E0D21EE11C8D
:1006B000F11C8A9489288A288B2829F0812C912C76
:1006C00054018394E3CF80917A00806480937A0010
:1006D00080917A0086FDFCCF20917800809179008E
:1006E00030E0382B032E000C440B550B6CEB7BE0F9
:1006F00081E190E00E945C0CC901FF90EF90DF90D7
:10070000CF90BF90AF909F908F9008950E94B90CAA
:10071000E6EAF1E0A089B18982E08C93A485B585F1
:100720001C92A685B7858FEC8C93108EA489B58911
:1007300086E08C93A289B3898C9180618C93A28985
:10074000B3898C9188608C93A289B3898C918068DD
:100750008C930288F389E02D80818F7D80830895BA
:1007600090E0FC01EE54FF4F2491FC01E256FF4F54
:100770008491882399F090E0880F991FFC01EC5632
:10078000FF4FA591B491FC01E657FF4F85919491DD
:100790008FB7F894EC91E22BEC938FBF08958F9272
:1007A0009F92AF92BF92CF92DF92EF92FF926B0136
:1007B0007C010E948E024B015C01C60ED71EE81E12
:1007C000F91E0E948E02681579058A059B0528F09E
:1007D000C616D706E806F906A0F7FF90EF90DF905F
:1007E000CF90BF90AF909F908F9008954F925F925F
:1007F0006F927F92EF92FF920F931F93CF93DF93AD
:10080000CDB7DEB7A1970FB6F894DEBF0FBECDBF50
:100810007C01FA01CB0119A2223008F42AE08E01F2
:100820000F5D1F4F422E512C612C712CBF01A30173
:1008300092010E945C0CF901CA01015011096A3051
:1008400014F4605D01C0695CD8016C93232B242BE8
:10085000252B61F7B801C7010E94BE01A1960FB612
:10086000F894DEBF0FBECDBFDF91CF911F910F91E6
:10087000FF90EF907F906F905F904F900895CF9290
:10088000DF92EF92FF920F931F93CF93DF93EC01D0
:100890006A017B01E881F9810190F081E02D6DE230
:1008A00009958C0144275527BA014C195D096E0939
:1008B0007F092AE0CE010E94F603800F911FDF918D
:1008C000CF911F910F91FF90EF90DF90CF900895FF
:1008D0000F931F93CF93DF93EC010E94BE018C0115
:1008E0006CE371E0CE010E94BE01800F911FDF9189
:1008F000CF911F910F9108952F923F924F925F9247
:100900006F927F928F929F92AF92BF92CF92DF921F
:10091000EF92FF920F931F93CF93DF93CDB7DEB784
:1009200060970FB6F894DEBF0FBECDBF85E00E9482
:1009300077025C01E0914702F0914802EE0FFF1F41
:10094000E75BFD4F20813181809143029091440209
:10095000A0914502B0914602821B930BA109B109F7
:100960008093430290934402A0934502B0934602C1
:100970000E9432038C010E94320340914702509141
:100980004802292F26952695269530E0FA01EE0F8C
:10099000FF1FE75BFD4FC080D180E12CF12CC20E20
:1009A000D31EE11CF11C9801D5010E94B20CDC01A0
:1009B000CB011AE0B695A795979587951A95D1F72B
:1009C000C80ED91EEA1EFB1ED182C082EE24FF246F
:1009D0008091430290914402A0914502B091460259
:1009E000C80ED91EEA1EFB1EC0924302D0924402DA
:1009F000E0924502F0924602CA0101966EE170E073
:100A00000E94980C9093480280934702C701B60158
:100A10002EE130E040E050E00E945C0C30937E011B
:100A200020937D010BECC02E02E0D02E25E832E0B1
:100A3000388B2F8746E851E05A834983E12CF12C0B
:100A40008BE4382EF7013197E730F10528F4EC5CA0
:100A5000FF4F61E00C94AC0C809104010E9477027E
:100A60008C017BC0809105010E942B0280910401C2
:100A70000E9477028C0160E0809105016CC080913A
:100A800006010E942B02809104010E9477028C01D2
:100A900013C0809105010E942B0261E08091060144
:100AA0000E942B02809104010E9477028C0160E079
:100AB000809105010E942B0260E0809106014BC0ED
:100AC000809107010E942B02809104010E9477020D
:100AD0008C013EC0809105010E942B0261E0809153
:100AE00007010E942B02809104010E9477028C0171
:100AF00060E0809105012AC0809106010E942B02CE
:100B000061E0809107010E942B02809104010E9404
:100B100077028C0118C0809105010E942B0261E0D0
:100B2000809106010E942B0261E0809107010E94E2
:100B30002B02809104010E9477028C0160E0809179
:100B400005010E942B0260E0809106010E942B02A9
:100B500060E0809107010E942B02EF85F889808474
:100B60009184F5E08F0E911C880C991C3E9CC0016D
:100B70003F9C900D1124880D991D9C012B573D4FD2
:100B80004901F90180819181F601408151816281A1
:100B90007381481B590B610971094083518362833A
:100BA0007383EF85F889E65BFF4F2081EF85F88935
:100BB00084819581A681B781222309F45AC0892BAB
:100BC0008A2B8B2B01F50E9432035C010E943203B9
:100BD000792E0E9432037694769476947B821C82DE
:100BE0004B815C81481B590B9501D8010E94890CEF
:100BF000DC01CB017AE0B695A795979587957A9514
:100C0000D1F7BA0154C00E9432035C010E94320342
:100C1000292E0E943203EF85F88944805580668032
:100C200077802694269426942D821E824D815E81A3
:100C30009A0140E050E0281B390B410951092B87EC
:100C40003C874D875E879501D8010E94890CDC01A5
:100C5000CB016AE0B695A795979587956A95D1F7E8
:100C60002B853C854D855E85280F391F4A1F5B1FEC
:100C70004AC0892B8A2B8B2B01F50E9432035C0121
:100C80000E943203492F9501D8010E94890CDC0192
:100C9000CB015AE0B695A795979587955A95D1F7C8
:100CA0004695469546954F8318866F817885680FDF
:100CB000791FF4017183608339C00E9432035C01A3
:100CC0000E943203492FEF85F88944805580668061
:100CD00077809501D8010E94890CDC01CB013AE0B4
:100CE000B695A795979587953A95D1F746954695E8
:100CF000469549871A869C01AD01A984BA842A0DBC
:100D00003B1D411D511D80819181A281B381BC0198
:100D1000CD01640D751D861D971D0E944C0CA3010D
:100D200092010E945C0CF40131832083EF85F889E5
:100D300080859185AC014B5F5F4F440F551F3E9CF2
:100D400090013F9C300D1124240F351FF901EB5702
:100D5000FD4F20813181F601408151816281738193
:100D60004A015B01820E931EA11CB11C80829182FC
:100D7000A282B38201966EE170E00E94980CEF852A
:100D8000F88991878087C501B4012EE130E040E009
:100D900050E00E945C0CE981FA8121933193FA833F
:100DA000E983FBE4CF0ED11C2F853889255B3F4FAB
:100DB000388B2F87A7014F5F5F4F7A0158E0E51608
:100DC000F10409F03FCE60960FB6F894DEBF0FBE77
:100DD000CDBFDF91CF911F910F91FF90EF90DF90EA
:100DE000CF90BF90AF909F908F907F906F905F90CB
:100DF0004F903F902F9008950C94BE01789484B545
:100E0000826084BD84B5816084BD85B5826085BD06
:100E100085B5816085BD80916E00816080936E0094
:100E20001092810080918100826080938100809186
:100E30008100816080938100809180008160809337
:100E400080008091B10084608093B1008091B000F7
:100E500081608093B00080917A00846080937A00F2
:100E600080917A00826080937A0080917A0081601C
:100E700080937A0080917A00806880937A00109243
:100E8000C1001092210510922205109223051092A4
:100E900024051092DF041092E0041092E1041092F5
:100EA000E20468EB7BE080E090E00E94CF0386EAFA
:100EB00091E09093200580931F050E9488030E9473
:100EC0008E026093DF047093E0048093E1049093BA
:100ED000E2046BE171E080911F05909120050E9472
:100EE000FC066AE070E080E090E00E94CF0381E0C1
:100EF0008093F3040E948E02C090DF04D090E0043F
:100F0000E090E104F090E204DC01CB018C199D0932
:100F1000AE09BF0984369105A105B10570F444E618
:100F200050E060E070E08A019B01081B190B2A0B5E
:100F30003B0BC901B8010E94CF030E948E0260934F
:100F4000DF047093E0048093E1049093E2046DE287
:100F500071E080911F05909120050E94FC0664E3DA
:100F600071E080911F05909120050E94FC0664E3CA
:100F700071E080911F05909120050E94FC0664E3BA
:100F800071E080911F05909120050E94FC0664E3AA
:100F900071E080911F05909120050E94FC0666E398
:100FA00071E080911F05909120050E94FC066AE087
:100FB00070E080E090E00E94CF030E9488031092CE
:100FC000040182E18093050181E18093060180E1C3
:100FD000809307018FE08093080182E10E94B003B3
:100FE000809106010E94B003809107010E94B00326
:100FF000809108010E94B00360E0809105010E9489
:101000002B0260E0809106010E942B0260E080913B
:1010100007010E942B0260E0809108010E942B02D0
:101020001092850210928602109287021092880216
:101030001092890210928A0210928B0210928C02F6
:101040001092CF021092CB021092CC021092CD02DD
:101050001092CE0210928E0210928D02EFE8F2E012
:101060001192119212E0EB3CF107D1F784E89EE473
:10107000A0E0B0E08093D0029093D102A093D2027E
:10108000B093D3028CEA94E8A1E0B0E08093D4025C
:101090009093D502A093D602B093D70210921A0370
:1010A000109216031092170310921803109219034E
:1010B0001092D9021092D802EAEDF2E01192119248
:1010C00023E0E631F207D1F780EB99E5AFE0B0E03D
:1010D00080931B0390931C03A0931D03B0931E03E6
:1010E00088ED9FE2A7E0B0E080931F039093200378
:1010F000A0932103B0932203109265031092610321
:1011000010926203109263031092640310922403FE
:1011100010922303E5E2F3E01192119233E0E136FD
:10112000F307D1F780E79AE3AFE0B0E0809366037E
:1011300090936703A0936803B093690388E098E2F3
:10114000A7E0B0E080936A0390936B03A0936C03D5
:10115000B0936D0381E08093B0031092AC031092C2
:10116000AD031092AE031092AF0310926F03109272
:101170006E03E0E7F3E01192119243E0EC3AF407DA
:10118000D1F780EB9AE6A1E2B0E08093B1039093AF
:10119000B203A093B303B093B40388E098E2A7E04E
:1011A000B0E08093B5039093B603A093B703B093D8
:1011B000B8031092FB031092F7031092F8031092F9
:1011C000F9031092FA031092BA031092B903EBEBF1
:1011D000F3E01192119253E0E73FF507D1F780EB6E
:1011E0009AE6A1E2B0E08093FC039093FD03A09304
:1011F000FE03B093FF0388E098E2A7E0B0E080939D
:10120000000490930104A0930204B093030410928D
:101210004604109242041092430410924404109227
:1012200045041092050410920404E6E0F4E01192E3
:10123000119284E0E234F807D1F784E89EE4A0E05C
:10124000B0E08093470490934804A0934904B0937E
:101250004A0480E398E8A1E0B0E080934B049093C7
:101260004C04A0934D04B0934E041092910410923C
:101270008D0410928E0410928F041092900410929C
:10128000500410924F04E1E5F4E01192119204E051
:10129000ED38F007D1F788EE9EE4A0E0B0E080934F
:1012A000920490939304A0939404B09395048CECCF
:1012B00097E8A1E0B0E08093960490939704A09300
:1012C0009804B09399041092DC041092D804109200
:1012D000D9041092DA041092DB0410929B0410924D
:1012E0009A04ECE9F4E01192119214E0E83DF10760
:1012F000D1F71092430210924402109245021092CC
:1013000046021092480210924702E9E4F2E011927C
:10131000119222E0E538F207D1F7CEE1D0E00E9449
:101320007C042197E1F784EFC82EDD24D394E12CCF
:10133000F12C0E948E028090790190907A01A09009
:101340007B01B0907C01DC01CB0188199909AA09C5
:10135000BB0986399105A105B10508F470C00E944A
:101360008E026093790170937A0180937B01909350
:101370007C0161E070E080E090E00E94CF030E9479
:101380008E026093DF047093E0048093E1049093F5
:10139000E2046DE271E080911F05909120050E94AA
:1013A000FC0664E371E080911F05909120050E9486
:1013B000FC0664E371E080911F05909120050E9476
:1013C000FC06C0E08C2F0E947702AC0180911F05C3
:1013D00090912005052E000C660B770B77FF03C05C
:1013E0000E943F0403C02AE00E94F60368E471E013
:1013F00080911F05909120050E94FC06CF5FC630AA
:1014000009F764E371E080911F05909120050E9427
:10141000FC0664E371E080911F05909120050E9415
:10142000FC0666E371E080911F05909120050E9403
:10143000FC0661E070E080E090E00E94CF030E9433
:101440008E02672B682B692B41F40E948E0262305A
:1014500071058105910508F405C10E948E02609313
:101460007501709376018093770190937801809055
:10147000710190907201A0907301B0907401681591
:1014800079058A059B0540F46093710170937201A0
:101490008093730190937401809071019090720118
:1014A000A0907301B09074018B019C010819190977
:1014B0002A093B09480159011AEF81169104A10438
:1014C000B10408F4CFC060937101709372018093EE
:1014D000730190937401C092EB04D092EC04E092FB
:1014E000ED04F092EE041092EF041092F0041092CA
:1014F000F1041092F2048091E3049091E404A0912D
:10150000E504B091E6048093E7049093E804A09387
:10151000E904B093EA040E948E026093E30470939E
:10152000E4048093E5049093E6040E948E026093A5
:10153000DF047093E0048093E1049093E2040E943E
:101540008E024B015C016FE371E080911F05909169
:1015500020050E94FC062AE041E050E060E070E0D7
:1015600080911F05909120050E94F60366E471E0CA
:1015700080911F05909120050E94FC062AE0B5018C
:10158000A40180911F05909120050E94F60368E454
:1015900071E080911F05909120050E94FC068091CA
:1015A000E3049091E404A091E504B091E604B50150
:1015B000A401481B590B6A0B7B0B2AE080911F0585
:1015C000909120050E94F60368E471E080911F0568
:1015D000909120050E94FC064091E3045091E404A0
:1015E0006091E5047091E6048091E7049091E8042D
:1015F000A091E904B091EA04481B590B6A0B7B0BDC
:101600002AE080911F05909120050E94F60364E373
:1016100071E080911F05909120050E94FC060E94B8
:101620008E02AB01BC012AE080911F05909120053C
:101630000E94F6036AE471E080911F0590912005F5
:101640000E94680465E070E080E090E00E94CF03B3
:101650000E948E026093E3047093E4048093E50497
:101660009093E6040E947C046CE571E086EA91E0C8
:101670000E94680461E571E086EA91E00E946804D6
:10168000812C912C54012AE0B501A40186EA91E055
:101690000E94F6036BE571E086EA91E00E94FC0689
:1016A0002FEF821A920AA20AB20A38E08316910436
:1016B000A104B10441F76CE571E086EA91E00E9473
:1016C0006804C6E8D1E04991599160E070E02AE0F1
:1016D00086EA91E00E94F6036BE571E086EA91E00C
:1016E0000E94FC0641E0C639D40769F76DE371E05A
:1016F00086EA91E00E9468046DE571E086EA91E077
:101700000E946804812C912C54012AE0B501A401A7
:1017100086EA91E00E94F6036BE571E086EA91E0CB
:101720000E94FC065FEF851A950AA50AB50A88E0B3
:1017300088169104A104B10441F76CE571E086EAD2
:1017400091E00E946804C6E9D1E04991599160E0B6
:1017500070E02AE086EA91E00E94F6036BE571E012
:1017600086EA91E00E94FC0601E0C63AD00769F7DC
:101770006DE371E086EA91E00E9468040E948E01A8
:10178000D8CD1092A9011092A80188EE93E0A0E0B4
:10179000B0E08093AA019093AB01A093AC01B09309
:1017A000AD018DE091E09093A7018093A60185ECB7
:1017B00090E09093B3018093B20184EC90E0909319
:1017C000B5018093B40180EC90E09093B7018093D1
:1017D000B60181EC90E09093B9018093B80182EC5E
:1017E00090E09093BB018093BA0186EC90E09093D7
:1017F000BD018093BC011092BF011092C0011092F4
:10180000C1011092C201E5E8F2E010821182128259
:101810001382148215821682178211861086DF01C8
:10182000AA5BBF4F1D921D921D921C921397149696
:101830001C92E55BFF4F84E0ED3DF80731F7109215
:1018400043021092440210924502109246021092F6
:101850004802109247021092E3041092E40410929E
:10186000E5041092E6041092E7041092E804109246
:10187000E9041092EA041092EB041092EC04109226
:10188000ED041092EE041092EF041092F004109206
:10189000F1041092F2040895DB018F939F930E944C
:1018A0007E0CBF91AF91A29F800D911DA39F900DC3
:1018B000B29F900D11240895A1E21A2EAA1BBB1B02
:1018C000FD010DC0AA1FBB1FEE1FFF1FA217B3070C
:1018D000E407F50720F0A21BB30BE40BF50B661F22
:1018E000771F881F991F1A9469F7609570958095E6
:1018F00090959B01AC01BD01CF0108950E94890C18
:10190000A59F900DB49F900DA49F800D911D112453
:101910000895A29FB001B39FC001A39F700D811DC8
:101920001124911DB29F700D811D1124911D0895E8
:10193000AA1BBB1B51E107C0AA1FBB1FA617B707F5
:1019400010F0A61BB70B881F991F5A95A9F7809511
:101950009095BC01CD010895EE0FFF1F0590F49105
:10196000E02D09940E94890CB7FF0895821B930B08
:10197000089581E090E0F8940C94BE0CF894FFCFA9
:10198000BD01BD01FFFFFFFFFF0000000025018E2C
:1019900000BD006C01EE00CC00E000564D445056F6
:1019A0005F317C315F564D4450560D0A00564D4410
:1019B00050525F007C005F564D4450520D0A005655
:1019C0004D4450455F003A323A005F564D44504511
:1019D00000566F6C74616765733A000900416D7061
:0819E0006572616765733A004E
:107E0000112484B714BE81FFF0D085E080938100F7
:107E100082E08093C00088E18093C10086E0809377
:107E2000C20080E18093C4008EE0C9D0259A86E02C
:107E300020E33CEF91E0309385002093840096BBD3
:107E4000B09BFECF1D9AA8958150A9F7CC24DD24C4
:107E500088248394B5E0AB2EA1E19A2EF3E0BF2EE7
:107E6000A2D0813461F49FD0082FAFD0023811F036
:107E7000013811F484E001C083E08DD089C08234E0
:107E800011F484E103C0853419F485E0A6D080C0E4
:107E9000853579F488D0E82EFF2485D0082F10E0AE
:107EA000102F00270E291F29000F111F8ED06801E7
:107EB0006FC0863521F484E090D080E0DECF843638
:107EC00009F040C070D06FD0082F6DD080E0C81688
:107ED00080E7D80618F4F601B7BEE895C0E0D1E017
:107EE00062D089930C17E1F7F0E0CF16F0E7DF06D8
:107EF00018F0F601B7BEE89568D007B600FCFDCFD4
:107F0000A601A0E0B1E02C9130E011968C91119780
:107F100090E0982F8827822B932B1296FA010C0160
:107F200087BEE89511244E5F5F4FF1E0A038BF0790
:107F300051F7F601A7BEE89507B600FCFDCF97BE46
:107F4000E89526C08437B1F42ED02DD0F82E2BD052
:107F50003CD0F601EF2C8F010F5F1F4F84911BD097
:107F6000EA94F801C1F70894C11CD11CFA94CF0C13
:107F7000D11C0EC0853739F428D08EE10CD085E9AC
:107F80000AD08FE07ACF813511F488E018D01DD067
:107F900080E101D065CF982F8091C00085FFFCCF94
:107FA0009093C60008958091C00087FFFCCF809118
:107FB000C00084FD01C0A8958091C6000895E0E648
:107FC000F0E098E1908380830895EDDF803219F02E
:107FD00088E0F5DFFFCF84E1DECF1F93182FE3DFCA
:107FE0001150E9F7F2DF1F91089580E0E8DFEE27F6
:047FF000FF270994CA
:027FFE00040479
:0400000300007E007B
:00000001FF