:100000000C946D000C948C050C9465050C94DC0B21
:100010000C94840B0C941E0B0C9495000C9495007E
:100020000C9495000C9495000C9495000C949500FC
:100030000C9495000C9495000C9495000C949500EC
:100040000C941B050C9495000C941C020C94F60166
:100050000C9495000C9495000C9495000C949500CC
:100060000C9495000C949500DE06E406F206FD065D
:1000700015072007330743076507700783079307B2
:10008000B007C007D807ED070000000024002700D4
:100090002A0000000000250028002B0004040404AE
:1000A0000404040402020202020203030303030322
:1000B00001020408102040800102040810200102FF
:1000C00004081020000000080002010000030407DB
:1000D0000000000000000000FC1111241FBECFEF43
:1000E000D8E0DEBFCDBF11E0A0E0B1E0E4E3FCE288
:1000F00002C005900D92AA3DB107D9F726E0AAEDFE
:10010000B1E001C01D92AF38B207E1F710E0CDE6D3
:10011000D0E004C02197FE010E94F315CC36D10730
:10012000C9F70E945A0C0C9418160C9400000895FC
:1001300080E090E00895FC01538D448D252F30E040
:10014000842F90E0821B930B541710F0CF960895E4
:1001500001970895FC01918D828D981761F0828D31
:10016000DF01A80FB11D5D968C91928D9F5F9F73EB
:10017000928F90E008958FEF9FEF0895FC01918D8D
:10018000828D981731F0828DE80FF11D858D90E0FA
:1001900008958FEF9FEF0895FC01918D228D892F97
:1001A00090E0805C9F4F821B91098F73992708957F
:1001B00083E192E00E94CC0021E0892B09F420E049
:1001C000822F0895FC01848DDF01A80FB11DA35A71
:1001D000BF4F2C91848D90E001968F739927848F67
:1001E000A689B7892C93A089B1898C9180648C935E
:1001F000938D848D981306C00288F389E02D808149
:100200008F7D80830895EF92FF920F931F93CF937A
:10021000DF93EC0181E0888F9B8D8C8D981305C056
:10022000E889F989808185FD24C0F62E0B8D10E0C8
:100230000F5F1F4F0F731127E02E8C8DE8120CC03B
:100240000FB607FCFACFE889F989808185FFF5CFE1
:10025000CE010E94E200F1CF8B8DFE01E80FF11D6F
:10026000E35AFF4FF0820B8FEA89FB89808180621D
:1002700007C0EE89FF896083E889F98980818064FD
:10028000808381E090E0DF91CF911F910F91FF90EB
:10029000EF900895CF93DF93EC01888D8823C9F008
:1002A000EA89FB89808185FD05C0A889B9898C917F
:1002B00086FD0FC00FB607FCF5CF808185FFF2CF1A
:1002C000A889B9898C9185FFEDCFCE010E94E2000B
:1002D000E7CFDF91CF91089580E090E0892B29F05E
:1002E0000E94D80081110C9400000895CF93DF93F1
:1002F00090E0FC01E055FF4F2491FC01E456FF4FD4
:100300008491882361F190E0880F991FFC01E857E0
:10031000FF4FC591D491FC01EE56FF4FA591B491CA
:10032000611109C09FB7F894888120958223888342
:10033000EC912E230BC0623061F49FB7F8943881A2
:10034000822F809583238883EC912E2B2C939FBF43
:1003500006C08FB7F894E8812E2B28838FBFDF91DA
:10036000CF9108953FB7F8948091E6019091E7010D
:10037000A091E801B091E90126B5A89B05C02F3FE7
:1003800019F00196A11DB11D3FBFBA2FA92F982FBB
:100390008827820F911DA11DB11DBC01CD0142E036
:1003A000660F771F881F991F4A95D1F70895089502
:1003B000E091DF01F091E0018581968101969683BD
:1003C00085830895E091DD01F091DE0185819681BC
:1003D0000196968385830895E091DB01F091DC011D
:1003E0008581968101969683858308951F920F9249
:1003F0000FB60F9211242F933F934F935F936F93F8
:100400007F938F939F93AF93BF93EF93FF9383E17A
:1004100092E00E94E200FF91EF91BF91AF919F9116
:100420008F917F916F915F914F913F912F910F909D
:100430000FBE0F901F9018951F920F920FB60F923C
:1004400011242F938F939F93EF93FF93E0912302B7
:10045000F09124028081E0912902F0912A0282FD2C
:1004600012C0908180912C028F5F8F7320912D029A
:10047000821751F0E0912C02F0E0ED5EFD4F958F78
:1004800080932C0201C08081FF91EF919F918F9109
:100490002F910F900FBE0F901F90189590E0FC01C8
:1004A000EC53FF4F3491FC01E055FF4F2491FC01C8
:1004B000E456FF4FE491EE2309F43BC0332339F1B6
:1004C000333091F038F43130A9F0323001F584B591
:1004D0008F7D12C0373091F03830A1F03430B9F44C
:1004E000809180008F7D03C0809180008F77809302
:1004F00080000DC084B58F7784BD09C08091B000A5
:100500008F7703C08091B0008F7D8093B000F0E0C2
:10051000EE0FFF1FEE56FF4FA591B4918FB7F894E1
:10052000EC91611103C020952E2301C02E2B2C933A
:100530008FBF08951F93CF93DF93182FEB0161E0D6
:100540000E947601209711F460E004C0CF3FD105EE
:1005500039F461E0812FDF91CF911F910C944E020D
:10056000E12FF0E0EC53FF4FE491E330F9F048F471
:10057000E130B9F0E230A1F584B5806284BDC8BD38
:1005800034C0E730E9F0E83019F1E43049F5809102
:100590008000806280938000D0938B00C0938A009B
:1005A00024C084B5806884BDC7BD1FC08091800011
:1005B000806880938000D0938900C093880015C024
:1005C0008091B00080688093B000C093B3000DC0EC
:1005D0008091B00080628093B000C093B40005C0E9
:1005E000C038D1050CF0B5CFAFCFDF91CF911F91BF
:1005F0000895CF93DF93EC01842F6883663158F41C
:10060000683030F06E3008F4F0C16E5098E001C0F0
:1006100090E1690F01C06FEF69838A8361E00E94F6
:10062000760162E088810E947601FE013D96CE014E
:10063000875B9F4F11921192E817F907D9F71C8237
:1006400060E070E08A810E949A028091DA018B83D7
:10065000E82FF0E0EE0FFF1FE552FE4FD183C0837D
:10066000813009F477C020F0823009F4E5C0B5C1CB
:100670009981892F869586958695F9F4911103C005
:100680002CEE31E0E3C0913019F42CEE31E0E7C0FC
:10069000923019F42CEE31E0EBC0933019F42CEECB
:1006A00031E0EFC0943019F42CEE31E0F3C0953016
:1006B00009F082C12CEE31E0F7C08130F9F49830B6
:1006C00019F42CEE31E0FBC0993019F42CEE31E036
:1006D000FFC09A3019F42CEE31E003C19B3019F4BD
:1006E0002CEE31E007C19C3019F42CEE31E00BC147
:1006F0009D3009F061C12CEE31E00FC1823009F06C
:100700006CC1903119F42CEE31E013C1913119F420
:100710002CEE31E017C1923119F42CEE31E01BC1FF
:10072000933119F42CEE31E01FC1943119F42CEE01
:1007300031E023C1953119F42CEE31E027C1963117
:1007400019F42CEE31E02BC1973109F035C12CEEB4
:1007500031E02EC19981892F869586958695F9F489
:10076000911103C022EE31E071C0913019F422EEF4
:1007700031E075C0923019F422EE31E079C0933047
:1007800019F422EE31E07DC0943019F422EE31E00C
:1007900081C0953009F010C122EE31E085C0813072
:1007A000F9F4983019F422EE31E089C0993019F447
:1007B00022EE31E08DC09A3019F422EE31E091C082
:1007C0009B3019F422EE31E095C09C3019F422EEF2
:1007D00031E099C09D3009F0EFC022EE31E09DC0BC
:1007E000823009F0FAC0903119F422EE31E0A1C054
:1007F000913119F422EE31E0A5C0923119F422EEC4
:1008000031E0A9C0933119F422EE31E0ADC094314A
:1008100019F422EE31E0B1C0953119F422EE31E045
:10082000B5C0963119F422EE31E0B9C0973109F024
:10083000C3C022EE31E0BCC09981892F8695869590
:100840008695B9F5911107C028ED31E030930A0182
:1008500020930901B1C0913039F428ED31E0309393
:100860000C0120930B01A8C0923039F428ED31E03F
:1008700030930E0120930D019FC0933039F428ED81
:1008800031E03093100120930F0196C0943039F479
:1008900028ED31E030931201209311018DC0953085
:1008A00009F08AC028ED31E0309314012093130140
:1008B00083C08130B9F5983039F428ED31E03093B8
:1008C00016012093150178C0993039F428ED31E0F4
:1008D00030931801209317016FC09A3039F428ED36
:1008E00031E030931A012093190166C09B3039F42E
:1008F00028ED31E030931C0120931B015DC09C303A
:1009000039F428ED31E030931E0120931D0154C0CD
:100910009D3009F051C028ED31E030932001209343
:100920001F014AC0823009F058C0903139F428EDD7
:1009300031E030932A01209329013EC0913139F4EE
:1009400028ED31E030932C0120932B0135C09231FA
:1009500039F428ED31E030932E0120932D012CC085
:10096000933139F428ED31E03093300120932F0199
:1009700023C0943139F428ED31E0309322012093E3
:1009800021011AC0953139F428ED31E0309324016A
:100990002093230111C0963139F428ED31E03093D2
:1009A00026012093250108C0973131F428ED31E06C
:1009B0003093280120932701977061E070E001C017
:1009C000660F9A95EAF7E82FF0E0E757F94F908124
:1009D000962B9083482F0E94340C8091DA018F5F10
:1009E0008093DA01DF91CF910895685090E011CEA5
:1009F0008E3008F08E508770806480937C008091E8
:100A00007A00806480937A0080917A0086FDFCCF22
:100A1000809178002091790090E0922B08952FB773
:100A2000F8946091E2017091E3018091E40190916A
:100A3000E5012FBF08951F920F920FB60F92112458
:100A40002F933F938F939F93AF93BF938091E20136
:100A50009091E301A091E401B091E5013091E101B1
:100A600023E0230F2D3720F40196A11DB11D05C0F1
:100A700026E8230F0296A11DB11D2093E10180936A
:100A8000E2019093E301A093E401B093E50180912A
:100A9000E6019091E701A091E801B091E90101968A
:100AA000A11DB11D8093E6019093E701A093E80199
:100AB000B093E901BF91AF919F918F913F912F9199
:100AC0000F900FBE0F901F9018951F920F920FB6A8
:100AD0000F9211242F933F934F935F936F937F93C4
:100AE0008F939F93AF93BF93EF93FF93E091020196
:100AF000F09103010995FF91EF91BF91AF919F9103
:100B00008F917F916F915F914F913F912F910F90B6
:100B10000FBE0F901F9018951F920F920FB60F9255
:100B200011242F933F934F935F936F937F938F93F2
:100B30009F93AF93BF93EF93FF93E0910001F091E8
:100B400001010995FF91EF91BF91AF919F918F9115
:100B50007F916F915F914F913F912F910F900FBEB9
:100B60000F901F9018958F929F92AF92BF92CF9245
:100B7000DF92EF92FF920F931F93CF93DF93EC01DD
:100B80000E940F052F813885AB01421B530B8E014C
:100B9000075B1F4F4115510509F478C08981382F33
:100BA0003695369536953330B0F4E32FF0E0E559BD
:100BB000FF4F6081282F277081E090E0DC0101C0A9
:100BC000AA0F2A95EAF72A2F209526232083208131
:100BD000222309F450C0EB84FC846701CC0CDD1C9B
:100BE000CC0EDD1EF60185859685F801808091800A
:100BF000A280B380881A990AA108B1082D813E818C
:100C0000A0E3B5E70E94F9159A0140E050E00E9488
:100C1000D115F601368725871E821D82DA01C901AA
:100C2000AA27BB27880E991EAA1EBB1EF801808228
:100C30009182A282B382C70101966EE170E00E94A8
:100C4000BD159C878B870E940F056F8378878987E6
:100C50009A879981892F8695869586958330B0F4F9
:100C6000977061E070E001C0660F9A95EAF7482F2F
:100C70000E94340C0BC02091680001C0880F3A9587
:100C8000EAF78095822380936800A5CFF801608100
:100C90007181828193812EE130E040E050E00E943A
:100CA000D115C901DF91CF911F910F91FF90EF9066
:100CB000DF90CF90BF90AF909F908F9008958F92CC
:100CC0009F92AF92BF92CF92DF92EF92FF928EE40B
:100CD00080937C000E94B2016B017C0192E0892E1E
:100CE000912CA12CB12C0E94B201DC01CB018C19FA
:100CF0009D09AE09BF09883E9340A105B10598F34F
:100D000028EEC20E23E0D21EE11CF11C8A94892831
:100D10008A288B2829F0812C912C54018394E3CFCD
:100D200080917A00806480937A0080917A0086FDB9
:100D3000FCCF209178008091790030E0382B032E91
:100D4000000C440B550B6CEB7BE081E190E00E94C2
:100D5000D115C901FF90EF90DF90CF90BF90AF9079
:100D60009F908F900895009769F0FC0101900020FA
:100D7000E9F73197AF01481B590BBC0183E192E0C1
:100D80000C94F00A80E090E00895CF93DF930E94E6
:100D9000B306EC0188EB91E00E94B3068C0F9D1F17
:100DA000DF91CF910895CF93DF938031910508F0C3
:100DB00042C1FC01EC5CFF4F0C94F31580910401DF
:100DC000DF91CF910C94F80461E0809105010E94BD
:100DD0004E02809104010E94F804EC0160E08091D1
:100DE000050126C161E0809106010E944E028091BA
:100DF00004010E94F804EC0114C061E08091050137
:100E00000E944E0261E0809106010E944E02809194
:100E100004010E94F804EC0160E0809105010E9449
:100E20004E0260E08091060103C161E080910701FC
:100E30000E944E02809104010E94F804EC0141C01E
:100E400061E0809105010E944E0261E080910701FE
:100E50000E944E02809104010E94F804EC0160E0BF
:100E6000809105012CC061E0809106010E944E0234
:100E700061E0809107010E944E02809104010E946E
:100E8000F804EC0119C061E0809105010E944E0256
:100E900061E0809106010E944E0261E080910701AD
:100EA0000E944E02809104010E94F804EC0160E06F
:100EB000809105010E944E0260E0809106010E942F
:100EC0004E0260E080910701B3C061E080910801AB
:100ED0000E944E02809104010E94F804EC01A5C01A
:100EE00061E0809105010E944E0261E0809108015D
:100EF0000E944E02809104010E94F804EC0160E01F
:100F00008091050190C061E0809106010E944E022F
:100F100061E0809108010E944E02809104010E94CC
:100F2000F804EC0119C061E0809105010E944E02B5
:100F300061E0809106010E944E0261E0809108010B
:100F40000E944E02809104010E94F804EC0160E0CE
:100F5000809105010E944E0260E08091060163C00D
:100F600061E0809107010E944E0261E080910801DA
:100F70000E944E02809104010E94F804EC0150C0CE
:100F800061E0809105010E944E0261E080910701BD
:100F90000E944E0261E0809108010E944E02809101
:100FA00004010E94F804EC0160E08091050136C064
:100FB00061E0809106010E944E0261E0809107018C
:100FC0000E944E0261E0809108010E944E028091D1
:100FD00004010E94F804EC011EC061E0809105014B
:100FE0000E944E0261E0809106010E944E0261E083
:100FF000809107010E944E0261E0809108010E94E9
:101000004E02809104010E94F804EC0160E080919E
:1010100005010E944E0260E0809106010E944E028E
:1010200060E0809107010E944E0260E0809108011B
:101030000E944E0206C08BEB91E00E94C506C0E004
:10104000D0E0CE01DF91CF9108956F927F928F9281
:101050009F92AF92BF92CF92DF92EF92FF920F9347
:101060001F93CF93DF9300D000D0CDB7DEB79B01A5
:10107000AC0180EB682E82E0782ED3011496ED91BE
:10108000FC911597EE0FFF1FEA54FD4F60817181AF
:101090008D919D910D90BC91A02D861B970BA10960
:1010A000B109F30180839183A283B38329833A83B7
:1010B0004B835C830E945F065C010E945F06D30144
:1010C00014968D909C901597A92FA695A695A695F8
:1010D000B0E08401000F111F0A541D4FF801608118
:1010E00071816B01E12CF12CCA0EDB1EE11CF11C9D
:1010F000D50129813A814B815C810E940816DC016F
:10110000CB013AE0B695A795979587953A95D1F793
:101110008C0D9D1DAE1DBF1D91838083AA27BB270B
:10112000F3010081118122813381080F191F2A1FC9
:101130003B1F0083118322833383C40101966EE138
:1011400070E00E94BD1595838483C901B8012EE12A
:1011500030E040E050E00E94D115C9010F900F909F
:101160000F900F90DF91CF911F910F91FF90EF9013
:10117000DF90CF90BF90AF909F908F907F906F90B7
:1011800008952F923F924F925F926F927F928F922B
:101190009F92AF92BF92CF92DF92EF92FF920F9306
:1011A0001F93CF93DF93CDB7DEB760970FB6F89458
:1011B000DEBF0FBECDBF85E00E94F804BC01990FD1
:1011C000880B990B0E9425089093EB018093EA010C
:1011D0008091F6028093EC0182EF92E00E94B305C9
:1011E0009093EE018093ED018FE393E00E94B305AD
:1011F0009093F0018093EF018CE893E00E94B30597
:101200009093F2018093F101F7E6EF2EF4E0FF2EC8
:1012100021E234E0388B2F8743EF51E05A83498332
:1012200000E010E0ABE43A2EC8010E94D3066C0146
:10123000EF85F88980849184F5E08F0E911C880CED
:10124000991C309EC001319E900D1124880D991D6E
:101250009C012F5D3B4F4901F90180819181F7018C
:101260004081518162817381481B590B6109710969
:101270004083518362837383EF85F889E65BFF4F78
:101280002081EF85F88984819581A681B781222309
:1012900009F45AC0892B8A2B8B2B01F50E945F061B
:1012A0005C010E945F06792E0E945F067694769418
:1012B00076947B821C824B815C81481B590B950183
:1012C000D6010E94F915DC01CB017AE0B695A7950D
:1012D000979587957A95D1F7BA0154C00E945F0619
:1012E0005C010E945F06292E0E945F06EF85F88947
:1012F00044805580668077802694269426942D829B
:101300001E824D815E819A0140E050E0281B390B1E
:10131000410951092B873C874D875E879501D6018E
:101320000E94F915DC01CB016AE0B695A795979567
:1013300087956A95D1F72B853C854D855E85280F6D
:10134000391F4A1F5B1F4AC0892B8A2B8B2B01F543
:101350000E945F065C010E945F06492F9501D6013D
:101360000E94F915DC01CB015AE0B695A795979537
:1013700087955A95D1F74695469546954F83188699
:101380006F817885680F791FF4017183608339C09C
:101390000E945F065C010E945F06492FEF85F88975
:1013A00044805580668077809501D6010E94F915AA
:1013B000DC01CB013AE0B695A795979587953A95CC
:1013C000D1F746954695469549871A869C01AD0109
:1013D00069857A85260F371F411D511D80819181B6
:1013E000A281B381BC01CD01640D751D861D971DC1
:1013F0000E94AD15A30192010E94D115F401318321
:101400002083EF85F88980859185AC014B5F5F4F24
:10141000440F551F309E9001319E300D1124240F32
:10142000351FF901EF5DFB4F20813181F70180808D
:101430009180A280B380820E931EA11CB11C808279
:101440009182A282B38201966EE170E00E94BD1586
:10145000EF85F88991878087C501B4012EE130E0DE
:1014600040E050E00E94D115E981FA812193319347
:10147000FA83E983FBE4EF0EF11C2F853889255BA5
:101480003F4F388B2F870F5F1F4F0830110509F032
:10149000CBCE03E012E0E12CF12CC7010E94D30671
:1014A000F801119211928F01FFEFEF1AFF0A28E065
:1014B000E216F10491F760960FB6F894DEBF0FBE06
:1014C000CDBFDF91CF911F910F91FF90EF90DF90F3
:1014D000CF90BF90AF909F908F907F906F905F90D4
:1014E0004F903F902F9008950C94B3068F929F9247
:1014F000AF92BF920F931F93CF93DF93CDB7DEB719
:10150000A1970FB6F894DEBF0FBECDBF19A242302F
:1015100008F44AE08E010F5D1F4F842E912CA12C00
:10152000B12CA50194010E94D115E62FB901CA0181
:1015300001501109EA3014F4E05D01C0E95CD80102
:10154000EC93232B242B252B61F7C8010E94B306B3
:10155000A1960FB6F894DEBF0FBECDBFDF91CF913D
:101560001F910F91BF90AF909F908F900895E09141
:101570001302F09114020190F081E02D682F83E1B5
:1015800092E00994CF92DF92EF92FF92CF93DF9394
:101590006C01990FEE08FF08F7FE17C08DE20E945C
:1015A000B70AEC0166277727CB016C197D098E09F4
:1015B0009F094AE00E94760A8C0F9D1FDF91CF9110
:1015C000FF90EF90DF90CF9008954AE0C701B601F9
:1015D000DF91CF91FF90EF90DF90CF900C94760A3F
:1015E000CF92DF92EF92FF920F931F93CF93DF93EF
:1015F0006C017A018B01C0E0D0E0CE15DF0589F0E7
:10160000D8016D918D01D601ED91FC910190F08191
:10161000E02DC6010995892B11F47E0102C02196A7
:10162000ECCFC701DF91CF911F910F91FF90EF9009
:10163000DF90CF90089508950E9413161F920F9285
:101640000FB60F9211242F933F934F935F936F9395
:101650007F938F939F93AF93BF93CF93EF93FF931A
:1016600099B180918E06C0918B06C8238927C82323
:1016700090938E06C4FF05C0E0912101F0912201F4
:101680000995C5FF05C0E0912301F091240109955A
:10169000C6FF05C0E0912501F09126010995C7FF1D
:1016A00005C0E0912701F09128010995C0FF05C010
:1016B000E0912901F0912A010995C1FF05C0E0914F
:1016C0002B01F0912C010995C2FF05C0E0912D017D
:1016D000F0912E010995C3FF05C0E0912F01F09113
:1016E00030010995FF91EF91CF91BF91AF919F91FB
:1016F0008F917F916F915F914F913F912F910F90BB
:101700000FBE0F901F9018951F920F920FB60F9259
:1017100011242F933F934F935F936F937F938F93F6
:101720009F93AF93BF93CF93EF93FF9396B1809125
:101730008D06C0918A06C8238927C82390938D06F9
:10174000C0FF05C0E0911501F09116010995C1FF98
:1017500005C0E0911701F09118010995C2FF05C07D
:10176000E0911901F0911A010995C3FF05C0E091BC
:101770001B01F0911C010995C4FF05C0E0911D01FA
:10178000F0911E010995C5FF05C0E0911F01F09180
:1017900020010995FF91EF91CF91BF91AF919F915A
:1017A0008F917F916F915F914F913F912F910F900A
:1017B0000FBE0F901F9018951F920F920FB60F92A9
:1017C00011242F933F934F935F936F937F938F9346
:1017D0009F93AF93BF93CF93EF93FF9393B1809178
:1017E0008C06C0918906C8238927C82390938C064C
:1017F000C0FF05C0E0910901F0910A010995C1FF00
:1018000005C0E0910B01F0910C010995C2FF05C0E4
:10181000E0910D01F0910E010995C3FF05C0E09123
:101820000F01F09110010995C4FF05C0E09111016D
:10183000F09112010995C5FF05C0E0911301F091E7
:1018400014010995FF91EF91CF91BF91AF919F91B5
:101850008F917F916F915F914F913F912F910F9059
:101860000FBE0F901F901895982F813039F020F0FF
:10187000823051F489B103C083B101C086B1E42F35
:10188000F0E0E457F94F8083E92FF0E0E559FF4F8E
:101890008081682B60834091680021E030E0B901CD
:1018A00002C0660F771F9A95E2F7CB01842B8093D5
:1018B00068000895CF93DF93CDB7DEB72D970FB6AD
:1018C000F894DEBF0FBECDBF789484B5826084BD2E
:1018D00084B5816084BD85B5826085BD85B5816034
:1018E00085BD80916E00816080936E0010928100B2
:1018F000809181008260809381008091810081606D
:10190000809381008091800081608093800080912D
:10191000B10084608093B1008091B00081608093B9
:10192000B00080917A00846080937A0080917A0080
:10193000826080937A0080917A00816080937A003F
:1019400080917A00806880937A001092C100E091C3
:101950002302F091240282E08083E0911F02F09143
:1019600020021082E0912102F09122028FEC80830C
:1019700010922B02E0912702F091280286E08083EA
:10198000E0912502F0912602808180618083E091C0
:101990002502F0912602808188608083E0912502F3
:1019A000F0912602808180688083E0912502F09189
:1019B000260280818F7D80831092040182E18093D2
:1019C000050181E18093060180E1809307018FE0AA
:1019D0008093080161E082E10E94760161E08091DC
:1019E00006010E94760161E0809107010E94760164
:1019F00061E0809108010E94760160E0809105011C
:101A00000E944E0260E0809106010E944E0260E05A
:101A1000809107010E944E0260E0809108010E94BF
:101A20004E0210922104109222041092230410926C
:101A30002404109225041092260410922704109278
:101A4000280410926B04109267041092680410929C
:101A5000690410926A0410922A0410922904EBE29D
:101A6000F4E01192119284E0E736F807D1F784E8A8
:101A70009EE4A0E0B0E080936C0490936D04A0938A
:101A80006E04B0936F048CEA94E8A1E0B0E0809318
:101A9000700490937104A0937204B0937304109235
:101AA000B6041092B2041092B3041092B4041092CF
:101AB000B5041092750410927404E6E7F4E01192F4
:101AC000119294E0E23BF907D1F780EB99E5AFE0A2
:101AD000B0E08093B7049093B804A093B904B09396
:101AE000BA0488ED9FE2A7E0B0E08093BB04909336
:101AF000BC04A093BD04B093BE04109201051092E3
:101B0000FD041092FE041092FF0410920005109242
:101B1000C0041092BF04E1ECF4E011921192A4E031
:101B2000ED3FFA07D1F780E79AE3AFE0B0E08093AA
:101B3000020590930305A0930405B093050588E082
:101B400098E2A7E0B0E08093060590930705A09384
:101B50000805B093090581E080934C051092480573
:101B60001092490510924A0510924B0510920B05F0
:101B700010920A05ECE0F5E011921192B5E0E8341C
:101B8000FB07D1F780EB9AE6A1E2B0E080934D0528
:101B900090934E05A0934F05B093500588E098E2CE
:101BA000A7E0B0E08093510590935205A0935305B0
:101BB000B0935405109297051092930510929405D6
:101BC00010929505109296051092560510925505A3
:101BD000E7E5F5E01192119285E0E339F807D1F7D6
:101BE00080EB9AE6A1E2B0E0809398059093990586
:101BF000A0939A05B0939B0588E098E2A7E0B0E037
:101C000080939C0590939D05A0939E05B0939F059E
:101C10001092E2051092DE051092DF051092E005A9
:101C20001092E1051092A1051092A005E2EAF5E0FC
:101C30001192119295E0EE3DF907D1F784E89EE408
:101C4000A0E0B0E08093E3059093E405A093E50560
:101C5000B093E60580E398E8A1E0B0E08093E70563
:101C60009093E805A093E905B093EA0510922D063C
:101C70001092290610922A0610922B0610922C061A
:101C80001092EC051092EB05EDEEF5E01192119239
:101C9000A6E0E932FA07D1F788EE9EE4A0E0B0E0D2
:101CA00080932E0690932F06A0933006B0933106B2
:101CB0008CEC97E8A1E0B0E0809332069093330675
:101CC000A0933406B09335061092780610927406ED
:101CD00010927506109276061092770610923706CB
:101CE00010923606E8E3F6E011921192B6E0E4377E
:101CF000FB07D1F71092B0021092B1021092B2021B
:101D00001092B3021092B5021092B402E6EBF2E028
:101D10001192119282E0E23FF807D1F746E060E0CD
:101D200082EF92E00E94F90240E064E08FE393E0EA
:101D30000E94F90240E065E08CE893E00E94F9021D
:101D40001092F60260E070E08091F4020E949A0224
:101D500080E090E0AFE2B5E48093D9039093DA039A
:101D6000A093DB03B093DC0380911F04811148C072
:101D7000E0910304F0910404C080D180E280F380FC
:101D8000C0920B04D0920C04E0920D04F0920E0469
:101D9000E0910104F091020480819181A281B381DC
:101DA00080930F0490931004A0931104B093120435
:101DB00080901B0490901C04A0901D04B0901E0401
:101DC000A5019401C701B6010E943615181684F0CA
:101DD0008090170490901804A0901904B0901A04F1
:101DE000A5019401C701B6010E94D71387FF08C05F
:101DF00080920B0490920C04A0920D04B0920E04F9
:101E000081E080931F040EE110E00E94C1080150A0
:101E10001109D9F70E94C10880E691E00E94C50629
:101E200083E491E00E94740A6091EA017091EB01F1
:101E300080E090E00E94841420E030E040E251E431
:101E40000E94DC136B017C014B015C019B01AC0126
:101E50000E94A815882319F081E591E01AC0260197
:101E60003701E89477F82FEF3FEF4FE75FE7C301C3
:101E7000B2010E94A81581110FC02FEF3FEF4FE76D
:101E80005FE7C301B2010E94D71318162CF485E551
:101E900091E00E94B30674C02FEF3FEF4FE75FE47D
:101EA000C701B6010E94361518161CF489E591E0A9
:101EB000F0CF2FEF3FEF4FE75FECC701B6010E9475
:101EC000D71387FDF3CF20E030E0A901C701B601A9
:101ED0000E94D71387FF09C08DE20E94B70A46010E
:101EE0005701B7FAB094B7F8B0942AE037ED43EA57
:101EF0005BE3C501B4010E946B134B015C010E94BE
:101F000055146B017C010E9484149B01AC01C50136
:101F1000B4010E946A134B015C014AE0C701B6019B
:101F20000E94760A8EE20E94B70A20E030E040E28A
:101F300051E4C501B4010E943B154B015C010E94B4
:101F400055146B01E12CF12C4AE0C701B6010E9447
:101F5000760AC701B6010E9484149B01AC01C50139
:101F6000B4010E946A1320E030E040E251E40E9494
:101F70003B150E94551480E090E04AE00E94760AEA
:101F800080EB0E94B70A8DE591E00E94740A8FE50C
:101F900091E00E94740A81E691E00E94740A6091C7
:101FA000EC0170E080E090E04AE00E94760A82E76F
:101FB00091E00E94740A8FE591E00E94740A84E720
:101FC00091E00E94740A6091ED017091EE0180E051
:101FD00090E04AE00E94760A82E891E00E94740A4A
:101FE0008FE591E00E94740A87E891E00E94740AEC
:101FF0006091EF017091F00180E090E04AE00E9472
:10200000760A82E891E00E94740A8FE591E00E94CE
:10201000740A85E991E00E94740A6091F10170915F
:10202000F20180E090E04AE00E94760A82E891E0C6
:102030000E94740A8FE591E00E94740A89EB91E096
:102040000E94C50683EA91E00E94C50600E010E008
:10205000C8010E94C20A8FE591E00E94740A0F5FD6
:102060001F4F08301105A1F780E691E00E94C506D8
:1020700003EF11E0D8016D917D918D0180E090E03A
:102080004AE00E94760A8FE591E00E94740AB2E06D
:1020900003301B0779F789EB91E00E94C5068DEAB2
:1020A00091E00E94C50600E010E0C8010E94C20A4B
:1020B0008FE591E00E94740A0F5F1F4F08301105F1
:1020C000A1F780E691E00E94C50603E012E0F80166
:1020D000619171918F0180E090E04AE00E94760A60
:1020E0008FE591E00E94740AF2E003311F0779F74F
:1020F00089EB91E00E94C50685E00E94F804BC01CE
:10210000990F880B990B0E942508BC0180E090E094
:102110000E9484146093DD037093DE038093DF03D9
:102120009093E00380911F04882309F445C10E9425
:102130000F056D837E838F8398878091070490912C
:102140000804A0910904B0910A044D815E816F8159
:102150007885481B590B6A0B7B0B80911304909177
:102160001404A0911504B0911604481759076A0782
:102170007B0708F421C12091010430910204D901A8
:102180008D919D910D90BC91A02D89839A83AB83F5
:10219000BC83E0910504F09106049C01AD016081CF
:1021A0007181828193810E946A134B015C012091AD
:1021B0000F04309110044091110450911204698170
:1021C0007A818B819C810E946A136B017C01209132
:1021D000F5033091F6034091F7035091F803C501E0
:1021E000B4010E943B1520910B0430910C044091E6
:1021F0000D0450910E040E946B132B013C0160935F
:102200000B0470930C0480930D0490930E04309093
:10221000200431101AC02091F1033091F203409153
:10222000F3035091F403C701B6010E943B159B01D3
:10223000AC01C301B2010E946A1360930B04709356
:102240000C0480930D0490930E0440900B04509066
:102250000C0460900D0470900E0410911B04B0915A
:102260001C04BD8720901D0400911E04212F3B2FCC
:10227000422D502FC301B2010E94361518162CF4BE
:10228000812F9D85A22DB02F18C0809117049091A9
:102290001804A0911904B0911A0489879A87AB8712
:1022A000BC879C01AD01C301B2010E94D71387FF17
:1022B0000CC089859A85AB85BC8580930B0490936F
:1022C0000C04A0930D04B0930E04332079F02091F8
:1022D000F1033091F2034091F3035091F403C501EF
:1022E000B4010E943B154B015C0103C0812C912C71
:1022F00054012091F9033091FA034091FB0350916E
:10230000FC03C701B6010E943B159B01AC01609123
:102310000B0470910C0480910D0490910E040E94A6
:102320006A139B01AC01C501B4010E946B136B01E0
:102330007C01212F3D85422D502F0E943615181605
:10234000BCF010911704909118049D8720901904F7
:1023500000911A04212F392F422D502FB601C701A9
:102360000E94D71387FD04C01C2DDD862E2C0F2D57
:10237000E0910304F0910404812F9D85A22DB02FDC
:1023800080839183A283B38389819A81AB81BC814D
:1023900080930F0490931004A0931104B09312043F
:1023A0008D819E81AF81B885809307049093080446
:1023B000A0930904B0930A046091E1037091E203D1
:1023C0008091E3039091E4030E9455146093F60218
:1023D00070E080E090E00E94861423E333E343E260
:1023E00050E40E943B150E944E148091F4020E941A
:1023F0009A020E946C010ECD0F931F931092160249
:102400001092150288EE93E0A0E0B0E080931702EE
:1024100090931802A0931902B0931A0285E391E0F9
:10242000909314028093130285EC90E09093200225
:1024300080931F0284EC90E090932202809321020B
:1024400080EC90E0909324028093230281EC90E052
:10245000909326028093250282EC90E090932802CC
:102460008093270286EC90E090932A0280932902C1
:1024700010922C0210922D0210922E0210922F0216
:102480001092B0021092B1021092B2021092B302F6
:102490001092B5021092B4028FEF9FEFDC0180938F
:1024A000F9029093FA02A093FB02B093FC021092FF
:1024B000FE021092FD0210923B0310923C03109218
:1024C0003D0310923E038093460390934703A093ED
:1024D0004803B093490310924B0310924A031092A1
:1024E00088031092890310928A0310928B038093C1
:1024F000930390939403A0939503B0939603109243
:102500009803109297031092D5031092D60310925D
:10251000D7031092D80380E090E4ACE1B5E4809357
:10252000D9039093DA03A093DB03B093DC03809389
:10253000DD039093DE03A093DF03B093E0031092DA
:10254000E1031092E2031092E3031092E40381EEA0
:1025500093E090930404809303048DED93E09093B3
:1025600002048093010489ED93E090930604809324
:10257000050410921F041092170410921804109270
:10258000190410921A0480E090E0AFE7B3E480935E
:102590001B0490931C04A0931D04B0931E0484E6B6
:1025A00090E0A0E0B0E08093130490931404A09313
:1025B0001504B09316041092FE031092FD031092BE
:1025C00000041092FF031092200480E090E0A0E04D
:1025D000B0E48093E5039093E603A093E703B09300
:1025E000E80340E050E060EA70E44093E903509370
:1025F000EA036093EB037093EC0340E050E060E883
:102600007FE34093ED035093EE036093EF037093E9
:10261000F0038093F1039093F203A093F303B0933C
:10262000F40380E090E0A0E0BFE38093F503909393
:10263000F603A093F703B093F80380E090E0A0E2E4
:10264000B1E48093F9039093FA03A093FB03B09352
:10265000FC030E940F0500911304109114042091B3
:10266000150430911604DC01CB01801B910BA20BE9
:10267000B30B8093070490930804A0930904B093CC
:102680000A04E1E2F4E010821182128213821482C1
:1026900015821682178211861086DF01AA5BBF4F52
:1026A0001D921D921D921C92139714961C92E55B2D
:1026B000FF4F26E0E937F20731F7E9E7F6E08FEF61
:1026C0009FEF8193919326E0E938F207D1F71F91AC
:1026D0000F9108955058BB27AA270E9482130C948B
:1026E000FC140E94EE1438F00E94F51420F039F426
:1026F0009F3F19F426F40C94EB140EF4E095E7FBDD
:102700000C94E514E92F0E940D1558F3BA176207CF
:1027100073078407950720F079F4A6F50C942F151C
:102720000EF4E0950B2EBA2FA02D0B01B9019001EC
:102730000C01CA01A0011124FF27591B99F0593F30
:1027400050F4503E68F11A16F040A22F232F342F78
:102750004427585FF3CF469537952795A795F040C6
:102760005395C9F77EF41F16BA0B620B730B840BDB
:10277000BAF09150A1F0FF0FBB1F661F771F881F93
:10278000C2F70EC0BA0F621F731F841F48F48795EB
:1027900077956795B795F7959E3F08F0B0CF9395DD
:1027A000880F08F09927EE0F9795879508950E9456
:1027B000C11408F481E008950E94F0130C94FC14F5
:1027C0000E94F51458F00E94EE1440F029F45F3F87
:1027D00029F00C94E51451110C9430150C94EB1461
:1027E0000E940D1568F39923B1F3552391F3951BBE
:1027F000550BBB27AA2762177307840738F09F5F22
:102800005F4F220F331F441FAA1FA9F335D00E2E8E
:102810003AF0E0E832D091505040E695001CCAF7FB
:102820002BD0FE2F29D0660F771F881FBB1F2617BE
:1028300037074807AB07B0E809F0BB0B802DBF0195
:10284000FF2793585F4F3AF09E3F510578F00C9464
:10285000E5140C9430155F3FE4F3983ED4F386956D
:1028600077956795B795F7959F5FC9F7880F911D85
:102870009695879597F90895E1E0660F771F881F71
:10288000BB1F621773078407BA0720F0621B730B24
:10289000840BBA0BEE1F88F7E09508950E9455143B
:1028A0006894B1110C94301508950E94151588F0A4
:1028B0009F5798F0B92F9927B751B0F0E1F0660F04
:1028C000771F881F991F1AF0BA95C9F714C0B13045
:1028D00091F00E942F15B1E008950C942F15672FE9
:1028E000782F8827B85F39F0B93FCCF38695779574
:1028F0006795B395D9F73EF490958095709561955D
:102900007F4F8F4F9F4F0895E89409C097FB3EF487
:1029100090958095709561957F4F8F4F9F4F99232C
:10292000A9F0F92F96E9BB279395F69587957795AA
:102930006795B795F111F8CFFAF4BB0F11F460FF6A
:102940001BC06F5F7F4F8F4F9F4F16C0882311F0C2
:1029500096E911C0772321F09EE8872F762F05C0D6
:10296000662371F096E8862F70E060E02AF09A9571
:10297000660F771F881FDAF7880F9695879597F966
:102980000895990F0008550FAA0BE0E8FEEF161600
:102990001706E807F907C0F012161306E407F50753
:1029A00098F0621B730B840B950B39F40A2661F0C7
:1029B000232B242B252B21F408950A2609F4A1406A
:1029C000A6958FEF811D811D089597F99F6780E877
:1029D00070E060E008959FEF80EC089500240A9471
:1029E0001616170618060906089500240A941216EA
:1029F0001306140605060895092E0394000C11F41D
:102A0000882352F0BB0F40F4BF2B11F460FF04C0C9
:102A10006F5F7F4F8F4F9F4F089557FD9058440F22
:102A2000551F59F05F3F71F04795880F97FB991F2D
:102A300061F09F3F79F087950895121613061406EA
:102A4000551FF2CF4695F1DF08C016161706180677
:102A5000991FF1CF86957105610508940895E89452
:102A6000BB2766277727CB0197F908950E94C114E9
:102A700008F48FEF08950E944E150C94FC140E94E8
:102A8000EE1438F00E94F51420F0952311F00C9408
:102A9000E5140C94EB1411240C9430150E940D15C0
:102AA00070F3959FC1F3950F50E0551F629FF001A1
:102AB000729FBB27F00DB11D639FAA27F00DB11DBA
:102AC000AA1F649F6627B00DA11D661F829F222743
:102AD000B00DA11D621F739FB00DA11D621F839FCA
:102AE000A00D611D221F749F3327A00D611D231FA0
:102AF000849F600D211D822F762F6A2F11249F57EE
:102B000050409AF0F1F088234AF0EE0FFF1FBB1FF0
:102B1000661F771F881F91505040A9F79E3F5105AF
:102B200080F00C94E5140C9430155F3FE4F3983E6C
:102B3000D4F3869577956795B795F795E7959F5F59
:102B4000C1F7FE2B880F911D9695879597F90895EB
:102B50000E94C114880B990B0895DB018F939F93FA
:102B60000E940816BF91AF91A29F800D911DA39F57
:102B7000900DB29F900D11240895AA1BBB1B51E12B
:102B800007C0AA1FBB1FA617B70710F0A61BB70BDD
:102B9000881F991F5A95A9F780959095BC01CD0182
:102BA0000895A1E21A2EAA1BBB1BFD010DC0AA1F8E
:102BB000BB1FEE1FFF1FA217B307E407F50720F0A6
:102BC000A21BB30BE40BF50B661F771F881F991F21
:102BD0001A9469F760957095809590959B01AC016A
:102BE000BD01CF010895EE0FFF1F0590F491E02D78
:102BF0000994A29FB001B39FC001A39F700D811DD6
:102C00001124911DB29F700D811D1124911D0895F5
:102C10000E94F915A59F900DB49F900DA49F800D63
:102C2000911D1124089581E090E0F8940C941816F9
:042C3000F894FFCF46
:102C3400D701D701FFFFFFFFFF1B0B1B0B1B0B1B58
:102C44000B1B0B1B0B1B0B1B0B1B0B1B0B1B0B1B50
:102C54000B1B0B1B0B1B0B1B0B1B0B1B0B1B0B1B40
:102C64000B000000000301F00A9B004A01CC00AAFB
:102C740000BE0054656D70657261747572653A20AA
:102C8400006E616E00696E66006F7666004300092F
:102C94000046616E2044757479204379636C653A0B
:102CA4002000250046616E20312053706565643A2A
:102CB40020002052504D0046616E20322053706532
:102CC40065643A200046616E203320537065656464
:102CD4003A2000566F6C74616765733A00416D70F9
:102CE4006572616765733A000D0A004552524F528E
:102CF4003A20496E76616C6964204D75782043688A
:0A2D0400616E6E656C20494400000A
:00000001FF
