:100000000C9464000C944E060C9427060C946C021D
:100010000C9414020C94EB0A0C948C000C948C003D
:100020000C948C000C948C000C948C000C948C0020
:100030000C948C000C948C000C948C000C948C0010
:100040000C94DD050C948C000C94EA020C94C40210
:100050000C948C000C948C000C948C000C948C00F0
:100060000C948C000C948C00A508B208BC08D30832
:10007000DD08EF08FE0800000000240027002A0029
:1000800000000000250028002B00040404040404E0
:100090000404020202020202030303030303010237
:1000A0000408102040800102040810200102040806
:1000B00010200000000800020100000304070000F7
:1000C000000000000000100F11241FBECFEFD8E089
:1000D000DEBFCDBF11E0A0E0B1E0E4EDF4E202C08C
:1000E00005900D92AE3BB107D9F726E0AEEBB1E03B
:1000F00001C01D92AB31B207E1F710E0C4E6D0E0D9
:1001000004C02197FE010E943C12C336D107C9F7F3
:100110000E94510B0C9468120C940000982F8130AF
:1001200039F020F0823051F489B103C083B101C0AD
:1001300086B1E42FF0E0EF52FE4F8083E92FF0E02C
:10014000E559FF4F8081682B60834091680021E072
:1001500030E0B90102C0660F771F9A95E2F7CB0134
:10016000842B8093680008950895089580E090E0BE
:100170000895FC01538D448D252F30E0842F90E0AD
:10018000821B930B541710F0CF9608950197089592
:10019000FC01918D828D981761F0828DDF01A80F8F
:1001A000B11D5D968C91928D9F5F9F73928F90E0B1
:1001B00008958FEF9FEF0895FC01918D828D981720
:1001C00031F0828DE80FF11D858D90E008958FEF5D
:1001D0009FEF0895FC01918D228D892F90E0805C26
:1001E0009F4F821B91098F73992708958DEF91E09E
:1001F0000E94EA0021E0892B09F420E0822F089573
:10020000FC01848DDF01A80FB11DA35ABF4F2C91B3
:10021000848D90E001968F739927848FA689B78982
:100220002C93A089B1898C9180648C93938D848D5B
:10023000981306C00288F389E02D80818F7D80832A
:100240000895EF92FF920F931F93CF93DF93EC01EA
:1002500081E0888F9B8D8C8D981305C0E889F98982
:10026000808185FD24C0F62E0B8D10E00F5F1F4F9F
:100270000F731127E02E8C8DE8120CC00FB607FC0F
:10028000FACFE889F989808185FFF5CFCE010E94F8
:100290000001F1CF8B8DFE01E80FF11DE35AFF4FF6
:1002A000F0820B8FEA89FB898081806207C0EE892A
:1002B000FF896083E889F98980818064808381E097
:1002C00090E0DF91CF911F910F91FF90EF900895F3
:1002D000CF93DF93EC01888D8823C9F0EA89FB89ED
:1002E000808185FD05C0A889B9898C9186FD0FC0E4
:1002F0000FB607FCF5CF808185FFF2CFA889B989B9
:100300008C9185FFEDCFCE010E940001E7CFDF91F8
:10031000CF91089580E090E0892B29F00E94F600AB
:1003200081110C9400000895CF93DF9390E0FC01BD
:10033000E256FF4F2491FC01E657FF4F849188233A
:1003400061F190E0880F991FFC01EA58FF4FC591B9
:10035000D491FC01E058FF4FA591B491611109C0FF
:100360009FB7F8948881209582238883EC912E236F
:100370000BC0623061F49FB7F8943881822F80956A
:1003800083238883EC912E2B2C939FBF06C08FB7BD
:10039000F894E8812E2B28838FBFDF91CF910895A9
:1003A0003FB7F8948091CA019091CB01A091CC0104
:1003B000B091CD0126B5A89B05C02F3F19F001963D
:1003C000A11DB11D3FBFBA2FA92F982F8827820FDB
:1003D000911DA11DB11DBC01CD0142E0660F771F2B
:1003E000881F991F4A95D1F708950895E091C30198
:1003F000F091C40185819681019696838583089545
:10040000E091C101F091C2018581968101969683A8
:1004100085830895E091BF01F091C00185819681A7
:1004200001969683858308951F920F920FB60F92BF
:1004300011242F933F934F935F936F937F938F93E9
:100440009F93AF93BF93CF93EF93FF9396B1809118
:10045000D201C091CF01C8238927C8239093D2012C
:10046000C0FF05C0E0911001F09111010995C1FF95
:1004700005C0E0911201F09113010995C2FF05C07A
:10048000E0911401F09115010995C3FF05C0E091B9
:100490001601F09117010995C4FF05C0E0911801FC
:1004A000F09119010995C5FF05C0E0911A01F0917D
:1004B0001B010995FF91EF91CF91BF91AF919F9152
:1004C0008F917F916F915F914F913F912F910F90FD
:1004D0000FBE0F901F9018951F920F920FB60F929C
:1004E00011242F933F934F935F936F937F938F9339
:1004F0009F93AF93BF93CF93EF93FF9393B180916B
:10050000D101C091CE01C8238927C8239093D1017E
:10051000C0FF05C0E0910401F09105010995C1FFFC
:1005200005C0E0910601F09107010995C2FF05C0E1
:10053000E0910801F09109010995C3FF05C0E09120
:100540000A01F0910B010995C4FF05C0E0910C016F
:10055000F0910D010995C5FF05C0E0910E01F091E4
:100560000F010995FF91EF91CF91BF91AF919F91AD
:100570008F917F916F915F914F913F912F910F904C
:100580000FBE0F901F9018951F920F920FB60F92EB
:1005900011242F933F934F935F936F937F938F9388
:1005A0009F93AF93BF93EF93FF938DEF91E00E94E2
:1005B0000001FF91EF91BF91AF919F918F917F913A
:1005C0006F915F914F913F912F910F900FBE0F90C0
:1005D0001F9018951F920F920FB60F9211242F9310
:1005E0008F939F93EF93FF93E0910D02F0910E0292
:1005F0008081E0911302F091140282FD12C090817B
:10060000809116028F5F8F7320911702821751F02D
:10061000E0911602F0E0E350FE4F958F80931602B2
:1006200001C08081FF91EF919F918F912F910F9049
:100630000FBE0F901F90189590E0FC01EE54FF4FF5
:100640003491FC01E256FF4F2491FC01E657FF4F25
:10065000E491EE2309F43BC0332339F1333091F0B8
:1006600038F43130A9F0323001F584B58F7D12C0F5
:10067000373091F03830A1F03430B9F480918000F7
:100680008F7D03C0809180008F77809380000DC0A4
:1006900084B58F7784BD09C08091B0008F7703C087
:1006A0008091B0008F7D8093B000F0E0EE0FFF1FCF
:1006B000E058FF4FA591B4918FB7F894EC91611178
:1006C00003C020952E2301C02E2B2C938FBF08959D
:1006D0001F93CF93DF93182FEB0161E00E949401E9
:1006E000209711F460E004C0CF3FD10539F461E0F8
:1006F000812FDF91CF911F910C941C03E12FF0E02B
:10070000EE54FF4FE491E330F9F048F4E130B9F0F2
:10071000E230A1F584B5806284BDC8BD34C0E73045
:10072000E9F0E83019F1E43049F580918000806209
:1007300080938000D0938B00C0938A0024C084B53E
:10074000806884BDC7BD1FC0809180008068809391
:100750008000D0938900C093880015C08091B000BC
:1007600080688093B000C093B3000DC08091B0004A
:1007700080628093B000C093B40005C0C038D1053A
:100780000CF0B5CFAFCFDF91CF911F910895CF93EC
:10079000DF93EC01842F6883663158F4683030F0C1
:1007A0006E3008F4F0C16E5098E001C090E1690F1E
:1007B00001C06FEF69838A8361E00E94940162E067
:1007C00088810E949401FE013D96CE01875B9F4F78
:1007D00011921192E817F907D9F71C8260E070E0D6
:1007E0008A810E9468038091BE018B83E82FF0E02C
:1007F000EE0FFF1FE154FE4FD183C083813009F417
:1008000077C020F0823009F4E5C0B5C19981892F05
:10081000869586958695F9F4911103C02AE032E019
:10082000E3C0913019F42AE032E0E7C0923019F4C5
:100830002AE032E0EBC0933019F42AE032E0EFC056
:10084000943019F42AE032E0F3C0953009F082C107
:100850002AE032E0F7C08130F9F4983019F42AE048
:1008600032E0FBC0993019F42AE032E0FFC09A3040
:1008700019F42AE032E003C19B3019F42AE032E097
:1008800007C19C3019F42AE032E00BC19D3009F019
:1008900061C12AE032E00FC1823009F06CC19031B1
:1008A00019F42AE032E013C1913119F42AE032E060
:1008B00017C1923119F42AE032E01BC1933119F4C7
:1008C0002AE032E01FC1943119F42AE032E023C15A
:1008D000953119F42AE032E027C1963119F42AE063
:1008E00032E02BC1973109F035C12AE032E02EC148
:1008F0009981892F869586958695F9F4911103C083
:1009000020E032E071C0913019F420E032E075C08F
:10091000923019F420E032E079C0933019F420E0ED
:1009200032E07DC0943019F420E032E081C095308F
:1009300009F010C120E032E085C08130F9F4983030
:1009400019F420E032E089C0993019F420E032E057
:100950008DC09A3019F420E032E091C09B3019F438
:1009600020E032E095C09C3019F420E032E099C0DC
:100970009D3009F0EFC020E032E09DC0823009F0E8
:10098000FAC0903119F420E032E0A1C0913119F49D
:1009900020E032E0A5C0923119F420E032E0A9C095
:1009A000933119F420E032E0ADC0943119F420E025
:1009B00032E0B1C0953119F420E032E0B5C0963193
:1009C00019F420E032E0B9C0973109F0C3C020E04B
:1009D00032E0BCC09981892F869586958695B9F5B8
:1009E000911107C026EF31E03093050120930401F7
:1009F000B1C0913039F426EF31E0309307012093F4
:100A00000601A8C0923039F426EF31E03093090195
:100A1000209308019FC0933039F426EF31E03093E2
:100A20000B0120930A0196C0943039F426EF31E08F
:100A300030930D0120930C018DC0953009F08AC0D0
:100A400026EF31E030930F0120930E0183C08130F7
:100A5000B9F5983039F426EF31E030931101209345
:100A6000100178C0993039F426EF31E0309313014A
:100A7000209312016FC09A3039F426EF31E03093A1
:100A800015012093140166C09B3039F426EF31E044
:100A900030931701209316015DC09C3039F426EF86
:100AA00031E0309319012093180154C09D3009F0B2
:100AB00051C026EF31E030931B0120931A014AC048
:100AC000823009F058C0903139F426EF31E030938C
:100AD0002501209324013EC0913139F426EF31E005
:100AE000309327012093260135C0923139F426EF47
:100AF00031E030932901209328012CC0933139F43F
:100B000026EF31E030932B0120932A0123C094314A
:100B100039F426EF31E030931D0120931C011AC0F7
:100B2000953139F426EF31E030931F0120931E01F7
:100B300011C0963139F426EF31E030932101209332
:100B4000200108C0973131F426EF31E030932301C2
:100B500020932201977061E070E001C0660F9A95C2
:100B6000EAF7E82FF0E0E253FE4F9081962B908356
:100B7000482F0E948E008091BE018F5F8093BE013E
:100B8000DF91CF910895685090E011CE8E3008F03B
:100B90008E508770806480937C0080917A0080649E
:100BA00080937A0080917A0086FDFCCF8091780056
:100BB0002091790090E0922B08951F920F920FB62A
:100BC0000F9211242F933F938F939F93AF93BF93D3
:100BD0008091C6019091C701A091C801B091C9014F
:100BE0003091C50123E0230F2D3720F40196A11D7C
:100BF000B11D05C026E8230F0296A11DB11D20934B
:100C0000C5018093C6019093C701A093C801B0931A
:100C1000C9018091CA019091CB01A091CC01B09102
:100C2000CD010196A11DB11D8093CA019093CB0106
:100C3000A093CC01B093CD01BF91AF919F918F91C3
:100C40003F912F910F900FBE0F901F9018951F92FC
:100C50000F920FB60F9211242F933F934F935F93F0
:100C60006F937F938F939F93AF93BF93EF93FF9374
:100C7000E0910201F09103010995FF91EF91BF917D
:100C8000AF919F918F917F916F915F914F913F9124
:100C90002F910F900FBE0F901F9018951F920F92DB
:100CA0000FB60F9211242F933F934F935F936F933F
:100CB0007F938F939F93AF93BF93EF93FF93E091B5
:100CC0000001F09101010995FF91EF91BF91AF9162
:100CD0009F918F917F916F915F914F913F912F9154
:100CE0000F900FBE0F901F9018958F929F92AF920A
:100CF000BF92CF92DF92EF92FF920F931F93CF9309
:100D0000DF93EC018FB7F8944091C6015091C70171
:100D10006091C8017091C9018FBF8F819885481B70
:100D2000590B8E01075B1F4F4115510509F481C016
:100D30008981382F3695369536953330B0F4E32FC8
:100D4000F0E0E559FF4F6081282F277081E090E0A7
:100D5000DC0101C0AA0F2A95EAF72A2F2095262345
:100D600020832081222309F459C0EB84FC8467018D
:100D7000CC0CDD1CCC0EDD1EF60185859685F801B8
:100D800080809180A280B380881A990AA108B10856
:100D90002D813E81A0E3B5E70E9442129A0140E016
:100DA00050E00E941A12F601368725871E821D82A6
:100DB000DA01C901AA27BB27880E991EAA1EBB1EED
:100DC000F80180829182A282B382C70101966EE10E
:100DD00070E00E9406129C878B872FB7F894809151
:100DE000C6019091C701A091C801B091C9012FBF60
:100DF0008F839887A987BA879981892F8695869549
:100E000086958330B0F4977061E070E001C0660FA2
:100E10009A95EAF7482F0E948E000BC02091680037
:100E200001C0880F3A95EAF7809582238093680085
:100E30009CCFF80160817181828193812EE130E045
:100E400040E050E00E941A12C901DF91CF911F913A
:100E50000F91FF90EF90DF90CF90BF90AF909F9059
:100E60008F9008958F929F92AF92BF92CF92DF9210
:100E7000EF92FF928EE480937C000E94D0016B0180
:100E80007C0192E0892E912CA12CB12C0E94D001E2
:100E9000DC01CB018C199D09AE09BF09883E934046
:100EA000A105B10598F328EEC20E23E0D21EE11C85
:100EB000F11C8A9489288A288B2829F0812C912C6E
:100EC00054018394E3CF80917A00806480937A0008
:100ED00080917A0086FDFCCF209178008091790086
:100EE00030E0382B032E000C440B550B6CEB7BE0F1
:100EF00081E190E00E941A12C901FF90EF90DF900B
:100F0000CF90BF90AF909F908F900895CF92DF9237
:100F1000EF92FF920F931F93CF93DF936C017A01AF
:100F20008B01C0E0D0E0CE15DF0589F0D8016D91CE
:100F30008D01D601ED91FC910190F081E02DC6016B
:100F40000995892B11F47E0102C02196ECCFC701CF
:100F5000DF91CF911F910F91FF90EF90DF90CF9095
:100F600008950E946312009769F0FC01019000202F
:100F7000E9F73197AF01481B590BBC018DEF91E0A8
:100F80000C94860780E090E00895CF93DF930E9451
:100F9000B307EC018BEB91E00E94B3078C0F9D1F10
:100FA000DF91CF9108952F923F924F925F926F926F
:100FB0007F928F929F92AF92BF92CF92DF92EF92E9
:100FC000FF920F931F93CF93DF93CDB7DEB7609758
:100FD0000FB6F894DEBF0FBECDBF85E00E94C605F8
:100FE0005C01E0918503F0918603EE0FFF1FE95746
:100FF000FC4F208131818091810390918203A091E7
:101000008303B0918403821B930BA109B1098093E0
:10101000810390938203A0938303B09384030E947F
:1010200032078C010E94320740918503509186035C
:10103000292F26952695269530E0FA01EE0FFF1F01
:10104000E957FC4FC080D180E12CF12CC20ED31E99
:10105000E11CF11C9801D5010E945112DC01CB0169
:101060001AE0B695A795979587951A95D1F7C80E6A
:10107000D91EEA1EFB1ED182C082EE24FF2480917D
:10108000810390918203A0918303B0918403C80EE1
:10109000D91EEA1EFB1EC0928103D0928203E09209
:1010A0008303F0928403CA0101966EE170E00E940E
:1010B00006129093860380938503C701B6012EE143
:1010C00030E040E050E00E941A123093D5012093A6
:1010D000D40180919E028093D6018AE992E00E9419
:1010E00075069093D8018093D70187EE92E00E9415
:1010F00075069093DA018093D90184E393E00E940E
:1011000075069093DC018093DB0109E0C02E04E0BA
:10111000D02E23EC33E0388B2F874DED51E05A83EE
:101120004983E12CF12C8BE4382EF7013197E7301D
:10113000F10528F4EC5CFF4F61E00C943C128091C7
:101140002C010E94C6058C017BC080912D010E945C
:101150001C0380912C010E94C6058C0160E08091E7
:101160002D016CC080912E010E941C0380912C01E6
:101170000E94C6058C0113C080912D010E941C03A2
:1011800061E080912E010E941C0380912C010E943D
:10119000C6058C0160E080912D010E941C0360E077
:1011A00080912E014BC080912F010E941C038091E1
:1011B0002C010E94C6058C013EC080912D010E9429
:1011C0001C0361E080912F010E941C0380912C017F
:1011D0000E94C6058C0160E080912D012AC080919B
:1011E0002E010E941C0361E080912F010E941C03CC
:1011F00080912C010E94C6058C0118C080912D01A0
:101200000E941C0361E080912E010E941C0361E09A
:1012100080912F010E941C0380912C010E94C60521
:101220008C0160E080912D010E941C0360E08091A0
:101230002E010E941C0360E080912F010E941C037C
:10124000EF85F88980849184F5E08F0E911C880CDD
:10125000991C3E9CC0013F9C900D1124880D991D46
:101260009C012D533C4F4901F90180819181F60188
:101270004081518162817381481B590B6109710959
:101280004083518362837383EF85F889E65BFF4F68
:101290002081EF85F88984819581A681B7812223F9
:1012A00009F45AC0892B8A2B8B2B01F50E94320737
:1012B0005C010E943207792E0E9432077694769460
:1012C00076947B821C824B815C81481B590B950173
:1012D000D8010E944212DC01CB017AE0B695A795B5
:1012E000979587957A95D1F7BA0154C00E94320735
:1012F0005C010E943207292E0E943207EF85F8898F
:1013000044805580668077802694269426942D828A
:101310001E824D815E819A0140E050E0281B390B0E
:10132000410951092B873C874D875E879501D8017C
:101330000E944212DC01CB016AE0B695A795979511
:1013400087956A95D1F72B853C854D855E85280F5D
:10135000391F4A1F5B1F4AC0892B8A2B8B2B01F533
:101360000E9432075C010E943207492F9501D80183
:101370000E944212DC01CB015AE0B695A7959795E1
:1013800087955A95D1F74695469546954F83188689
:101390006F817885680F791FF4017183608339C08C
:1013A0000E9432075C010E943207492FEF85F889BD
:1013B00044805580668077809501D8010E94421252
:1013C000DC01CB013AE0B695A795979587953A95BC
:1013D000D1F746954695469549871A869C01AD01F9
:1013E000A984BA842A0D3B1D411D511D8081918124
:1013F000A281B381BC01CD01640D751D861D971DB1
:101400000E94F611A30192010E941A12F401318385
:101410002083EF85F88980859185AC014B5F5F4F14
:10142000440F551F3E9C90013F9C300D1124240F0A
:10143000351FF901ED53FC4F20813181F6014081C8
:101440005181628173814A015B01820E931EA11C4E
:10145000B11C80829182A282B38201966EE170E01B
:101460000E940612EF85F88991878087C501B40133
:101470002EE130E040E050E00E941A12E981FA814A
:1014800021933193FA83E983FBE4CF0ED11C2F859E
:101490003889255B3F4F388B2F87A7014F5F5F4F00
:1014A0007A0158E0E516F10409F03FCE60960FB6D8
:1014B000F894DEBF0FBECDBFDF91CF911F910F918A
:1014C000FF90EF90DF90CF90BF90AF909F908F9064
:1014D0007F906F905F904F903F902F9008950C9465
:1014E000B3078F929F92AF92BF920F931F93CF93A8
:1014F000DF93CDB7DEB7A1970FB6F894DEBF0FBE6E
:10150000CDBF19A2423008F44AE08E010F5D1F4F93
:10151000842E912CA12CB12CA50194010E941A12A9
:10152000E62FB901CA0101501109EA3014F4E05D57
:1015300001C0E95CD801EC93232B242B252B61F708
:10154000C8010E94B307A1960FB6F894DEBF0FBE84
:10155000CDBFDF91CF911F910F91BF90AF909F9022
:101560008F900895E091FD01F091FE010190F081CE
:10157000E02D682F8DEF91E00994CF92DF92EF92EA
:10158000FF92CF93DF936C01990FEE08FF08F7FEEF
:1015900017C08DE20E94B20AEC0166277727CB01C3
:1015A0006C197D098E099F094AE00E94710A8C0F0F
:1015B0009D1FDF91CF91FF90EF90DF90CF90089526
:1015C0004AE0C701B601DF91CF91FF90EF90DF9025
:1015D000CF900C94710A1F920F920FB60F921124A4
:1015E0002F933F934F935F936F937F938F939F932B
:1015F000AF93BF93CF93EF93FF9399B18091D301B2
:10160000C091D001C8238927C8239093D301C4FF78
:1016100005C0E0911C01F0911D010995C5FF05C0B1
:10162000E0911E01F0911F010995C6FF05C0E091F0
:101630002001F09121010995C7FF05C0E091220129
:10164000F09123010995C0FF05C0E0912401F091BC
:1016500025010995C1FF05C0E0912601F091270100
:101660000995C2FF05C0E0912801F0912901099573
:10167000C3FF05C0E0912A01F0912B010995FF916C
:10168000EF91CF91BF91AF919F918F917F916F918A
:101690005F914F913F912F910F900FBE0F901F9030
:1016A0001895789484B5826084BD84B5816084BDCA
:1016B00085B5826085BD85B5816085BD80916E00F0
:1016C000816080936E001092810080918100826021
:1016D000809381008091810081608093810080915E
:1016E00080008160809380008091B100846080934D
:1016F000B1008091B00081608093B00080917A0049
:10170000846080937A0080917A00826080937A006E
:1017100080917A00816080937A0080917A0080685D
:1017200080937A001092C100E0910D02F0910E02B8
:1017300082E08083E0910902F0910A021082E09138
:101740000B02F0910C028FEC808310921502E09155
:101750001102F091120286E08083E0910F02F09175
:101760001002808180618083E0910F02F09110026D
:10177000808188608083E0910F02F0911002808167
:1017800080688083E0910F02F091100280818F7D4C
:10179000808346E060E08AE992E00E94C70340E06F
:1017A00064E087EE92E00E94C70340E065E084E3D6
:1017B00093E00E94C70310929E0260E070E0809167
:1017C0009C020E94680310922C0182E180932D01FB
:1017D00081E180932E0180E180932F018FE080933F
:1017E000300161E082E10E94940161E080912E016C
:1017F0000E94940161E080912F010E94940161E0B8
:10180000809130010E94940160E080912D010E943E
:101810001C0360E080912E010E941C0360E0809117
:101820002F010E941C0360E0809130010E941C0384
:101830001092C3031092C4031092C5031092C60302
:101840001092C7031092C8031092C9031092CA03E2
:1018500010920D041092090410920A0410920B04C5
:1018600010920C041092CC031092CB03EDECF3E039
:101870001192119284E0E930F807D1F784E89EE4F0
:10188000A0E0B0E080930E0490930F04A0931004A6
:10189000B09311048CEA94E8A1E0B0E080931204C4
:1018A00090931304A0931404B09315041092580459
:1018B000109254041092550410925604109257043A
:1018C0001092170410921604E8E1F4E011921192BC
:1018D00084E0E435F807D1F780EB99E5AFE0B0E0BC
:1018E0008093590490935A04A0935B04B0935C04D2
:1018F00088ED9FE2A7E0B0E080935D0490935E04E2
:10190000A0935F04B09360041092A30410929F040C
:101910001092A0041092A1041092A20410926204EA
:1019200010926104E3E6F4E01192119284E0EF3941
:10193000F807D1F780E79AE3AFE0B0E08093A40422
:101940009093A504A093A604B093A70488E098E21E
:10195000A7E0B0E08093A8049093A904A093AA0400
:10196000B093AB0481E08093EE041092EA041092ED
:10197000EB041092EC041092ED041092AD0410925E
:10198000AC04EEEAF4E01192119284E0EA3EF8072A
:10199000D1F780EB9AE6A1E2B0E08093EF04909358
:1019A000F004A093F104B093F20488E098E2A7E079
:1019B000B0E08093F3049093F404A093F504B09303
:1019C000F6041092390510923505109236051092E2
:1019D0003705109238051092F8041092F704E9EFD9
:1019E000F4E01192119285E0E533F807D1F780EB2E
:1019F0009AE6A1E2B0E080933A0590933B05A0936C
:101A00003C05B0933D0588E098E2A7E0B0E0809304
:101A10003E0590933F05A0934005B0934105109279
:101A20008405109280051092810510928205109213
:101A300083051092430510924205E4E4F5E011920B
:101A4000119285E0E038F807D1F784E89EE4A0E041
:101A5000B0E08093850590938605A0938705B093A9
:101A6000880580E398E8A1E0B0E080938905909331
:101A70008A05A0938B05B0938C051092CF05109228
:101A8000CB051092CC051092CD051092CE05109288
:101A90008E0510928D05EFE8F5E01192119285E028
:101AA000EB3CF807D1F788EE9EE4A0E0B0E080932D
:101AB000D0059093D105A093D205B093D3058CECBB
:101AC00097E8A1E0B0E08093D4059093D505A0936A
:101AD000D605B093D70510921A06109216061092EA
:101AE000170610921806109219061092D905109236
:101AF000D805EAEDF5E01192119286E0E631F8079B
:101B0000D1F71092810310928203109283031092F6
:101B100084031092860310928503E7E8F3E01192A4
:101B2000119283E0E33CF807D1F7CEE1D0E00E94C8
:101B3000D3072197E1F70E94D30783E691E00E9443
:101B4000C50786E491E00E946F0A6091D40170910C
:101B5000D50180E090E00E94CD1020E030E040E22E
:101B600051E40E942C106B017C014B015C019B0134
:101B7000AC010E94F111882319F084E591E01AC0AC
:101B800026013701E89477F82FEF3FEF4FE75FE743
:101B9000C301B2010E94F11181110FC02FEF3FEF7D
:101BA0004FE75FE7C301B2010E94271018162CF41B
:101BB00088E591E00E94B30774C02FEF3FEF4FE735
:101BC0005FE4C701B6010E947F1118161CF48CE572
:101BD00091E0F0CF2FEF3FEF4FE75FECC701B60189
:101BE0000E94271087FDF3CF20E030E0A901C70154
:101BF000B6010E94271087FF09C08DE20E94B20A39
:101C000046015701B7FAB094B7F8B0942AE037ED1F
:101C100043EA5BE3C501B4010E94BB0F4B015C01C9
:101C20000E949E106B017C010E94CD109B01AC01B3
:101C3000C501B4010E94BA0F4B015C014AE0C70123
:101C4000B6010E94710A8EE20E94B20A20E030E0E2
:101C500040E251E4C501B4010E9484114B015C01D2
:101C60000E949E106B01E12CF12C4AE0C701B601E5
:101C70000E94710AC701B6010E94CD109B01AC0100
:101C8000C501B4010E94BA0F20E030E040E251E407
:101C90000E9484110E949E1080E090E04AE00E9421
:101CA000710A80EB0E94B20A80E691E00E946F0AFE
:101CB00082E691E00E946F0A84E691E00E946F0A3A
:101CC0006091D60170E080E090E04AE00E94710AE5
:101CD00085E791E00E946F0A82E691E00E946F0A18
:101CE00087E791E00E946F0A6091D7017091D80157
:101CF00080E090E04AE00E94710A85E891E00E944D
:101D00006F0A82E691E00E946F0A8AE891E00E94E1
:101D10006F0A6091D9017091DA0180E090E04AE0A9
:101D20000E94710A85E891E00E946F0A82E691E0C4
:101D30000E946F0A88E991E00E946F0A6091DB01BE
:101D40007091DC0180E090E04AE00E94710A85E831
:101D500091E00E946F0A82E691E00E946F0A8CEB8C
:101D600091E00E94C50786EA91E00E94C507E12C38
:101D7000F12CC7010E94BD0A82E691E00E946F0A21
:101D80008FEFE81AF80A88E0E816F10491F783E685
:101D900091E00E94C507CDEDD1E06991799180E095
:101DA00090E04AE00E94710A82E691E00E946F0A88
:101DB00081E0CD3ED80789F78CEB91E00E94C50702
:101DC00080EB91E00E94C507E12CF12CC7010E9435
:101DD000BD0A82E691E00E946F0A8FEFE81AF80AC6
:101DE00088E0E816F10491F783E691E00E94C507C8
:101DF000CDEED1E06991799180E090E04AE00E94D7
:101E0000710A82E691E00E946F0A81E0CD3FD80717
:101E100089F78CEB91E00E94C5070E948A018BCE66
:101E2000109200021092FF0188EE93E0A0E0B0E073
:101E30008093010290930202A0930302B0930402E4
:101E400088E391E09093FE018093FD0185EC90E0A2
:101E500090930A028093090284EC90E090930C0224
:101E600080930B0280EC90E090930E0280930D0221
:101E700081EC90E09093100280930F0282EC90E04E
:101E8000909312028093110286EC90E090931402DA
:101E900080931302109216021092170210921802E9
:101EA000109219028FEF9FEFDC018093A1029093B3
:101EB000A202A093A302B093A4021092A6021092D1
:101EC000A5021092E3021092E4021092E502109231
:101ED000E6028093EE029093EF02A093F002B0939B
:101EE000F1021092F3021092F2021092300310925B
:101EF0003103109232031092330380933B0390938B
:101F00003C03A0933D03B0933E0310924003109214
:101F10003F0310927D0310927E0310927F03109274
:101F20008003E3ECF3E010821182128213821482A8
:101F300015821682178211861086DF01AA5BBF4FB9
:101F40001D921D921D921C92139714961C92E55B94
:101F5000FF4F86E0EB31F80731F7109281031092C2
:101F600082031092830310928403109286031092CE
:101F7000850308955058BB27AA270E94D20F0C94BE
:101F800045110E94371138F00E943E1120F039F4BB
:101F90009F3F19F426F40C9434110EF4E095E7FBFE
:101FA0000C942E11E92F0E94561158F3BA176207AC
:101FB00073078407950720F079F4A6F50C9478113F
:101FC0000EF4E0950B2EBA2FA02D0B01B901900154
:101FD0000C01CA01A0011124FF27591B99F0593F98
:101FE00050F4503E68F11A16F040A22F232F342FE0
:101FF0004427585FF3CF469537952795A795F0402E
:102000005395C9F77EF41F16BA0B620B730B840B42
:10201000BAF09150A1F0FF0FBB1F661F771F881FFA
:10202000C2F70EC0BA0F621F731F841F48F4879552
:1020300077956795B795F7959E3F08F0B0CF939544
:10204000880F08F09927EE0F9795879508950E94BD
:102050000A1108F481E008950E9440100C94451183
:102060000E943E1158F00E94371140F029F45F3F62
:1020700029F00C942E1151110C9479110C943411F7
:102080000E94561168F39923B1F3552391F3951BE0
:10209000550BBB27AA2762177307840738F09F5F89
:1020A0005F4F220F331F441FAA1FA9F335D00E2EF6
:1020B0003AF0E0E832D091505040E695001CCAF763
:1020C0002BD0FE2F29D0660F771F881FBB1F261726
:1020D00037074807AB07B0E809F0BB0B802DBF01FD
:1020E000FF2793585F4F3AF09E3F510578F00C94CC
:1020F0002E110C9479115F3FE4F3983ED4F386954A
:1021000077956795B795F7959F5FC9F7880F911DEC
:102110009695879597F90895E1E0660F771F881FD8
:10212000BB1F621773078407BA0720F0621B730B8B
:10213000840BBA0BEE1F88F7E09508950E945E119C
:1021400088F09F5798F0B92F9927B751B0F0E1F078
:10215000660F771F881F991F1AF0BA95C9F714C028
:10216000B13091F00E947811B1E008950C9478118B
:10217000672F782F8827B85F39F0B93FCCF3869561
:1021800077956795B395D9F73EF4909580957095BE
:1021900061957F4F8F4F9F4F0895E89409C097FB3B
:1021A0003EF490958095709561957F4F8F4F9F4F2E
:1021B0009923A9F0F92F96E9BB279395F695879572
:1021C00077956795B795F111F8CFFAF4BB0F11F435
:1021D00060FF1BC06F5F7F4F8F4F9F4F16C08823DC
:1021E00011F096E911C0772321F09EE8872F762F12
:1021F00005C0662371F096E8862F70E060E02AF053
:102200009A95660F771F881FDAF7880F969587953E
:1022100097F90895990F0008550FAA0BE0E8FEEF13
:1022200016161706E807F907C0F012161306E4079A
:10223000F50798F0621B730B840B950B39F40A2693
:1022400061F0232B242B252B21F408950A2609F471
:10225000A140A6958FEF811D811D089597F99F6775
:1022600080E870E060E008959FEF80EC089500241E
:102270000A941616170618060906089500240A94EB
:1022800012161306140605060895092E0394000C71
:1022900011F4882352F0BB0F40F4BF2B11F460FF00
:1022A00004C06F5F7F4F8F4F9F4F089557FD905829
:1022B000440F551F59F05F3F71F04795880F97FB0A
:1022C000991F61F09F3F79F08795089512161306C4
:1022D0001406551FF2CF4695F1DF08C016161706F3
:1022E0001806991FF1CF8695710561050894089528
:1022F000E894BB2766277727CB0197F908950E94BA
:102300000A1108F48FEF08950E9497110C9445115B
:102310000E94371138F00E943E1120F0952311F0F1
:102320000C942E110C94341111240C9479110E94E8
:10233000561170F3959FC1F3950F50E0551F629FA2
:10234000F001729FBB27F00DB11D639FAA27F00D0E
:10235000B11DAA1F649F6627B00DA11D661F829F35
:102360002227B00DA11D621F739FB00DA11D621F1A
:10237000839FA00D611D221F749F3327A00D611D37
:10238000231F849F600D211D822F762F6A2F112419
:102390009F5750409AF0F1F088234AF0EE0FFF1F4C
:1023A000BB1F661F771F881F91505040A9F79E3FA3
:1023B000510580F00C942E110C9479115F3FE4F3D9
:1023C000983ED4F3869577956795B795F795E795F9
:1023D0009F5FC1F7FE2B880F911D9695879597F902
:1023E00008950E940A11880B990B0895DB018F93C1
:1023F0009F930E945812BF91AF91A29F800D911D93
:10240000A39F900DB29F900D11240895AA1BBB1B92
:1024100051E107C0AA1FBB1FA617B70710F0A61BE4
:10242000B70B881F991F5A95A9F780959095BC0105
:10243000CD010895A1E21A2EAA1BBB1BFD010DC000
:10244000AA1FBB1FEE1FFF1FA217B307E407F50764
:1024500020F0A21BB30BE40BF50B661F771F881F40
:10246000991F1A9469F760957095809590959B01D6
:10247000AC01BD01CF010895EE0FFF1F0590F4914F
:10248000E02D0994A29FB001B39FC001A39F700DDE
:10249000811D1124911DB29F700D811D1124911D6C
:1024A00008950E944212B7FF0895821B930B08956E
:1024B0000E944212A59F900DB49F900DA49F800D85
:1024C000911D1124089581E090E0F8940C94681215
:0424D000F894FFCFAE
:1024D400F501F501B400B400B400B400B400B400D4
:1024E400B400B400B400B400B400B400B400B40048
:1024F400B400B400B400B400B400B400FFFFFFFFA4
:10250400FF0000000000000021018607B9006801F7
:10251400EA00C800DC0054656D7065726174757200
:10252400653A20006E616E00696E66006F76660023
:102534004300090046616E20447574792043796331
:102544006C653A2000250046616E20312053706589
:1025540065643A20002052504D0046616E203220BE
:1025640053706565643A200046616E2033205370D1
:102574006565643A2000566F6C74616765733A0050
:0E258400416D706572616765733A000D0A0063
:00000001FF
