:100000000C946D000C9480050C9459050C94B90B5C
:100010000C94610B0C94FB0A0C9495000C949500C5
:100020000C9495000C9495000C9495000C949500FC
:100030000C9495000C9495000C9495000C949500EC
:100040000C940F050C9495000C941C020C94F60172
:100050000C9495000C9495000C9495000C949500CC
:100060000C9495000C949500E306E906F706020748
:100070001A072507380748076A077507880798078A
:10008000B507C507DD07F2070000000024002700C0
:100090002A0000000000250028002B0004040404AE
:1000A0000404040402020202020203030303030322
:1000B00001020408102040800102040810200102FF
:1000C00004081020000000080002010000030407DB
:1000D0000000000000000000F60F11241FBECFEF4B
:1000E000D8E0DEBFCDBF11E0A0E0B1E0E4EBF6E286
:1000F00002C005900D92AA3DB107D9F726E0AAEDFE
:10010000B1E001C01D92A734B207E1F710E0CDE6DF
:10011000D0E004C02197FE010E942C13CC36D107F9
:10012000C9F70E94370C0C9458130C9400000895E2
:1001300080E090E00895FC01538D448D252F30E040
:10014000842F90E0821B930B541710F0CF960895E4
:1001500001970895FC01918D828D981761F0828D31
:10016000DF01A80FB11D5D968C91928D9F5F9F73EB
:10017000928F90E008958FEF9FEF0895FC01918D8D
:10018000828D981731F0828DE80FF11D858D90E0FA
:1001900008958FEF9FEF0895FC01918D228D892F97
:1001A00090E0805C9F4F821B91098F73992708957F
:1001B00083E192E00E94CC0021E0892B09F420E049
:1001C000822F0895FC01848DDF01A80FB11DA35A71
:1001D000BF4F2C91848D90E001968F739927848F67
:1001E000A689B7892C93A089B1898C9180648C935E
:1001F000938D848D981306C00288F389E02D808149
:100200008F7D80830895EF92FF920F931F93CF937A
:10021000DF93EC0181E0888F9B8D8C8D981305C056
:10022000E889F989808185FD24C0F62E0B8D10E0C8
:100230000F5F1F4F0F731127E02E8C8DE8120CC03B
:100240000FB607FCFACFE889F989808185FFF5CFE1
:10025000CE010E94E200F1CF8B8DFE01E80FF11D6F
:10026000E35AFF4FF0820B8FEA89FB89808180621D
:1002700007C0EE89FF896083E889F98980818064FD
:10028000808381E090E0DF91CF911F910F91FF90EB
:10029000EF900895CF93DF93EC01888D8823C9F008
:1002A000EA89FB89808185FD05C0A889B9898C917F
:1002B00086FD0FC00FB607FCF5CF808185FFF2CF1A
:1002C000A889B9898C9185FFEDCFCE010E94E2000B
:1002D000E7CFDF91CF91089580E090E0892B29F05E
:1002E0000E94D80081110C9400000895CF93DF93F1
:1002F00090E0FC01E055FF4F2491FC01E456FF4FD4
:100300008491882361F190E0880F991FFC01E857E0
:10031000FF4FC591D491FC01EE56FF4FA591B491CA
:10032000611109C09FB7F894888120958223888342
:10033000EC912E230BC0623061F49FB7F8943881A2
:10034000822F809583238883EC912E2B2C939FBF43
:1003500006C08FB7F894E8812E2B28838FBFDF91DA
:10036000CF9108953FB7F8948091E6019091E7010D
:10037000A091E801B091E90126B5A89B05C02F3FE7
:1003800019F00196A11DB11D3FBFBA2FA92F982FBB
:100390008827820F911DA11DB11DBC01CD0142E036
:1003A000660F771F881F991F4A95D1F70895089502
:1003B000E091DF01F091E0018581968101969683BD
:1003C00085830895E091DD01F091DE0185819681BC
:1003D0000196968385830895E091DB01F091DC011D
:1003E0008581968101969683858308951F920F9249
:1003F0000FB60F9211242F933F934F935F936F93F8
:100400007F938F939F93AF93BF93EF93FF9383E17A
:1004100092E00E94E200FF91EF91BF91AF919F9116
:100420008F917F916F915F914F913F912F910F909D
:100430000FBE0F901F9018951F920F920FB60F923C
:1004400011242F938F939F93EF93FF93E0912302B7
:10045000F09124028081E0912902F0912A0282FD2C
:1004600012C0908180912C028F5F8F7320912D029A
:10047000821751F0E0912C02F0E0ED5EFD4F958F78
:1004800080932C0201C08081FF91EF919F918F9109
:100490002F910F900FBE0F901F90189590E0FC01C8
:1004A000EC53FF4F3491FC01E055FF4F2491FC01C8
:1004B000E456FF4FE491EE2309F43BC0332339F1B6
:1004C000333091F038F43130A9F0323001F584B591
:1004D0008F7D12C0373091F03830A1F03430B9F44C
:1004E000809180008F7D03C0809180008F77809302
:1004F00080000DC084B58F7784BD09C08091B000A5
:100500008F7703C08091B0008F7D8093B000F0E0C2
:10051000EE0FFF1FEE56FF4FA591B4918FB7F894E1
:10052000EC91611103C020952E2301C02E2B2C933A
:100530008FBF08951F93CF93DF93182FEB0161E0D6
:100540000E947601209711F460E004C0CF3FD105EE
:1005500039F461E0812FDF91CF911F910C944E020D
:10056000E12FF0E0EC53FF4FE491E330F9F048F471
:10057000E130B9F0E230A1F584B5806284BDC8BD38
:1005800034C0E730E9F0E83019F1E43049F5809102
:100590008000806280938000D0938B00C0938A009B
:1005A00024C084B5806884BDC7BD1FC08091800011
:1005B000806880938000D0938900C093880015C024
:1005C0008091B00080688093B000C093B3000DC0EC
:1005D0008091B00080628093B000C093B40005C0E9
:1005E000C038D1050CF0B5CFAFCFDF91CF911F91BF
:1005F0000895CF93DF93EC01842F6883663158F41C
:10060000683030F06E3008F4F0C16E5098E001C0F0
:1006100090E1690F01C06FEF69838A8361E00E94F6
:10062000760162E088810E947601FE013D96CE014E
:10063000875B9F4F11921192E817F907D9F71C8237
:1006400060E070E08A810E949A028091DA018B83D7
:10065000E82FF0E0EE0FFF1FE552FE4FD183C0837D
:10066000813009F477C020F0823009F4E5C0B5C1CB
:100670009981892F869586958695F9F4911103C005
:100680002CEE31E0E3C0913019F42CEE31E0E7C0FC
:10069000923019F42CEE31E0EBC0933019F42CEECB
:1006A00031E0EFC0943019F42CEE31E0F3C0953016
:1006B00009F082C12CEE31E0F7C08130F9F49830B6
:1006C00019F42CEE31E0FBC0993019F42CEE31E036
:1006D000FFC09A3019F42CEE31E003C19B3019F4BD
:1006E0002CEE31E007C19C3019F42CEE31E00BC147
:1006F0009D3009F061C12CEE31E00FC1823009F06C
:100700006CC1903119F42CEE31E013C1913119F420
:100710002CEE31E017C1923119F42CEE31E01BC1FF
:10072000933119F42CEE31E01FC1943119F42CEE01
:1007300031E023C1953119F42CEE31E027C1963117
:1007400019F42CEE31E02BC1973109F035C12CEEB4
:1007500031E02EC19981892F869586958695F9F489
:10076000911103C022EE31E071C0913019F422EEF4
:1007700031E075C0923019F422EE31E079C0933047
:1007800019F422EE31E07DC0943019F422EE31E00C
:1007900081C0953009F010C122EE31E085C0813072
:1007A000F9F4983019F422EE31E089C0993019F447
:1007B00022EE31E08DC09A3019F422EE31E091C082
:1007C0009B3019F422EE31E095C09C3019F422EEF2
:1007D00031E099C09D3009F0EFC022EE31E09DC0BC
:1007E000823009F0FAC0903119F422EE31E0A1C054
:1007F000913119F422EE31E0A5C0923119F422EEC4
:1008000031E0A9C0933119F422EE31E0ADC094314A
:1008100019F422EE31E0B1C0953119F422EE31E045
:10082000B5C0963119F422EE31E0B9C0973109F024
:10083000C3C022EE31E0BCC09981892F8695869590
:100840008695B9F5911107C028ED31E030930A0182
:1008500020930901B1C0913039F428ED31E0309393
:100860000C0120930B01A8C0923039F428ED31E03F
:1008700030930E0120930D019FC0933039F428ED81
:1008800031E03093100120930F0196C0943039F479
:1008900028ED31E030931201209311018DC0953085
:1008A00009F08AC028ED31E0309314012093130140
:1008B00083C08130B9F5983039F428ED31E03093B8
:1008C00016012093150178C0993039F428ED31E0F4
:1008D00030931801209317016FC09A3039F428ED36
:1008E00031E030931A012093190166C09B3039F42E
:1008F00028ED31E030931C0120931B015DC09C303A
:1009000039F428ED31E030931E0120931D0154C0CD
:100910009D3009F051C028ED31E030932001209343
:100920001F014AC0823009F058C0903139F428EDD7
:1009300031E030932A01209329013EC0913139F4EE
:1009400028ED31E030932C0120932B0135C09231FA
:1009500039F428ED31E030932E0120932D012CC085
:10096000933139F428ED31E03093300120932F0199
:1009700023C0943139F428ED31E0309322012093E3
:1009800021011AC0953139F428ED31E0309324016A
:100990002093230111C0963139F428ED31E03093D2
:1009A00026012093250108C0973131F428ED31E06C
:1009B0003093280120932701977061E070E001C017
:1009C000660F9A95EAF7E82FF0E0EF5BF94F908118
:1009D000962B9083482F0E94110C8091DA018F5F33
:1009E0008093DA01DF91CF910895685090E011CEA5
:1009F0008E3008F08E508770806480937C008091E8
:100A00007A00806480937A0080917A0086FDFCCF22
:100A1000809178002091790090E0922B08951F92A8
:100A20000F920FB60F9211242F933F938F939F93A2
:100A3000AF93BF938091E2019091E301A091E40113
:100A4000B091E5013091E10123E0230F2D3720F42F
:100A50000196A11DB11D05C026E8230F0296A11D18
:100A6000B11D2093E1018093E2019093E301A093F3
:100A7000E401B093E5018091E6019091E701A09136
:100A8000E801B091E9010196A11DB11D8093E60135
:100A90009093E701A093E801B093E901BF91AF9172
:100AA0009F918F913F912F910F900FBE0F901F90AC
:100AB00018951F920F920FB60F9211242F933F9308
:100AC0004F935F936F937F938F939F93AF93BF9356
:100AD000EF93FF93E0910201F09103010995FF91DB
:100AE000EF91BF91AF919F918F917F916F915F91A6
:100AF0004F913F912F910F900FBE0F901F9018951F
:100B00001F920F920FB60F9211242F933F934F9382
:100B10005F936F937F938F939F93AF93BF93EF9365
:100B2000FF93E0910001F09101010995FF91EF9190
:100B3000BF91AF919F918F917F916F915F914F91F5
:100B40003F912F910F900FBE0F901F9018958F928D
:100B50009F92AF92BF92CF92DF92EF92FF920F934C
:100B60001F93CF93DF93EC018FB7F8944091E2018C
:100B70005091E3016091E4017091E5018FBF8F8195
:100B80009885481B590B8E01075B1F4F4115510576
:100B900009F481C08981382F3695369536953330E2
:100BA000B0F4E32FF0E0E559FF4F6081282F277064
:100BB00081E090E0DC0101C0AA0F2A95EAF72A2F14
:100BC0002095262320832081222309F459C0EB8419
:100BD000FC846701CC0CDD1CCC0EDD1EF601858586
:100BE0009685F80180809180A280B380881A990A46
:100BF000A108B1082D813E81A0E3B5E70E94321320
:100C00009A0140E050E00E940A13F60136872587DA
:100C10001E821D82DA01C901AA27BB27880E991EF0
:100C2000AA1EBB1EF80180829182A282B382C701F4
:100C300001966EE170E00E94F6129C878B872FB7B9
:100C4000F8948091E2019091E301A091E401B091C8
:100C5000E5012FBF8F839887A987BA879981892F4C
:100C60008695869586958330B0F4977061E070E044
:100C700001C0660F9A95EAF7482F0E94110C0BC02D
:100C80002091680001C0880F3A95EAF78095822389
:100C9000809368009CCFF80160817181828193818B
:100CA0002EE130E040E050E00E940A13C901DF91DC
:100CB000CF911F910F91FF90EF90DF90CF90BF9059
:100CC000AF909F908F9008958F929F92AF92BF9216
:100CD000CF92DF92EF92FF928EE480937C000E948D
:100CE000B2016B017C0192E0892E912CA12CB12CD8
:100CF0000E94B201DC01CB018C199D09AE09BF092C
:100D0000883E9340A105B10598F328EEC20E23E07A
:100D1000D21EE11CF11C8A9489288A288B2829F08C
:100D2000812C912C54018394E3CF80917A008064CC
:100D300080937A0080917A0086FDFCCF2091780024
:100D40008091790030E0382B032E000C440B550BBA
:100D50006CEB7BE081E190E00E940A13C901FF90F7
:100D6000EF90DF90CF90BF90AF909F908F900895BD
:100D7000009769F0FC0101900020E9F73197AF017D
:100D8000481B590BBC0183E192E00C94CD0A80E032
:100D900090E00895CF93DF930E94B806EC0188EBB2
:100DA00091E00E94B8068C0F9D1FDF91CF910895AE
:100DB000CF93DF938031910508F042C1FC01EC5CD8
:100DC000FF4F0C942C1380910401DF91CF910C9470
:100DD000F80461E0809105010E944E0280910401B7
:100DE0000E94F804EC0160E08091050126C161E0F9
:100DF000809106010E944E02809104010E94F80435
:100E0000EC0114C061E0809105010E944E0261E096
:100E1000809106010E944E02809104010E94F80414
:100E2000EC0160E0809105010E944E0260E080913B
:100E3000060103C161E0809107010E944E0280918A
:100E400004010E94F804EC0141C061E080910501B9
:100E50000E944E0261E0809107010E944E02809143
:100E600004010E94F804EC0160E0809105012CC0AF
:100E700061E0809106010E944E0261E080910701CD
:100E80000E944E02809104010E94F804EC0119C0F6
:100E900061E0809105010E944E0261E080910601AF
:100EA0000E944E0261E0809107010E944E028091F3
:100EB00004010E94F804EC0160E0809105010E94A9
:100EC0004E0260E0809106010E944E0260E0809137
:100ED0000701B3C061E0809108010E944E02809139
:100EE00004010E94F804EC01A5C061E080910501B5
:100EF0000E944E0261E0809108010E944E028091A2
:100F000004010E94F804EC0160E08091050190C0AA
:100F100061E0809106010E944E0261E0809108012B
:100F20000E944E02809104010E94F804EC0119C055
:100F300061E0809105010E944E0261E0809106010E
:100F40000E944E0261E0809108010E944E02809151
:100F500004010E94F804EC0160E0809105010E9408
:100F60004E0260E08091060163C061E0809107015C
:100F70000E944E0261E0809108010E944E02809121
:100F800004010E94F804EC0150C061E08091050169
:100F90000E944E0261E0809107010E944E0261E0D2
:100FA000809108010E944E02809104010E94F80481
:100FB000EC0160E08091050136C061E0809106019E
:100FC0000E944E0261E0809107010E944E0261E0A2
:100FD000809108010E944E02809104010E94F80451
:100FE000EC011EC061E0809105010E944E0261E0AB
:100FF000809106010E944E0261E0809107010E94EB
:101000004E0261E0809108010E944E02809104012D
:101010000E94F804EC0160E0809105010E944E02FC
:1010200060E0809106010E944E0260E0809107011D
:101030000E944E0260E0809108010E944E0206C0AC
:101040008BEB91E00E94CA06C0E0D0E0CE01DF91B8
:10105000CF9108952F923F924F925F926F927F921D
:101060008F929F92AF92BF92CF92DF92EF92FF92B8
:101070000F931F93CF93DF93CDB7DEB760970FB673
:10108000F894DEBF0FBECDBF85E00E94F8045C017E
:10109000E0919B03F0919C03EE0FFF1FE356FC4F82
:1010A000208131818091970390919803A0919903B9
:1010B000B0919A03821B930BA109B1098093970306
:1010C00090939803A0939903B0939A030E946406A7
:1010D0008C010E94640640919B0350919C03292F30
:1010E00026952695269530E0FA01EE0FFF1FE35670
:1010F000FC4FC080D180E12CF12CC20ED31EE11C2C
:10110000F11C9801D5010E944113DC01CB011AE0CA
:10111000B695A795979587951A95D1F7C80ED91EBC
:10112000EA1EFB1ED182C082EE24FF248091970329
:1011300090919803A0919903B0919A03C80ED91E7B
:10114000EA1EFB1EC0929703D0929803E092990387
:10115000F0929A03CA0101966EE170E00E94F612C5
:1011600090939C0380939B03C701B6012EE130E06E
:1011700040E050E00E940A133093EB012093EA0113
:101180008091B4028093EC0180EB92E00E94A7056D
:101190009093EE018093ED018DEF92E00E94A70500
:1011A0009093F0018093EF018AE493E00E94A705F9
:1011B0009093F2018093F1010FE1E02E04E0F02E14
:1011C00029ED33E0388B2F8743EF51E05A83498371
:1011D00000E010E08BE4382EC8010E94D8066C01B4
:1011E000EF85F88980849184F5E08F0E911C880C3E
:1011F000991C309EC001319E900D1124880D991DBF
:101200009C0127523C4F4901F90180819181F701EE
:101210004081518162817381481B590B61097109B9
:101220004083518362837383EF85F889E65BFF4FC8
:101230002081EF85F88984819581A681B781222359
:1012400009F45AC0892B8A2B8B2B01F50E94640666
:101250005C010E946406792E0E946406769476945E
:1012600076947B821C824B815C81481B590B9501D3
:10127000D6010E943213DC01CB017AE0B695A79526
:10128000979587957A95D1F7BA0154C00E94640664
:101290005C010E946406292E0E946406EF85F8898D
:1012A00044805580668077802694269426942D82EB
:1012B0001E824D815E819A0140E050E0281B390B6F
:1012C000410951092B873C874D875E879501D601DF
:1012D0000E943213DC01CB016AE0B695A795979581
:1012E00087956A95D1F72B853C854D855E85280FBE
:1012F000391F4A1F5B1F4AC0892B8A2B8B2B01F594
:101300000E9464065C010E946406492F9501D60183
:101310000E943213DC01CB015AE0B695A795979550
:1013200087955A95D1F74695469546954F831886E9
:101330006F817885680F791FF4017183608339C0EC
:101340000E9464065C010E946406492FEF85F889BB
:1013500044805580668077809501D6010E943213C3
:10136000DC01CB013AE0B695A795979587953A951C
:10137000D1F746954695469549871A869C01AD0159
:1013800069857A85260F371F411D511D8081918106
:10139000A281B381BC01CD01640D751D861D971D11
:1013A0000E94E612A30192010E940A13F401318304
:1013B0002083EF85F88980859185AC014B5F5F4F75
:1013C000440F551F309E9001319E300D1124240F83
:1013D000351FF901E752FC4F20813181F7018080F0
:1013E0009180A280B380820E931EA11CB11C8082CA
:1013F0009182A282B38201966EE170E00E94F612A1
:10140000EF85F88991878087C501B4012EE130E02E
:1014100040E050E00E940A13E981FA812193319360
:10142000FA83E983FBE4EF0EF11C2F853889255BF5
:101430003F4F388B2F870F5F1F4F0830110509F082
:10144000CBCE03E012E0E12CF12CC7010E94D806BC
:1014500060E070E0CB010E948E11F80161937193FE
:101460008F01FFEFEF1AFF0A28E0E216F10469F797
:1014700060960FB6F894DEBF0FBECDBFDF91CF915F
:101480001F910F91FF90EF90DF90CF90BF90AF90A2
:101490009F908F907F906F905F904F903F902F9094
:1014A00008950C94B8068F929F92AF92BF920F93BB
:1014B0001F93CF93DF93CDB7DEB7A1970FB6F89404
:1014C000DEBF0FBECDBF19A2423008F44AE08E0144
:1014D0000F5D1F4F842E912CA12CB12CA5019401DE
:1014E0000E940A13E62FB901CA0101501109EA301E
:1014F00014F4E05D01C0E95CD801EC93232B242BAC
:10150000252B61F7C8010E94B806A1960FB6F89482
:10151000DEBF0FBECDBFDF91CF911F910F91BF9066
:10152000AF909F908F900895E0911302F091140274
:101530000190F081E02D682F83E192E00994CF9231
:10154000DF92EF92FF92CF93DF936C01990FEE0839
:10155000FF08F7FE17C08DE20E94940AEC0166278F
:101560007727CB016C197D098E099F094AE00E94FB
:10157000530A8C0F9D1FDF91CF91FF90EF90DF906A
:10158000CF9008954AE0C701B601DF91CF91FF9057
:10159000EF90DF90CF900C94530ACF92DF92EF92AE
:1015A000FF920F931F93CF93DF936C017A018B010E
:1015B000C0E0D0E0CE15DF0589F0D8016D918D0136
:1015C000D601ED91FC910190F081E02DC6010995C5
:1015D000892B11F47E0102C02196ECCFC701DF9167
:1015E000CF911F910F91FF90EF90DF90CF900895D2
:1015F00008950E9453131F920F920FB60F92112459
:101600002F933F934F935F936F937F938F939F930A
:10161000AF93BF93CF93EF93FF9399B18091460619
:10162000C0914306C8238927C82390934606C4FF68
:1016300005C0E0912101F09122010995C5FF05C087
:10164000E0912301F09124010995C6FF05C0E091C6
:101650002501F09126010995C7FF05C0E0912701FA
:10166000F09128010995C0FF05C0E0912901F09192
:101670002A010995C1FF05C0E0912B01F0912C01D1
:101680000995C2FF05C0E0912D01F0912E01099549
:10169000C3FF05C0E0912F01F09130010995FF9142
:1016A000EF91CF91BF91AF919F918F917F916F916A
:1016B0005F914F913F912F910F900FBE0F901F9010
:1016C00018951F920F920FB60F9211242F933F93EC
:1016D0004F935F936F937F938F939F93AF93BF933A
:1016E000CF93EF93FF9396B180914506C091420648
:1016F000C8238927C82390934506C0FF05C0E09101
:101700001501F09116010995C1FF05C0E09117017F
:10171000F09118010995C2FF05C0E0911901F091FF
:101720001A010995C3FF05C0E0911B01F0911C014E
:101730000995C4FF05C0E0911D01F0911E010995B6
:10174000C5FF05C0E0911F01F09120010995FF91AF
:10175000EF91CF91BF91AF919F918F917F916F91B9
:101760005F914F913F912F910F900FBE0F901F905F
:1017700018951F920F920FB60F9211242F933F933B
:101780004F935F936F937F938F939F93AF93BF9389
:10179000CF93EF93FF9393B180914406C09141069C
:1017A000C8238927C82390934406C0FF05C0E09151
:1017B0000901F0910A010995C1FF05C0E0910B01F3
:1017C000F0910C010995C2FF05C0E0910D01F09167
:1017D0000E010995C3FF05C0E0910F01F0911001C2
:1017E0000995C4FF05C0E0911101F091120109951E
:1017F000C5FF05C0E0911301F09114010995FF9117
:10180000EF91CF91BF91AF919F918F917F916F9108
:101810005F914F913F912F910F900FBE0F901F90AE
:101820001895982F813039F020F0823051F489B129
:1018300003C083B101C086B1E42FF0E0EC5BF94F47
:101840008083E92FF0E0E559FF4F8081682B6083AA
:101850004091680021E030E0B90102C0660F771FB7
:101860009A95E2F7CB01842B8093680008957894D1
:1018700084B5826084BD84B5816084BD85B5826095
:1018800085BD85B5816085BD80916E008160809346
:101890006E001092810080918100826080938100AF
:1018A00080918100816080938100809180008160BF
:1018B000809380008091B10084608093B10080911A
:1018C000B00081608093B00080917A008460809342
:1018D0007A0080917A00826080937A0080917A0009
:1018E000816080937A0080917A00806880937A008A
:1018F0001092C100E0912302F091240282E08083E3
:10190000E0911F02F09120021082E0912102F091FB
:1019100022028FEC808310922B02E0912702F0913B
:10192000280286E08083E0912502F09126028081E2
:1019300080618083E0912502F09126028081886099
:101940008083E0912502F091260280818068808367
:10195000E0912502F091260280818F7D808346E010
:1019600060E080EB92E00E94F90240E064E08DEFDD
:1019700092E00E94F90240E065E08AE493E00E9470
:10198000F9021092B40260E070E08091B2020E940D
:101990009A021092040182E18093050181E1809313
:1019A000060180E1809307018FE08093080161E0E8
:1019B00082E10E94760161E0809106010E94760139
:1019C00061E0809107010E94760161E08091080149
:1019D0000E94760160E0809105010E944E0260E065
:1019E000809106010E944E0260E0809107010E94F2
:1019F0004E0260E0809108010E944E021092D903CD
:101A00001092DA031092DB031092DC031092DD03D4
:101A10001092DE031092DF031092E0031092230471
:101A200010921F041092200410922104109222049C
:101A30001092E2031092E103E3EEF3E011921192AF
:101A400084E0EF31F807D1F784E89EE4A0E0B0E04D
:101A50008093240490932504A0932604B093270434
:101A60008CEA94E8A1E0B0E08093280490932904E4
:101A7000A0932A04B0932B0410926E0410926A046F
:101A800010926B0410926C0410926D0410922D044D
:101A900010922C04EEE2F4E01192119284E0EA3606
:101AA000F807D1F780EB99E5AFE0B0E080936F04E1
:101AB00090937004A0937104B093720488ED9FE238
:101AC000A7E0B0E08093730490937404A09375042E
:101AD000B09376041092B9041092B5041092B60433
:101AE0001092B7041092B804109278041092770400
:101AF000E9E7F4E01192119284E0E53BF807D1F7B1
:101B000080E79AE3AFE0B0E08093BA049093BB041F
:101B1000A093BC04B093BD0488E098E2A7E0B0E0D5
:101B20008093BE049093BF04A093C004B093C104FB
:101B300081E0809304051092000510920105109237
:101B40000205109203051092C3041092C204E4EC43
:101B5000F4E01192119285E0E030F807D1F780EBC4
:101B60009AE6A1E2B0E08093050590930605A09364
:101B70000705B093080588E098E2A7E0B0E08093FD
:101B8000090590930A05A0930B05B0930C051092DC
:101B90004F0510924B0510924C0510924D05109276
:101BA0004E0510920E0510920D05EFE0F5E0119232
:101BB000119285E0EB34F807D1F780EB9AE6A1E2C9
:101BC000B0E08093500590935105A0935205B093D7
:101BD000530588E098E2A7E0B0E080935405909325
:101BE0005505A0935605B093570510929A0510928B
:101BF00096051092970510929805109299051092EB
:101C0000590510925805EAE5F5E01192119285E028
:101C1000E639F807D1F784E89EE4A0E0B0E08093CD
:101C20009B0590939C05A0939D05B0939E0580E332
:101C300098E8A1E0B0E080939F059093A005A09361
:101C4000A105B093A2051092E5051092E10510924E
:101C5000E2051092E3051092E4051092A40510929B
:101C6000A305E5EAF5E01192119285E0E13EF8075F
:101C7000D1F788EE9EE4A0E0B0E08093E605909373
:101C8000E705A093E805B093E9058CEC97E8A1E09F
:101C9000B0E08093EA059093EB05A093EC05B09338
:101CA000ED051092300610922C0610922D0610921F
:101CB0002E0610922F061092EF051092EE05E0EF1F
:101CC000F5E01192119286E0EC32F807D1F710920C
:101CD0009703109298031092990310929A0310920E
:101CE0009C0310929B03EDE9F3E01192119283E0C3
:101CF000E93DF807D1F7CEE1D0E00E942A0821970C
:101D0000E1F70E942A0880E691E00E94CA0683E477
:101D100091E00E94510A6091EA017091EB0180E02C
:101D200090E00E94BD1120E030E040E251E40E94CA
:101D30001C116B017C014B015C019B01AC010E94F9
:101D4000E112882319F081E591E01AC026013701DC
:101D5000E89477F82FEF3FEF4FE75FE7C301B20159
:101D60000E94E11281110FC02FEF3FEF4FE75FE7B5
:101D7000C301B2010E94171118162CF485E591E0F9
:101D80000E94B80674C02FEF3FEF4FE75FE4C70132
:101D9000B6010E946F1218161CF489E591E0F0CF8D
:101DA0002FEF3FEF4FE75FECC701B6010E9417111D
:101DB00087FDF3CF20E030E0A901C701B6010E9402
:101DC000171187FF09C08DE20E94940A460157014E
:101DD000B7FAB094B7F8B0942AE037ED43EA5BE382
:101DE000C501B4010E94AB104B015C010E948E1131
:101DF0006B017C010E94BD119B01AC01C501B401C6
:101E00000E94AA104B015C014AE0C701B6010E9482
:101E1000530A8EE20E94940A20E030E040E251E44E
:101E2000C501B4010E9474124B015C010E948E1125
:101E30006B01E12CF12C4AE0C701B6010E94530A64
:101E4000C701B6010E94BD119B01AC01C501B401DF
:101E50000E94AA1020E030E040E251E40E94741297
:101E60000E948E1180E090E04AE00E94530A80EBCD
:101E70000E94940A8DE591E00E94510A8FE591E05D
:101E80000E94510A81E691E00E94510A6091EC01A2
:101E900070E080E090E04AE00E94530A82E791E01F
:101EA0000E94510A8FE591E00E94510A84E791E077
:101EB0000E94510A6091ED017091EE0180E090E086
:101EC0004AE00E94530A82E891E00E94510A8FE59D
:101ED00091E00E94510A87E891E00E94510A6091C6
:101EE000EF017091F00180E090E04AE00E94530A17
:101EF00082E891E00E94510A8FE591E00E94510A28
:101F000085E991E00E94510A6091F1017091F2011E
:101F100080E090E04AE00E94530A82E891E00E944B
:101F2000510A8FE591E00E94510A89EB91E00E94ED
:101F3000CA0683EA91E00E94CA06E12CF12CC7018F
:101F40000E949F0A8FE591E00E94510A8FEFE81AE4
:101F5000F80A88E0E816F10491F780E691E00E9423
:101F6000CA06C3EFD1E06991799180E090E04AE040
:101F70000E94530A8FE591E00E94510A82E0C3302B
:101F8000D80789F789EB91E00E94CA068DEA91E0B3
:101F90000E94CA06E12CF12CC7010E949F0A8FE51E
:101FA00091E00E94510A8FEFE81AF80A88E0E816DB
:101FB000F10491F780E691E00E94CA06C3E0D2E006
:101FC0006991799180E090E04AE00E94530A8FE5A0
:101FD00091E00E94510A82E0C331D80789F789EB6A
:101FE00091E00E94CA060E946C018BCE10921602EC
:101FF0001092150288EE93E0A0E0B0E08093170203
:1020000090931802A0931902B0931A0285E391E00D
:10201000909314028093130285EC90E09093200239
:1020200080931F0284EC90E090932202809321021F
:1020300080EC90E0909324028093230281EC90E066
:10204000909326028093250282EC90E090932802E0
:102050008093270286EC90E090932A0280932902D5
:1020600010922C0210922D0210922E0210922F022A
:102070008FEF9FEFDC018093B7029093B802A0939B
:10208000B902B093BA021092BC021092BB02109235
:10209000F9021092FA021092FB021092FC02809355
:1020A000040390930503A0930603B09307031092D3
:1020B00009031092080310924603109247031092EE
:1020C0004803109249038093510390935203A093C5
:1020D0005303B09354031092560310925503109279
:1020E0009303109294031092950310929603E9EDD6
:1020F000F3E01082118212821382148215821682FA
:10210000178211861086DF01AA5BBF4F1D921D92B8
:102110001D921C92139714961C92E55BFF4F26E0CC
:10212000E133F20731F7E1E3F6E08FEF9FEF8193C0
:10213000919326E0E134F207D1F7109297031092C1
:1021400098031092990310929A0310929C03109294
:102150009B0308955058BB27AA270E94C2100C94D5
:1021600035120E94271238F00E942E1220F039F406
:102170009F3F19F426F40C9424120EF4E095E7FB2B
:102180000C941E12E92F0E94461258F3BA176207E8
:1021900073078407950720F079F4A6F50C9468126C
:1021A0000EF4E0950B2EBA2FA02D0B01B901900172
:1021B0000C01CA01A0011124FF27591B99F0593FB6
:1021C00050F4503E68F11A16F040A22F232F342FFE
:1021D0004427585FF3CF469537952795A795F0404C
:1021E0005395C9F77EF41F16BA0B620B730B840B61
:1021F000BAF09150A1F0FF0FBB1F661F771F881F19
:10220000C2F70EC0BA0F621F731F841F48F4879570
:1022100077956795B795F7959E3F08F0B0CF939562
:10222000880F08F09927EE0F9795879508950E94DB
:10223000FA1108F481E008950E9430110C943512CF
:102240000E942E1258F00E94271240F029F45F3F9E
:1022500029F00C941E1251110C9469120C94241242
:102260000E94461268F39923B1F3552391F3951B0D
:10227000550BBB27AA2762177307840738F09F5FA7
:102280005F4F220F331F441FAA1FA9F335D00E2E14
:102290003AF0E0E832D091505040E695001CCAF781
:1022A0002BD0FE2F29D0660F771F881FBB1F261744
:1022B00037074807AB07B0E809F0BB0B802DBF011B
:1022C000FF2793585F4F3AF09E3F510578F00C94EA
:1022D0001E120C9469125F3FE4F3983ED4F3869586
:1022E00077956795B795F7959F5FC9F7880F911D0B
:1022F0009695879597F90895E1E0660F771F881FF7
:10230000BB1F621773078407BA0720F0621B730BA9
:10231000840BBA0BEE1F88F7E09508950E944E12C9
:1023200088F09F5798F0B92F9927B751B0F0E1F096
:10233000660F771F881F991F1AF0BA95C9F714C046
:10234000B13091F00E946812B1E008950C946812C7
:10235000672F782F8827B85F39F0B93FCCF386957F
:1023600077956795B395D9F73EF4909580957095DC
:1023700061957F4F8F4F9F4F0895E89409C097FB59
:102380003EF490958095709561957F4F8F4F9F4F4C
:102390009923A9F0F92F96E9BB279395F695879590
:1023A00077956795B795F111F8CFFAF4BB0F11F453
:1023B00060FF1BC06F5F7F4F8F4F9F4F16C08823FA
:1023C00011F096E911C0772321F09EE8872F762F30
:1023D00005C0662371F096E8862F70E060E02AF071
:1023E0009A95660F771F881FDAF7880F969587955D
:1023F00097F90895990F0008550FAA0BE0E8FEEF32
:1024000016161706E807F907C0F012161306E407B8
:10241000F50798F0621B730B840B950B39F40A26B1
:1024200061F0232B242B252B21F408950A2609F48F
:10243000A140A6958FEF811D811D089597F99F6793
:1024400080E870E060E008959FEF80EC089500243C
:102450000A941616170618060906089500240A9409
:1024600012161306140605060895092E0394000C8F
:1024700011F4882352F0BB0F40F4BF2B11F460FF1E
:1024800004C06F5F7F4F8F4F9F4F089557FD905847
:10249000440F551F59F05F3F71F04795880F97FB28
:1024A000991F61F09F3F79F08795089512161306E2
:1024B0001406551FF2CF4695F1DF08C01616170611
:1024C0001806991FF1CF8695710561050894089546
:1024D000E894BB2766277727CB0197F908950E94D8
:1024E000FA1108F48FEF08950E9487120C943512A8
:1024F0000E94271238F00E942E1220F0952311F02E
:102500000C941E120C94241211240C9469120E9433
:10251000461270F3959FC1F3950F50E0551F629FCF
:10252000F001729FBB27F00DB11D639FAA27F00D2C
:10253000B11DAA1F649F6627B00DA11D661F829F53
:102540002227B00DA11D621F739FB00DA11D621F38
:10255000839FA00D611D221F749F3327A00D611D55
:10256000231F849F600D211D822F762F6A2F112437
:102570009F5750409AF0F1F088234AF0EE0FFF1F6A
:10258000BB1F661F771F881F91505040A9F79E3FC1
:10259000510580F00C941E120C9469125F3FE4F315
:1025A000983ED4F3869577956795B795F795E79517
:1025B0009F5FC1F7FE2B880F911D9695879597F920
:1025C00008950E94FA11880B990B0895DB018F93EF
:1025D0009F930E944813BF91AF91A29F800D911DC0
:1025E000A39F900DB29F900D11240895AA1BBB1BB1
:1025F00051E107C0AA1FBB1FA617B70710F0A61B03
:10260000B70B881F991F5A95A9F780959095BC0123
:10261000CD010895A1E21A2EAA1BBB1BFD010DC01E
:10262000AA1FBB1FEE1FFF1FA217B307E407F50782
:1026300020F0A21BB30BE40BF50B661F771F881F5E
:10264000991F1A9469F760957095809590959B01F4
:10265000AC01BD01CF010895EE0FFF1F0590F4916D
:10266000E02D0994A29FB001B39FC001A39F700DFC
:10267000811D1124911DB29F700D811D1124911D8A
:1026800008950E943213B7FF0895821B930B08959B
:102690000E943213A59F900DB49F900DA49F800DB2
:1026A000911D1124089581E090E0F8940C94581342
:0426B000F894FFCFCC
:1026B400D701D701FFFFFFFFFFF80AF80AF80AF86D
:1026C4000AF80AF80AF80AF80AF80AF80AF80AF8F6
:1026D4000AF80AF80AF80AF80AF80AF80AF80AF8E6
:1026E4000A000000000301CD0A9B004A01CC00AAA5
:1026F40000BE0054656D70657261747572653A2030
:10270400006E616E00696E66006F766600430009B4
:102714000046616E2044757479204379636C653A90
:102724002000250046616E20312053706565643AAF
:1027340020002052504D0046616E203220537065B7
:1027440065643A200046616E2033205370656564E9
:102754003A2000566F6C74616765733A00416D707E
:102764006572616765733A000D0A004552524F5213
:102774003A20496E76616C6964204D75782043680F
:0A278400616E6E656C204944000090
:00000001FF
